:020000040800F2
:1000000000800020F13D0008690500086B0500082C
:100010006D0500086F05000871050008000000006C
:100020000000000000000000000000007305000850
:100030007505000800000000770500087905000834
:10004000413E0008413E0008413E0008413E000894
:10005000413E0008413E0008413E0008413E000884
:10006000413E0008413E0008413E0008413E000874
:10007000413E0008413E0008413E0008413E000864
:10008000413E000800000000413E0008413E0008DB
:1000900081050008413E0008413E0008413E00083D
:1000A000413E0008413E0008413E0008413E000834
:1000B000413E0008413E0008413E0008413E000824
:1000C000413E0008413E0008413E0008413E000814
:1000D000413E0008413E0008413E0008413E000804
:1000E000413E0008413E0008413E0008413E0008F4
:1000F000413E0008413E0008413E0008000000006B
:1001000000000000413E000800000000413E0008E1
:10011000413E000800000000413E0008413E00084A
:10012000413E0008413E0008413E0008413E0008B3
:10013000413E00080000000000000000413E0008B1
:10014000413E0008413E00080000000000000000A1
:10015000000000000000000000000000000000009F
:10016000000000000000000000000000413E000808
:10017000413E0008000000000000000000000000F8
:1001800000000000413E00080000000000000000E8
:1001900000000000413E00080000000000000000D8
:1001A0000000000000000000413E0008413E000841
:1001B000413E0008413E0008413E000800000000AA
:1001C00000000000413E00080000000000000000A8
:0801D000413E0008413E000819
:1001E00010B5054C237833B9044B13B10448AFF371
:1001F00000800123237010BD3002002000000000A9
:100200003047000808B5034B1BB103490348AFF35F
:10021000008008BD000000003402002030470008C4
:1002200001F0FF01102A2BDB10F0070F08D010F8A7
:10023000013B013A8B422DD010F0070F42B3F6D1AB
:10024000F0B441EA012141EA014122F007047FF0C4
:1002500000070023F0E80256083C85EA010586EA1B
:10026000010685FA47F5A3FA87F586FA47F6A5FA57
:1002700087F68EB9EED1F0BC01F0FF0102F0070263
:1002800032B110F8013B013A83EA010313B1F8D10E
:100290000020704701387047002D06BF35460338EF
:1002A000073815F0010F07D1013015F4807F02BF28
:1002B000013015F4C03F0130F0BC0138704700BF79
:1002C000084AD36C43F00203D364074A136823F04F
:1002D000022323F408031360936943F400739361CA
:1002E000704700BF0010024000040048064AD36C6B
:1002F00043F00103D3644FF0904300221A604FF0A3
:1003000055321A60704700BF00100240144A13684B
:1003100043F48033136002F58052136843F0030303
:1003200013600F4B1B6813F4003FFAD00C4BD3F84B
:10033000882042F00062C3F88820D968094A0A433D
:10034000DA601A6842F080721A60054B1B6813F07D
:10035000007FFAD0024A936843F00303936070472A
:100360000010024033303000094AD36C43F480332C
:10037000D364084B1A6842F001021A601A6942F00D
:1003800040021A615A6842F001025A60704700BF89
:100390000010024000080050274B9A6D42F0805236
:1003A0009A6526490A6842F480720A609A6D42F49E
:1003B00080629A65D3F8902042F00102C3F8902041
:1003C0001D4BD3F8903013F0020FF9D01A4BD3F82D
:1003D000902022F44072C3F89020D3F8902042F489
:1003E0008072C3F89020D3F8902042F40042C3F802
:1003F0009020A3F5F433CA225A6253225A62DA6873
:1004000042F08002DA600E4BDB6813F0400FFAD046
:100410000B4B9A6942F040029A6100221A60094A25
:100420001A60DA6822F08002DA60054BDB6813F0AC
:10043000200FFAD0704700BF00100240007000404B
:10044000002800400044410070B502F0BFFAFFF7F9
:100450005DFFFFF735FFFFF749FF3B4A936D43F41C
:100460000003936539493A4800F006FA394B1860A1
:1004700003F022FB03F0BCFB00220121084603F03D
:10048000A1FB0021012003F092FBFFF76DFFFFF7B6
:1004900083FF314A936943F0007393612F480368E7
:1004A00003F00F030268C2F3021202EB8202056836
:1004B000C5F303250168C1F3023101EB8101046832
:1004C000C4F303440068C0F3015000EB800003EB69
:1004D000420305EB410204EB4001214803F098FB85
:1004E00003F060FBFA2002F093FA1C4B1E6806F042
:1004F0000F061A68C2F3021202EB820206EB4206F2
:100500001D68C5F303251A68C2F3023202EB8202AA
:1005100005EB42051C68C4F303441A68C2F3015298
:1005200002EB820204EB42042946204603F08EFBD4
:1005300003F040FC33462A462146094803F068FB95
:1005400003F030FBCEE700BF0010024000000020A7
:100550004C0200206C0200200004004800280040EB
:100560004847000872B6FEE7FEE7FEE7FEE7FEE753
:10057000FEE770477047704708B502F037FA08BDCC
:1005800008B5024800F0C6FF08BD00BF7002002099
:1005900000B583B00B4B1A6E42F001021A661A6E58
:1005A00002F001020092009A9A6D42F080529A6520
:1005B0009B6D03F080530193019B02F03DFA03B061
:1005C0005DF804FB00100240032805D8DFE800F0C6
:1005D00005040205012070470320704708B5FFF7A6
:1005E00095FE08BD02680E4B9A4200D0704700B5D8
:1005F00083B003F5DA339A6D42F400029A659B6D7D
:1006000003F400030193019B00221146142002F021
:100610002DFA142002F062FA03B05DF804FB00BF6B
:10062000005C004008B500F52C71D0F8F00202F033
:10063000C4FA08BD08B501EB810300EBC303D3F88E
:100640007C21D0F8F00202F0E4FA08BD08B501EB15
:10065000810300EBC303DA6BD0F8F00202F015FB64
:1006600008BD08B5D0F8F00202F0B5FB08BD10B522
:1006700004468368022B09D10121D4F8F00202F06C
:1006800090FBD4F8F00202F05FFB10BDFFF76AFFA9
:10069000F2E7000010B50446D0F8F00202F084FB47
:1006A000A36923B1024A136943F00603136110BD25
:1006B00000ED00E010B50446836923B9D4F8F002D8
:1006C00002F07CFB10BD044A136923F0060313619A
:1006D000FFF784FFF2E700BF00ED00E010B504462D
:1006E0001E48C0F8F042C4F8C4021D4B0360082342
:1006F0004360022383600361002343618361C3611C
:10070000036200F059FA30BB182300221146D4F8D6
:10071000C40201F024F9582300228021D4F8C40235
:1007200001F01DF9C02300228121D4F8C40201F098
:1007300016F94FF4887300220121D4F8C40201F0A5
:100740000EF94FF4807300228221D4F8C40201F024
:1007500006F9002010BDFFF705FFD5E77002002065
:10076000005C004008B5D0F8C40200F097FAFFF72B
:100770002BFF08BD08B594461A466346D0F8C4025C
:1007800000F0B6FFFFF720FF08BD08B5D0F8C4029F
:1007900000F0F0FFFFF718FF08BD08B5D0F8C4025D
:1007A00001F06DF8FFF710FF08BD08B5D0F8C402DE
:1007B00001F09AF8FFF708FF08BDD0F8C43211F035
:1007C000800F08D101F07F0101EB810103EBC10132
:1007D00091F86A01704701F07F01013101EB81015D
:1007E00003EBC1018878704708B5D0F8C40200F067
:1007F0007DFEFFF7E9FE08BD08B5D0F8C40201F0A0
:1008000016F8FFF7E1FE08BD08B5D0F8C40200F005
:10081000E3FFFFF7D9FE08BD08B5D0F8C40200F029
:10082000FDFF08BD10B5044611B101290FD010BD60
:10083000836923B9D4F8F00202F0C0FAF7E7FFF7B2
:10084000CDFE094A136923F006031361F2E7D0F8DD
:10085000F00202F0A9FAA369002BE8D0024A13695A
:1008600043F006031361E2E700ED00E00048704743
:10087000640500207047000070B506460D46002252
:100880001549164802F056F9C8B91549134802F03F
:1008900068F9B8B91349114802F0D3FFA8B90F4855
:1008A00002F076F9A0B90D4C3146204602F0DBFF8C
:1008B00020222946204602F0CBFF204670BDFFF7DC
:1008C00051FEE2E7FFF74EFEE4E7FFF74BFEE6E7F7
:1008D000FFF748FEE7E700BF200000208407002064
:1008E000940000207400002012230B800048704701
:1008F0004000002004230B80004870475400002073
:10090000002393421ED200B510E00CF1370C01F821
:1009100013C000014FEA430C0CF1010C4FF0000E24
:1009200001F80CE00133DBB2934209D24FEA107CAC
:10093000B0F1204FE9D20CF1300C01F813C0E8E718
:100940005DF804FB7047000038B50B4BD3F89005F9
:10095000D3F89445D3F89835C01800D138BD074D69
:100960000822A91CFFF7CCFF042205F11201204642
:10097000FFF7C6FFF2E700BF0070FF1F580000201E
:1009800008B51A230B80FFF7DFFF014808BD00BF41
:100990005800002008B50A4628B90549054802F064
:1009A00074FD034808BD0249024802F06EFDF8E7F5
:1009B000540A00206047000810B50A46034C21463F
:1009C000034802F062FD204610BD00BF540A00201B
:1009D0007847000808B50A4628B90549054802F0D5
:1009E00054FD034808BD0249024802F04EFDF8E7F5
:1009F000540A00208C47000808B50A4628B9054962
:100A0000054802F042FD034808BD0249024802F0D1
:100A10003CFDF8E7540A0020984700080020704782
:100A2000002070470020704770B504460D46104EF8
:100A30000146304602F017FF304602F01DFF00234A
:100A40002A689A4208D914F903C00A4A02F803C076
:100A50001F2B0AD00133F3E71F2B04DC054A0021CA
:100A6000D1540133F8E7002070BD0320FCE700BF3C
:100A7000840700204C02002010B5064C00220649D5
:100A8000204602F0E5FE0549204602F0ECFE00207B
:100A900010BD00BF840700203C100020540C002033
:100AA00038B512F4804F43D00468B4F8503091F850
:100AB00000C04FEACC0E1EFA83F32344B3F802447D
:100AC000C4F309048B69A34228D31B1B8B618B6978
:100AD0007BB9056835F82C309BB223F4804323F0B2
:100AE000700383F4005343F4004343F0800325F87C
:100AF0002C3012F0400F0ED002680D7832F82530FD
:100B00009BB223F4E04323F0700343F4004343F02B
:100B1000C00322F8253024B9204638BD00238B615C
:100B2000D5E723460A894969006801F00FFFF3E71A
:100B30000468B4F8503091F800C04FEACC0E1EFAA9
:100B400083F32344B3F80644C4F309048B69A34236
:100B50002FD31B1B8B618B697BB9056835F82C3053
:100B60009BB223F4804323F0700383F4005343F4D7
:100B7000004343F0800325F82C3012F0400F0FD1D2
:100B8000026891F800C032F82C309BB223F4E043A5
:100B900023F0700343F4004343F0C00322F82C30E9
:100BA000002CB9D023464A894969006801F0CEFE7D
:100BB000B2E700238B61CEE700286DD030B587B057
:100BC000044690F8A9323BB1032384F8A932206887
:100BD00000F000FF00231FE080F8A832FFF702FDBD
:100BE000F2E75A1C02EB820104EBC10101204870BC
:100BF00002EB820104F8313003EB830104EBC10105
:100C0000CB8602EB820C04EBCC0C00208CF80300AA
:100C10008863C8630864D3B260688342E1D3002369
:100C200016E003EB830204EBC202002182F8691193
:100C300082F8683182F86B11C2F87811C2F87C1121
:100C400003EB830204EBC202C2F880110133DBB272
:100C50009842E6D8A4465CF8105BEE46BCE80F006C
:100C6000AEE80F00DCF80030CEF80030231D0ECBCC
:100C7000284600F0B9FE002384F82430012384F8CC
:100C8000A932E369012B02D0002007B030BD204615
:100C900000F081FE0020F8E70120704790F8A832AC
:100CA000012B0ED010B50446012380F8A83200684D
:100CB00000F087FE206801F0CDF9002084F8A8023A
:100CC00010BD0220704770B505460C46164612F05E
:100CD000400F00F009810268B2F850300978C8006E
:100CE00010FA83F31344B3F80224C2F30902A36990
:100CF000934251D99B1AA361A369002B68D16378F1
:100D0000002B4CD12A68B2F8503012FA83F3034416
:100D1000B3F8022492B222F4F84292B2A3F8022469
:100D2000B3F802246FEA42426FEA524292B2A3F849
:100D3000022429686278002A3DD1B1F8503011FAB6
:100D400083F3227803EBC203B3F8062492B222F4B1
:100D5000F84292B2A3F80624B3F806246FEA42429E
:100D60006FEA524292B2A3F8062421782846FFF790
:100D70006DFC16F4804F40D02A68217832F821307B
:100D80009BB223F4E04323F0700343F4404343F069
:100D9000800322F8213030E00023A361ACE7012B6F
:100DA000C7D12A68B2F8503012FA83F30344002204
:100DB000A3F80224BDE7012AD7D1B1F8503011FAC7
:100DC00083F3217803EBC1030022A3F80624CCE7C8
:100DD00016F4804F0DD0286830F821309BB223F4F0
:100DE000E04323F0700343F4404343F0800320F8D2
:100DF000213094F82430012B12D02A68217832F85F
:100E000021309BB223F4E04323F0400383F030030E
:100E100043F4004343F0800322F82130002070BDEA
:100E2000636913446361E3691344E361216A2369DD
:100E300099421FD3C91A21626278002A3FD12968DA
:100E4000B1F8502011FA82F2217802EBC102EBB91D
:100E5000B2F8021489B221F4F84189B2A2F802145E
:100E6000B2F802146FEA41416FEA514189B2A2F827
:100E7000021426E021B9002384F824301346DBE76E
:100E8000002384F8243023620B46D5E73E2B09D893
:100E9000590813F0010F00D00131890289B2A2F87C
:100EA00002140EE0590913F01F0F00D101396FEA47
:100EB000C1616FEA514189B2A2F8021401E0012A2E
:100EC00006D09BB222896169286801F0D2F894E7C4
:100ED0002968B1F8502011FA82F2217802EBC102A0
:100EE00099B2A2F80214ECE70268B2F8503009781F
:100EF000C80010FA83F31344B3F80624C2F30902BE
:100F0000A369934252D39B1AA361A369002B69D1B1
:100F10006378002B4DD12A68B2F8503012FA83F36F
:100F20001844B0F802349BB223F4F8439BB2A0F803
:100F30000234B0F802346FEA43436FEA53439BB282
:100F4000A0F8023429686278002A3ED1B1F8503006
:100F500011FA83F3227803EBC203B3F8062492B2AA
:100F600022F4F84292B2A3F80624B3F806246FEAFA
:100F700042426FEA524292B2A3F8062421782846F0
:100F8000FFF764FB16F4804F7FF437AF2A682178AF
:100F900032F821309BB223F4E04323F0700343F492
:100FA000404343F0800322F8213026E70023A36169
:100FB000ABE7012BC6D12A68B2F8503012FA83F39E
:100FC00018440023A0F80234BCE7012AD6D1B1F8B6
:100FD000503011FA83F3217803EBC1030022A3F808
:100FE0000624CBE716F4804F0DD1286830F8213065
:100FF0009BB223F4E04323F0700343F4404343F0F7
:10100000800320F8213094F82430012B7FF4F5AED2
:10101000636913446361E3691344E361216A2369EB
:1010200099421FD3C91A216229686278002A3ED1E9
:10103000B1F8502011FA82F2217802EBC102EBB92B
:10104000B2F8061489B221F4F84189B2A2F8061464
:10105000B2F806146FEA41416FEA514189B2A2F831
:10106000061426E021B9002384F824301346DBE778
:101070000023236284F824300B46D5E73E2B09D8A1
:10108000590813F0010F00D00131890289B2A2F88A
:1010900006140EE0590913F01F0F00D101396FEA51
:1010A000C1616FEA514189B2A2F8061401E0012A38
:1010B00006D09BB262896169286800F0DAFF9CE67D
:1010C000B1F8502011FA82F2217802EBC10299B2F4
:1010D000A2F80614EDE72DE9F041054691E10388F9
:1010E0009BB223F4E14323F070036FEA43436FEABA
:1010F00053439BB203802968B1F8503095F82820FB
:10110000D20012FA83F30B44B3F80234C3F3090399
:101110006B64EA6B1344EB6300212846FFF796FAF1
:1011200095F82430002B00F06C812B6C002B40F0E4
:10113000688195F824302A6843F08003A2F84C3087
:10114000002385F824305CE1B0F8503095F8682130
:10115000D20012FA83F30344B3F80634C3F309034D
:10116000C5F88431B5F86E2105F52C7101F0EEFB60
:101170002A68138823F070031B051B0D43F08003BE
:1011800013802846FFF74EFA3BE13E2A09D8510862
:1011900012F0010F00D001318A0292B2A3F80624A6
:1011A00092E1510912F01F0F00D101396FEAC162BB
:1011B0006FEA524292B2A3F8062485E130F8243057
:1011C0009EB213F4004F4AD116F0800F00F019813F
:1011D000621C02EB820105EBC101286830F8243063
:1011E0009BB223F4E14323F070036FEA43436FEAB9
:1011F00053439BB220F82430CB78022B40F0FD8083
:1012000016F4807F40F0F9802868B0F85030621CF6
:1012100002EB820215F83260F20012FA83F3034403
:10122000B3F80234C3F3090304EB840205EBC202F2
:10123000126C9A4240F2CD8004EB840705EBC7079D
:10124000D21A3A6404EB840205EBC202126C002A43
:1012500040F0C68031462846FFF7F8F9D1E030F873
:10126000243023F070031B051B0D43F0800320F88E
:10127000243004EB8401C90001F5B47105EB0108C9
:1012800004EB840305EBC30393F87431002B40D1C6
:101290002868B0F8503004EB840205EBC20292F8E3
:1012A0006821D20012FA83F30344B3F80674C7F33B
:1012B000090717BB04EB840305EBC303D3F88421B0
:1012C0003A44C3F88421D3F87C213A44C3F87C2102
:1012D000D3F880313BB104EB840305EBC303D3F8AF
:1012E00078319F4270D204EB840305EBC30393F87B
:1012F00068112846FFF79EF966E704EB840105EBC9
:10130000C1013B46B1F86E21D1F87C1101F01EFB02
:10131000D0E704EB840305EBC30393F86B31022B96
:1013200033D0296804EB840205EBC20292F868010D
:1013300031F820309BB223F4E04323F0700343F4F0
:10134000004343F0C00321F82030286892F8683148
:1013500030F8232012F4804F1ED0B0F85020DB006C
:1013600013FA82F30344B3F80274C7F30907002F9A
:10137000A0D004EB840105EBC1013B46B1F870211C
:10138000D1F87C1101F0E2FA94E732464146284652
:10139000FFF786FB07468DE7B0F85020DB0013FA15
:1013A00082F30344B3F80674C7F30907002F81D012
:1013B00004EB840105EBC1013B46B1F87221D1F881
:1013C0007C1101F0C3FA75E74146286800F065FE1C
:1013D000FAE604EB840205EBC2020027176431E74A
:1013E00004EB840205EBC202D66B1E44D663546C38
:1013F0002344536400F051FE03E032462846FFF7D1
:1014000062FC2868B0F8443013F4004F6BD0B0F899
:101410004440A3B214F00F047FF4D0AE13F0100FC9
:101420003FF45DAE03889AB213F4006F7FF48CAE84
:1014300012F4004FE5D0038823F070031B051B0D49
:1014400043F0800303802868B0F8503095F8682195
:10145000D20012FA83F30344B3F80634C3F309034A
:10146000C5F884318BB1D5F87C1171B1B5F86E2116
:1014700001F06CFAD5F88421D5F87C311344C5F815
:101480007C3100212846FFF7D5F82B681A8812F422
:10149000006FB6D1B3F8502013FA82F3D5F8782153
:1014A000002A7FF472AEB3F8062492B222F4F84216
:1014B00092B2A3F80624B3F806246FEA42426FEA18
:1014C000524292B2A3F806242A6813889BB223F4EE
:1014D000804323F0700383F4405343F4004343F00C
:1014E000800313808DE70020BDE8F08190F8A832DA
:1014F000012B0DD010B50446012380F8A83280F8E6
:101500002410006800F0A0FD002084F8A80210BD9F
:101510000220704710B50446006800F0A6FD10F4E4
:10152000004F40F09B80206800F09FFD10F4806F1A
:1015300040F09880206800F098FD10F4804F08D0AB
:101540002268B2F844309BB223F480439BB2A2F8E5
:101550004430206800F089FD10F4005F08D0226854
:10156000B2F844309BB223F400539BB2A2F844304B
:10157000206800F07AFD10F4805F21D02268B2F874
:1015800040309BB223F004039BB2A2F840302268A3
:10159000B2F840309BB223F008039BB2A2F840306F
:1015A00094F8E032012B6ED02046FFF783F82268D2
:1015B000B2F844309BB223F480539BB2A2F844307B
:1015C000206800F052FD10F4006F63D1206800F035
:1015D0004CFD10F0800F2BD02268B2F844309BB243
:1015E00023F080039BB2A2F8443094F8E032002B41
:1015F0006DD12268B2F840309BB243F00403A2F8E8
:1016000040302268B2F840309BB243F00803A2F8A1
:101610004030012184F8E0122368B3F85430C3F35A
:101620008D0303F03C03C4F8E4322046FFF7FAF8D8
:10163000206800F01AFD10F4007F4CD1206800F003
:1016400014FD10F4807F08D02268B2F844309BB2B9
:1016500023F480739BB2A2F8443010BD2046FFF7FC
:101660003AFD60E72268B2F844309BB223F480630D
:101670009BB2A2F844302046FEF7F9FF0021204635
:10168000FFF734FF56E7002184F8E0122046FFF709
:10169000C9F889E72268B2F840309BB243F00803EA
:1016A000A2F840302268B2F844309BB223F40063C1
:1016B0009BB2A2F844302268B2F840309BB243F0AB
:1016C0000403A2F840302046FEF7E4FF7EE7204600
:1016D000FEF7E0FFACE72268B2F844309BB223F497
:1016E00000739BB2A2F844302046FEF7BAFFA5E78C
:1016F00010B504468C4611F0800F2AD101F0070086
:1017000000EB8001C90001F5B47E04EB0E0100EB93
:10171000800004EBC0004FF0000E80F869E10CF08F
:10172000070C81F800C00A61CB704A780AB1A1F8B1
:101730000EC0022B19D094F8A832012B18D0012327
:1017400084F8A832206800F060F9002084F8A8022C
:1017500010BD01F00700013000EB800104EBC10176
:101760004FF0010E81F801E0D9E700230B71E2E7A9
:101770000220EDE710B504460B4611F0800F1FD193
:1017800001F0070202EB8201C90001F5B4710144C6
:1017900002EB820200EBC202002082F8690103F032
:1017A00007030B7094F8A832012B13D0012384F89F
:1017B000A832206800F0E7FA002084F8A80210BDE3
:1017C00001F00702013202EB820100EBC1010120AE
:1017D0004870E4E70220F2E710B501F0070404EBDB
:1017E0008401C90001F5B471014404EB840C00EBE1
:1017F000CC0CCCF87C21CCF880310023CCF884319F
:101800008CF869318CF8684124B9006800F045FC17
:10181000002010BD006800F040FCF9E701F007016E
:1018200001EB810100EBC101D1F88401704710B5D3
:1018300001F0070404F1010C0CEB8C0100EBC10179
:1018400004EB840E00EBCE0ECEF83C20CEF84030F8
:1018500001228EF84C20CEF848300023CEF84430D8
:101860004A700CEB8C0C00F83C4024B9006800F086
:1018700014FC002010BD006800F00FFCF9E70B46D7
:1018800001F0070241688A422AD810B5044613F0D5
:10189000800F1DD103EB8301C90001F5B471014430
:1018A00003EB830300EBC303002083F869010123EA
:1018B0008B700A7094F8A832012B13D0012384F89E
:1018C000A832206800F04AFB002084F8A80210BD6E
:1018D000531C03EB830100EBC10101204870E6E7D4
:1018E000012070470220F2E70B4601F00F01426829
:1018F000914230D810B5044613F0800F21D103F087
:10190000070202EB8201C90001F5B471014402EB48
:10191000820200EBC202002082F8690100228A7074
:1019200003F007030B7094F8A832012B15D00123A4
:1019300084F8A832206800F036FB002084F8A80262
:1019400010BD03F00702013202EB820100EBC1017E
:1019500001204870E2E7012070470220F0E711F013
:10196000800F0BD001F00701013101EB810100EB89
:10197000C10152B90A73CB800020704701EB81018D
:10198000C90001F5B4710144F3E701220A730B8128
:101990001B0C4B81F0E7034602680121C0F8E812F6
:1019A000002083F8E002B2F854309BB20B43A2F857
:1019B0005430B2F854309BB243F00203A2F85430D2
:1019C000704703460020A3F844004BF68072A3F84A
:1019D00040207047B0F8403023F47E535B045B0C2A
:1019E000A0F840300020704784B0844601A880E809
:1019F0000E000123ACF840300020ACF84000ACF8F9
:101A00004400ACF8500004B0704710B503460A78A3
:101A100030F822C01FFA8CFC2CF4EC4C2CF0700C2B
:101A20001FFA8CFCC878032862D8DFE800F0565D06
:101A30000259002048F2800E4CEA0E0C23F822C016
:101A400091F800C033F82C2012B222F4E04222F0C8
:101A500070024CEA020292B242EA0E0223F82C20F3
:101A60000A7B002A40F0C4804A78002A51D0B3F89B
:101A7000502013FA82F20C7802EBC402B1F806C0CF
:101A80004FEA5C0C4FEA4C0CA2F800C40C7833F817
:101A9000242012F0400F0CD033F8242092B222F40C
:101AA000E04222F0700242F4004242F0C00223F809
:101AB0002420CA78012A1DD0097833F8212092B257
:101AC00022F4E04222F0400282F0200242F400427E
:101AD00042F0800223F821206AE04CF4007CA9E760
:101AE0004CF4C06C0020A5E74CF4806C0020A1E70A
:101AF00001209FE7097833F8212092B222F4E042D6
:101B000022F0400242F4004242F0800223F82120F9
:101B10004EE0B3F8502013FA82F20C7802EBC402C4
:101B2000B1F806C04FEA5C0C4FEA4C0CA2F804C4B2
:101B3000B3F8502013FA82F20C7802EBC4020C695D
:101B4000BCBBB2F806C41FFA8CFC2CF4F84C1FFA8C
:101B50008CFCA2F806C4B2F806C46FEA4C4C6FEADB
:101B60005C4C1FFA8CFCA2F806C40C7833F82420D5
:101B700012F4804F0CD033F8242092B222F4E042C9
:101B800022F0700242F4404242F0800223F8242006
:101B9000097833F8212092B222F4804222F07002B8
:101BA00082F4405242F4004242F0800223F82120A5
:101BB00010BD3E2C0DD84FEA540C14F0010F01D08B
:101BC0000CF1010C4FEA8C2C1FFA8CFCA2F806C415
:101BD000CBE74FEA541C14F01F0F01D10CF1FF3C6E
:101BE0006FEACC646FEA5444A4B2A2F80644BCE79E
:101BF00091F800C033F82C2092B222F4E04222F097
:101C0000700242F4014242F0800223F82C20B3F823
:101C1000502013FA82F291F800C002EBCC02B1F826
:101C200008C04FEA5C0C4FEA4C0CA2F800C4B3F8B1
:101C3000502013FA82F291F800C002EBCC02B1F806
:101C40000AC04FEA5C0C4FEA4C0CA2F804C44A7874
:101C5000002A41D10C7833F8242012F4804F0CD0A4
:101C600033F8242092B222F4E04222F0700242F4CF
:101C7000404242F0800223F824200C7833F82420DC
:101C800012F0400F0CD033F8242092B222F4E0423C
:101C900022F0700242F4004242F0C00223F82420F5
:101CA00091F800C033F82C2092B222F4804222F046
:101CB000700282F4405248F28004224323F82C2020
:101CC000097833F8212092B222F4E04222F0400257
:101CD000224323F821206BE70C7833F8242012F4F8
:101CE000804F0CD033F8242092B222F4E04222F04C
:101CF000700242F4404242F0800223F824200C7823
:101D000033F8242012F0400F0CD033F8242092B284
:101D100022F4E04222F0700242F4004242F0C0029B
:101D200023F82420CA78012A1ED00C7833F8242006
:101D300092B222F4E04222F0400282F0200242F409
:101D4000004242F0800223F82420097833F8212051
:101D500092B222F4804222F0700242F4004242F039
:101D6000800223F8212023E70C7833F8242092B254
:101D700022F4E04222F0400242F4004242F08002AB
:101D800023F82420E1E70B7B002B46D14B7813B3DB
:101D90000A7830F8223013F0400F0CD030F822309F
:101DA0009BB223F4E04323F0700343F4004343F079
:101DB000C00320F822300A7830F822309BB223F496
:101DC000E04323F0400343F4004343F0800320F852
:101DD0002230002070470A7830F8223013F4804F08
:101DE0000CD030F822309BB223F4E04323F0700390
:101DF00043F4404343F0800320F822300A7830F85F
:101E000022309BB223F4804323F0700343F4004359
:101E100043F0800320F82230DBE74B78002B4ED1D3
:101E20000A7830F8223013F4804F0CD030F822308A
:101E30009BB223F4E04323F0700343F4404343F0A8
:101E4000800320F822300A7830F8223013F0400F57
:101E50000CD030F822309BB223F4E04323F070031F
:101E600043F4004343F0C00320F822300A7830F8EE
:101E700022309BB223F4E04323F0700343F4004389
:101E800043F0C00320F822300B7830F8232092B2C0
:101E900022F4804222F0700248F2800C42EA0C02E6
:101EA00020F823200A7830F822309BB223F4E04354
:101EB00023F0400343EA0C0320F8223089E70A7834
:101EC00030F8223013F4804F0CD030F822309BB21F
:101ED00023F4E04323F0700343F4404343F08003D2
:101EE00020F822300A7830F8223013F0400F0CD05E
:101EF00030F822309BB223F4E04323F0700343F424
:101F0000004343F0C00320F822300A7830F8223032
:101F10009BB223F4E04323F0700343F4404343F0C7
:101F2000800320F822300B7830F8232092B222F47C
:101F3000E04222F0400248F2800C42EA0C0220F813
:101F400023200A7830F822309BB223F4804323F018
:101F5000700343EA0C0320F822303AE74B788BB148
:101F60000A7830F822309BB223F4E04323F0400398
:101F700083F0100343F4004343F0800320F8223041
:101F8000002070470A7830F822309BB223F4804357
:101F900023F0700383F4805343F4004343F0800341
:101FA00020F82230ECE70B7B002B4BD14B7833B37E
:101FB0000A7830F8223013F0400F0CD030F822307D
:101FC0009BB223F4E04323F0700343F4004343F057
:101FD000C00320F82230CB78012B33D00A7830F8B8
:101FE00022309BB223F4E04323F0400383F020032C
:101FF00043F4004343F0800320F8223022E00A78C3
:1020000030F8223013F4804F0CD030F822309BB2DD
:1020100023F4E04323F0700343F4404343F0800390
:1020200020F822300A7830F822309BB223F4804323
:1020300023F0700383F4405343F4004343F08003E0
:1020400020F822300020704711B98023A0F84C30CE
:1020500000207047B0F858306FEA43436FEA5343AB
:102060009BB2A0F8583000207047B0F8440080B20E
:10207000704710B45C1C6408024402F5806207E0FB
:102080000B78487843EA002322F8023B0231013CF6
:10209000002CF5D15DF8044B704770B505460C4631
:1020A0004B78012B37D00A7B002A40F026838B69BE
:1020B0000A69934240F204839B1A8B61B5F8503051
:1020C00015FA83F3217803EBC103002A40F0FC8268
:1020D000B3F8062492B222F4F84292B2A3F806248E
:1020E000B3F806246FEA42426FEA524292B2A3F872
:1020F0000624227835F822309BB223F4804323F063
:10210000700383F4405343F4004343F0800325F805
:102110002230002070BD8E690A69964200D91646A9
:10212000237B002B39D0E378022B58D0227835F866
:1021300022309BB223F4E04323F0700343F40143C5
:1021400043F0800325F82230236A9B1B2362237807
:1021500035F8232012F0400F00F026826278002A22
:1021600040F0CA81B5F8502015FA82F202EBC303A1
:10217000002E40F0A881B3F8062492B222F4F8426F
:1021800092B2A3F80624B3F806246FEA42426FEA3B
:10219000524292B2A3F80624B0E1B6B23346E288C6
:1021A00061692846FFF765FFB5F8503015FA83F3EB
:1021B000227803EBC203A3F80264227835F82230B8
:1021C0009BB223F4E04323F0400383F0300343F455
:1021D000004343F0800325F8223000209AE7236A69
:1021E0009A4280F05281227835F822309BB223F453
:1021F000E04323F0700343F4014343F0800325F8E8
:102200002230236A9B1B2362237835F8232012F0A7
:10221000400F00F09D8062788ABBB5F8502015FA17
:1022200082F202EBC3038EB9B3F8062492B222F411
:10223000F84292B2A3F80624B3F806246FEA4242A9
:102240006FEA524292B2A3F806241AE03E2E09D851
:10225000720816F0010F00D00132920292B2A3F878
:1022600006240EE0720916F01F0F00D1013A6FEA42
:10227000C2626FEA524292B2A3F8062401E0012A38
:102280002BD0B3B2628961692846FFF7F2FE636919
:1022900033446361236A2269934228D99B1B2362DA
:1022A0006378002B40D1B5F8503015FA83F32278CB
:1022B00003EBC203FEB9B3F8022492B222F4F8424F
:1022C00092B2A3F80224B3F802246FEA42426FEA02
:1022D000524292B2A3F8022428E0B5F8502015FA31
:1022E00082F202EBC303B2B2A3F80624C9E70022CC
:1022F00022621E46D4E73E2E09D8720816F0010F5E
:1023000000D00132920292B2A3F802240EE07209C8
:1023100016F01F0F00D1013A6FEAC2626FEA524213
:1023200092B2A3F8022401E0012B06D0B3B22289B5
:1023300061692846FFF79DFE3FE7B5F8503015FA72
:1023400083F3227803EBC203B2B2A3F80224EDE7D1
:1023500062788ABBB5F8502015FA82F202EBC3030B
:102360008EB9B3F8022492B222F4F84292B2A3F8E2
:102370000224B3F802246FEA42426FEA524292B258
:10238000A3F802241AE03E2E09D8720816F0010FB5
:1023900000D00132920292B2A3F802240EE0720938
:1023A00016F01F0F00D1013A6FEAC2626FEA524283
:1023B00092B2A3F8022401E0012A2BD0B3B2228901
:1023C00061692846FFF755FE636933446361236AF8
:1023D0002269934228D99B1B23626378002B40D14A
:1023E000B5F8503015FA83F3227803EBC203FEB937
:1023F000B3F8062492B222F4F84292B2A3F806246B
:10240000B3F806246FEA42426FEA524292B2A3F84E
:10241000062428E0B5F8502015FA82F202EBC30337
:10242000B2B2A3F80224C9E7002222621E46D4E712
:102430003E2E09D8720816F0010F00D00132920228
:1024400092B2A3F806240EE0720916F01F0F00D115
:10245000013A6FEAC2626FEA524292B2A3F80624CE
:1024600001E0012B06D0B3B2628961692846FFF70B
:1024700000FEA2E6B5F8503015FA83F3227803EB9C
:10248000C203B2B2A3F80624EDE7217835F8212083
:1024900092B222F4E24222F0700242F4004242F090
:1024A000800225F82120B5F8502015FA82F2217813
:1024B00002EBC1029BB2A2F802342289616928466C
:1024C000FFF7D7FD79E63E2E09D8720816F0010F06
:1024D00000D00132920292B2A3F806240EE07209F3
:1024E00016F01F0F00D1013A6FEAC2626FEA524242
:1024F00092B2A3F8062401E0012A26D0B3B2628981
:1025000061692846FFF7B5FD636933446361236A57
:102510002269934223D99B1B2362002E3FF44DAEC8
:1025200063786BBBB5F8503015FA83F3227803EB70
:10253000C2033E2E17D8720816F0010F00D00132E8
:10254000920292B2A3F802241CE0B5F8502015FACA
:1025500082F202EBC303B2B2A3F80624CEE7002254
:1025600022621E46D9E7720916F01F0F00D1013A08
:102570006FEAC2626FEA524292B2A3F8022401E00B
:10258000012B06D0B3B2228961692846FFF771FD9D
:1025900013E6B5F8503015FA83F3227803EBC20343
:1025A000B2B2A3F80224EDE762788ABBB5F85020F6
:1025B00015FA82F202EBC3038EB9B3F8022492B289
:1025C00022F4F84292B2A3F80224B3F802246FEA8C
:1025D00042426FEA524292B2A3F802241AE03E2E1F
:1025E00009D8720816F0010F00D00132920292B29F
:1025F000A3F802240EE0720916F01F0F00D1013A71
:102600006FEAC2626FEA524292B2A3F8022401E07A
:10261000012A26D0B3B2228961692846FFF729FD35
:10262000636933446361236A2269934223D99B1B04
:102630002362002E3FF4C1AD63786BBBB5F8503018
:1026400015FA83F3227803EBC2033E2E17D87208E3
:1026500016F0010F00D00132920292B2A3F80624C4
:102660001CE0B5F8502015FA82F202EBC303B2B2B7
:10267000A3F80224CEE7002222621E46D9E772099F
:1026800016F01F0F00D1013A6FEAC2626FEA5242A0
:1026900092B2A3F8062401E0012B06D0B3B26289FE
:1026A00061692846FFF7E5FC87E5B5F8503015FA73
:1026B00083F3227803EBC203B2B2A3F80624EDE75A
:1026C00000228A611A46F9E43E2A09D8510812F01C
:1026D000010F00D00131890289B2A3F8061408E580
:1026E000510912F01F0F00D101396FEAC1616FEA81
:1026F000514189B2A3F80614FBE4CA78022A45D0F6
:10270000012A40F0208189692269914240F2D480F7
:10271000891AA161D3B9B5F8503015FA83F321783D
:1027200003EBC103002A40F0CB80B3F8021489B256
:1027300021F4F84189B2A3F80214B3F802146FEA45
:1027400041416FEA514189B2A3F802146378002B2A
:1027500040F0EA80B5F8503015FA83F3217803EBA6
:10276000C103002A40F0C580B3F8062492B222F4D7
:10277000F84292B2A3F80624B3F806246FEA424264
:102780006FEA524292B2A3F80624B2E4CBB9B0F891
:10279000503010FA83F30A7803EBC2030A6972BB64
:1027A000B3F8022492B222F4F84292B2A3F80224BF
:1027B000B3F802246FEA42426FEA524292B2A3F89F
:1027C00002246378002B4CD1B5F8503015FA83F30E
:1027D000227803EBC203226952BBB3F8062492B2FB
:1027E00022F4F84292B2A3F80624B3F806246FEA62
:1027F00042426FEA524292B2A3F8062433E03E2AE4
:1028000009D8510812F0010F00D001318A0292B2AA
:10281000A3F80224D5E7510912F01F0F00D10139A6
:102820006FEAC1626FEA524292B2A3F80224C8E78B
:102830003E2A09D8510812F0010F00D001318A0256
:1028400092B2A3F806240EE0510912F01F0F00D136
:1028500001396FEAC1626FEA524292B2A3F80624CC
:1028600001E0012B1DD0E369002B3FF442AC22783C
:1028700035F8221044F2400303EA01008B4302D0F2
:1028800000287FF436AC35F822309BB223F4E043C5
:1028900023F0700343F4004343F0C00325F82230D3
:1028A00027E4B5F8503015FA83F3227803EBC2031E
:1028B000228AA3F80624D6E70022A2610A4629E765
:1028C0003E2A09D8510812F0010F00D001318902C7
:1028D00089B2A3F8021439E7510912F01F0F00D191
:1028E00001396FEAC1616FEA514189B2A3F802145C
:1028F0002CE73E2A0AD8510812F0010F00D001310E
:102900008A0292B2A3F80624FFF7F3BB510912F032
:102910001F0F00D101396FEAC1626FEA524292B2D1
:10292000A3F80624FFF7E5BB012B7FF4E2ABB5F873
:10293000503015FA83F3217803EBC10392B2A3F868
:102940000624FFF7D6BB0120FFF7E4BB10B45C08F8
:10295000104400F5806007E030F8022B0A70C2F3E3
:1029600007224A700231013C002CF5D113F0010F0F
:1029700001D003880B705DF8044B7047104B1B6847
:102980000BB90120704710B504464FF47A70B0FBC4
:10299000F3F30C4A1068B0FBF3F000F0ADF868B93F
:1029A0000F2C01D901200AE0002221464FF0FF3010
:1029B00000F05CF8044B1C60002000E0012010BD1A
:1029C00088000020900000208C00002010B503201B
:1029D00000F03AF80F20FFF7D1FF10B10124204694
:1029E00010BD0446FDF7D4FDF9E70000034A136863
:1029F000034909680B441360704700BF241400208A
:102A000088000020014B1868704700BF2414002084
:102A100038B50446FFF7F6FF0546B4F1FF3F02D094
:102A2000044B1B681C44FFF7EDFF401BA042FAD388
:102A300038BD00BF88000020024A936843F48043F9
:102A40009360704700700040074AD36823F4E06346
:102A50001B041B0C000200F4E060034343F0BF635F
:102A600043F40033D360704700ED00E000B5194B2C
:102A7000DB68C3F30223C3F1070CBCF1040F28BFCA
:102A80004FF0040C03F1040EBEF1060F18D9033BFE
:102A90004FF0FF3E0EFA0CFC21EA0C0199400EFAB1
:102AA00003F322EA0303194300280BDB0901C9B22F
:102AB00000F1604000F5614080F800135DF804FB10
:102AC0000023E5E700F00F000901C9B2024B1954D9
:102AD000F4E700BF00ED00E014ED00E0002807DBA4
:102AE00000F01F02400901239340024A42F82030BF
:102AF000704700BF00E100E00138B0F1807F0BD2E9
:102B00004FF0E0235861054AF02182F8231000209D
:102B1000986107221A6170470120704700ED00E0BC
:102B2000034AD2F8883043F47003C2F88830704703
:102B300000ED00E098B108B503460020C3F8B802E4
:102B4000C3F8C002C3F8CC0209B1C3F8B412012122
:102B500083F89C121A701846FDF7C0FD08BD0320CB
:102B6000704710B582B00023ADF8063061B104465D
:102B7000C0F8B812CB6A4BB10DF106009847C4F803
:102B8000CC02002002B010BD0320FBE70020F9E7D3
:102B900008B5FDF7E7FD08BD08B5D0F8B83213B1A8
:102BA0001B68984708BD0320FCE708B5D0F8B83289
:102BB0000BB15B689847002008BD38B5044600F2A9
:102BC000AA25284600F02FF90123C4F89432B4F85E
:102BD000B032C4F8983294F8AA1201F01F03012B06
:102BE0000DD0022B10D02BB101F080012046FDF753
:102BF000D4FD03E02946204600F0E5FA38BD294619
:102C0000204600F018FBF9E72946204600F047FB74
:102C1000F4E738B504460D4641BB1346D0F894227C
:102C2000032A01D0084638BDD0F85C11D0F86021E5
:102C3000914209D890F89C32DBB2032B0FD020468A
:102C400000F06CFC2846EEE7891AC0F85C118A4255
:102C500028BF0A46194600F059FC2846E3E7D0F899
:102C6000B8321B69002BEAD09847E8E790F89C320D
:102C7000DBB2032B01D00020D5E7D0F8B8329B6936
:102C80000BB19847CFE70020CDE738B504460D4695
:102C900000294AD11346D0F89422022A05D094F88C
:102CA000A032012B3CD0284638BDC269016A8A4255
:102CB0000ED88A4218D094F89C32DBB2032B27D06E
:102CC00080212046FDF769FD204600F032FCE6E752
:102CD000521AC261194600F002FC00231A46194636
:102CE0002046FDF791FDDAE783699942E3D8D0F8F1
:102CF00098229342DFD20022114600F0F0FB00211F
:102D0000C4F898120B460A462046FDF77DFDC6E73B
:102D1000D4F8B832DB68002BD2D020469847CFE7F2
:102D2000002384F8A0322846BEE790F89C32DBB23C
:102D3000032B01D00020B7E7D0F8B8325B690BB1A4
:102D40009847B1E70020AFE7012380F89C320023C9
:102D5000C0F894324360C0F8A432D0F8B832F3B16E
:102D600070B50446D0F8BC221AB15B680BB10021E3
:102D700098474023002211462046FDF7FBFC012620
:102D8000A4F864614025C4F860512B4600228021DC
:102D90002046FDF7EFFCA6842562002070BD0320CD
:102DA000704701740020704790F89C32DBB280F8C5
:102DB0009D32042380F89C320020704790F89C32AA
:102DC000DBB2042B01D00020704790F89D32DBB2BB
:102DD00080F89C32F7E7D0F8B82262B108B590F8D5
:102DE0009C32DBB2032B01D0002008BDD36923B194
:102DF00098470020F9E7032070470020F5E70346D5
:102E0000002002E00130C0B201331A78002AF9D163
:102E1000704708B54B88012B00D008BDC0F8A4321C
:102E200000F07CFBF9E70B7803704B7843708B78EC
:102E3000CA7843EA022343800B794A7943EA0223A2
:102E400083808B79CA7943EA0223C380704710B527
:102E500004468021FDF7A1FC00212046FDF79DFCE2
:102E600010BD30B583B004460D460023ADF80630E2
:102E70004A88130A013B0E2B00F2BC80DFE803F006
:102E8000153044BABA9EABBABABABABABABA0800DE
:102E9000D0F8B432DB6923B10DF10601007C98470C
:102EA0000AE02946FFF7D3FF18E0D0F8B4321B68D8
:102EB0000DF10601007C9847EA88002A00F0A38003
:102EC000BDF80630002B00F099809A4228BF1A46C0
:102ED000ADF806200146204600F0F4FA03B030BDFC
:102EE000037C43B9D0F8B8329B6A0DF106009847CD
:102EF00002234370E0E7D0F8B832DB6A0DF1060038
:102F0000984702234370D7E7D2B2052A52D8DFE8A8
:102F100002F003101D2A3744D0F8B4325B6823B1A5
:102F20000DF10601007C9847C6E72946FFF78FFFA1
:102F3000D4E7D0F8B4329B6823B10DF10601007CD0
:102F40009847B9E72946FFF782FFC7E7D0F8B432C0
:102F5000DB6823B10DF10601007C9847ACE72946F8
:102F6000FFF775FFBAE7D0F8B4321B6923B10DF152
:102F70000601007C98479FE72946FFF768FFADE709
:102F8000D0F8B4325B6923B10DF10601007C98479B
:102F900092E72946FFF75BFFA0E7D0F8B4329B69C0
:102FA00023B10DF10601007C984785E72946FFF71C
:102FB0004EFF93E72946FFF74AFF8FE7037C33B9BB
:102FC000D0F8B8325B6B0DF10600984774E72946DC
:102FD000FFF73DFF82E7037C43B9D0F8B8321B6BA3
:102FE0000DF1060098470723437065E72946FFF770
:102FF0002EFF73E72946FFF72AFF6FE72946204691
:10300000FFF725FF6AE7204600F088FA66E738B543
:1030100004468B88FBB9CB88EBB94B887F2B1AD839
:1030200003F07F0590F89C32DBB2032B0CD080F8C4
:103030009E522946FDF7D8FB204600F06FFA35B1C5
:10304000022384F89C3209E0FFF701FF06E0012328
:1030500084F89C3202E02046FFF7F9FE38BD0000FC
:1030600070B504460E468D782E4B1D70012D10D87C
:1030700090F89C32DBB2022B0FD0032B23D0FFF74A
:10308000E6FE284B19782046FFF78FFD03252846DA
:1030900070BDFFF7DCFE0325F9E78DB145602946D9
:1030A000FFF77AFD054620B131462046FFF7CFFEF7
:1030B000EDE7204600F032FA032384F89C32E6E77D
:1030C00000F02CFAE3E7CDB141688D4225D0C9B2BA
:1030D000FFF76BFD134B197861602046FFF75CFD2D
:1030E0000546B0B131462046FFF7B1FE21792046B2
:1030F000FFF75BFD022384F89C32C8E7022380F8C7
:103100009C3245602946FFF750FD204600F006FA44
:10311000BDE7204600F002FAB9E700F0FFF900250C
:10312000B5E700BF2814002008B5CB88012B0BD1D0
:1031300090F89C32DBB2022B09D9032B09D1012272
:10314000011D00F0BFF901E0FFF781FE08BD5BB291
:1031500013B9FFF77CFEF9E70146002341F8083F69
:10316000012200F0AFF9F1E708B590F89C32013B7D
:10317000022B12D8CB88022B0CD10123C360D0F8CC
:10318000A4320BB10323C360022200F10C0100F052
:1031900099F908BDFFF75BFEFBE7FFF758FEF8E77C
:1031A00008B590F89C32013B022B09D84B88012BC3
:1031B00000D008BD0023C0F8A43200F0AFF9F8E752
:1031C000FFF745FEF5E738B50C7804F06004202CD5
:1031D00006D0402C04D054B1FFF739FE002404E09F
:1031E000D0F8B8329B6898470446204638BD4D78E1
:1031F000092D1DD8DFE805F012191C161C08051C46
:103200000F0BFFF72EFEF0E7FFF701FFEDE7FFF7EB
:1032100027FF0446E9E7FFF787FFE6E7FFF7A4FF8C
:103220002C46E2E7FFF7F5FDDFE7FFF7B9FFDCE744
:10323000FFF70DFED9E770B505460C460B7803F095
:103240006003202B07D0402B05D023B1FFF7FFFDF3
:103250000026304670BD95F89C32013B022B18D8F1
:103260002379012B0FD8D5F8B8329B682146284620
:1032700098470646E388002BEBD10028E9D1284681
:1032800000F04CF9E5E721462846FFF7E0FD00266F
:10329000DFE721462846FFF7DAFD0026D9E7F8B533
:1032A00006460D468B880C7804F06004202C08D06C
:1032B000D9B2402C05D06CB12946FFF7C8FD0024D7
:1032C00006E0D6F8B8329B6829463046984704464F
:1032D0002046F8BD6F78012F2FD0032F05D0002F87
:1032E00059D02946FFF7B3FDF2E790F89C32DBB2E4
:1032F000022B05D0032B12D02946FFF7A8FDE7E7E4
:1033000009B1802904D129463046FFF7A0FDDFE747
:10331000FDF743FA80213046FDF73FFAD8E76B8886
:1033200023B919B1802901D0EB881BB1304600F0D8
:10333000F5F8CDE7FDF731FAF8E790F89C32DBB20B
:10334000022B05D0032B12D02946FFF780FDBFE7E3
:1033500009B1802904D129463046FFF778FDB7E747
:10336000FDF71BFA80213046FDF717FAB0E76B88AE
:10337000002BADD111F07F0F0AD1304600F0CEF80E
:10338000D6F8B8329B6829463046984704469FE7EE
:10339000FDF70BFAF1E790F89C22D2B2022A06D090
:1033A000032A29D02946FFF752FD3C4690E709B190
:1033B000802913D113F0800F15D101F07F0101EBAB
:1033C0008101890001F5A8713144043100230B60AB
:1033D0000222304600F076F83C4679E72946FFF7AE
:1033E00036FD3C4674E701F07F0101EB8101890065
:1033F000103131440431E9E75BB2002B1FDB01F0EF
:103400000F0202EB820200EB8202B2F8642122B3C7
:10341000002B27DB01F07F0303EB83039C0004F503
:10342000A8743444043409B1802924D100232360D2
:1034300002222146304600F045F83C4648E701F0BC
:103440000F0202EB820200EB8202928C002ADFD193
:103450002946FFF7FCFC3C463AE72946FFF7F7FC14
:103460003C4635E701F07F0303EB83039C001034F7
:1034700034440434D7E73046FDF79FF910B10123F7
:103480002360D5E700232360D2E7D0B170B50D46A5
:1034900016460446FFF7B3FC431C5B009BB2338027
:1034A0002B7003236B70022307E0EA5401345A1C8B
:1034B000D2B20021A9540233DBB22278002AF4D11F
:1034C00070BD704708B513460222C0F8942283618C
:1034D000C3610A460021FDF78FF9002008BD08B539
:1034E00013460A460021FDF787F9002008BD08B5FC
:1034F00013460322C0F89422C0F85831C0F85C315A
:103500000A460021FDF780F9002008BD08B51346E2
:103510000A460021FDF778F9002008BD08B504220D
:10352000C0F8942200231A461946FDF765F90020D9
:1035300008BD08B50522C0F8942200231A46194692
:10354000FDF762F9002008BD10B5D0F8BC4284B187
:10355000D0F8C0327BB194F80002FF280DD09B68F0
:1035600094F8012221469847FF2384F80032002076
:1035700010BD0320FCE70020FAE70020F8E7000078
:103580004323038000487047CC000020432303807E
:103590000048704710010020432303800048704713
:1035A000600100200A230380004870475401002076
:1035B00038B5D0F8BC5275B10446FDF72DF9C5F801
:1035C0000C02D4F8C032DB6805F50371D5F80402AB
:1035D0009847002038BD0320FCE710B5D0F8C4425E
:1035E000D0F8BC3253B301EB810200EB8202926946
:1035F0004AB101EB810C04EBCC04A46BB2FBF4FCEC
:1036000004FB1C2272B10022C3F81422D0F8C0229D
:103610001469ACB10A4603F50471D3F80802A04757
:10362000002010BD01EB810300EB830300249C61AB
:1036300023462246FDF7E0F82046F2E70320F0E7B4
:103640000020EEE7F0B583B0D0F8BC6200238DF81F
:103650000730ADF80430002E6CD007460C460B78CE
:1036600013F060052AD0202D5ED1CA88F2B113F084
:10367000800F0FD0D0F8C0329B68314660789847F1
:10368000E288072A28BF072231463846FFF71AFF8B
:1036900000254CE04B7886F800328B7986F80132B1
:1036A000CA883146FFF723FF002540E0D0F8C0323A
:1036B0009B68002248789847002538E04E780B2E0A
:1036C0002ED8DFE806F006342D2D2D2D2D2D2D2D95
:1036D000152490F89C32DBB2032B03D0FFF7B7FB25
:1036E000032524E0022201A9FFF7ECFE35461EE087
:1036F00090F89C32DBB2032B03D0FFF7A8FB032525
:1037000015E001220DF10701FFF7DCFE0FE090F854
:103710009C32DBB2032B0AD0FFF799FB032506E0AE
:10372000FFF795FB032502E0FFF791FB03252846F1
:1037300003B0F0BD0325FAE738B504468121FDF753
:1037400024F80025258701212046FDF71EF8A4F85E
:10375000785182212046FDF718F8A4F84C50A4F8BF
:103760004E50D4F8BC324BB1D4F8C0325B689847A5
:10377000D4F8BC02FDF77EF8C4F8BC52002038BD76
:1037800070B504464FF40770FDF770F8B8B30646FD
:10379000C4F8BC02237CBBBB4FF40073022281211E
:1037A0002046FCF7E7FF012525874FF4007302222E
:1037B00029462046FCF7DEFFA4F878511023A4F830
:1037C0004E300823032282212046FCF7D3FF012339
:1037D000A4F84C30D4F8C0321B6898470023C6F8D0
:1037E0001432C6F81832257C15BB4FF40073D6F896
:1037F000042201212046FDF707F8284670BD00236A
:10380000C4F8BC320225F8E7402302228121204679
:10381000FCF7B0FF012525874023022229462046D8
:10382000FCF7A8FFA4F878511023A4F84E30C8E79D
:103830004023D6F8042201212046FCF7E5FF0025AD
:10384000DBE719B1C0F8C0120020704703207047B1
:10385000D0F8BC322BB1C3F80812C3F810220020F4
:10386000704703207047D0F8BC321BB1C3F8041274
:10387000002070470320704710B5D0F8BC2292B1E9
:10388000047C44B94FF40073D2F804220121FCF700
:10389000BBFF204610BD4023D2F804220121FCF7D3
:1038A000B3FF0024F5E70324F3E70000104BD3F83F
:1038B000FC2022F08072C3F8FC20D3F8FC2042F0F8
:1038C0008072C3F8FC20A3F55D431A6822F0010260
:1038D0001A601A6842F001021A6000225A6000BFA2
:1038E00000BF00BF5B680BB11046704701207047F6
:1038F00000ED00E082B00190074B5968019B642203
:1039000002FB03F30193044B5A68521A019B643B78
:103910009A42F8D302B07047001000E082B00190E4
:10392000074B5968019B074A02FB03F30193044BC1
:103930005B685B1A019A9342F9D302B0704700BFEB
:10394000001000E0A0860100054B5B6920B143F048
:103950000403034A5361704723F00403F9E700BFEF
:1039600000040048064B5B699BB220B143F00103A1
:10397000034A5361704723F001039BB2F8E700BF8D
:1039800000040048064B5B699BB220B143F0020380
:10399000034A5361704723F002039BB2F8E700BF6C
:1039A000000400480D4A53699BB223F07803C1001C
:1039B00001F008010B431BB24108090101F010019D
:1039C0000B438108490101F020010B43C00880012D
:1039D00000F0400003439BB253617047000400486D
:1039E00010B504460009FFF7DDFF0020FFF7ACFF2C
:1039F0000120FFF7A9FF0020FFF7A6FF4FF4967004
:103A0000FFF778FF2046FFF7CDFF0020FFF79CFF70
:103A10000120FFF799FF0020FFF796FF4FF4967003
:103A2000FFF768FF10BD000008B5144A136823F4BF
:103A3000405313600120FFF795FF0020FFF7A2FF1E
:103A40000120FFF781FF0BE00020FFF77DFF012041
:103A5000FFF77AFF0020FFF777FF0120FFF774FFE1
:103A6000064B1B6913F0400FEED10020FFF76CFFEF
:103A7000024A136843F48053136008BD00040048F1
:103A800010B50446FFF7D0FF0020FFF76BFF0020C2
:103A9000FFF778FF2046FFF7A3FF10BD10B50446DF
:103AA000FFF7C2FF0020FFF75DFF0120FFF76AFF6D
:103AB0002046FFF795FF10BD08B5FFF7F7FE364A21
:103AC000936C43F002039364344B196821F47F51E3
:103AD0001960196841F4AA511960916C41F0020112
:103AE0009164196821F003011960196841F001011E
:103AF0001960916C41F002019164196821F00C0188
:103B00001960196841F004011960916C41F00201DB
:103B100091641A6822F030021A601A6842F01002AA
:103B20001A600F20FFF7FAFE0020FFF71BFF0020AE
:103B3000FFF728FF0320FFF735FF0020FFF704FF02
:103B40000120FFF701FF0020FFF7FEFE41F2040015
:103B5000FFF7D0FE0320FFF725FF0020FFF7F4FE5C
:103B60000120FFF7F1FE0020FFF7EEFE6420FFF7D3
:103B7000C1FE3220FFF784FF2820FFF781FF0820D5
:103B8000FFF77EFF0120FFF77BFF0620FFF778FF9E
:103B9000034B00221A7008BD0010024000040048C8
:103BA000A301002008B50220FFF76AFF08BD08B591
:103BB000400040F0040040B20843C0B2FFF760FF8D
:103BC00008BD000008B5094B4FF0080C83F800C091
:103BD000490041EA800149B241EA020040B240EAAC
:103BE0000C00C0B21870FFF74BFF08BDA301002006
:103BF00008B52820FFF744FF08BD38B50546002466
:103C000002E0FFF74BFF0134285D0028F9D138BDF1
:103C10000FB400B587B008AB53F8042B05931021FF
:103C200001A800F05FF901A8FFF7E7FF07B05DF812
:103C300004EB04B07047000001EB01111144024B8A
:103C400043F82100704700BF2C140020F8B5064649
:103C50000D46002714E03C4A82FB0632F317C3EB03
:103C6000A2033A4A52F8233007EB84003A46214631
:103C700053F82000FFF7E0FF0134032CEBDD0137A0
:103C8000032F01DC0024F8E7042719E02E4A82FB09
:103C90000632F317C3EBA20303EB8303A6EB430344
:103CA0002A4A52F823003B1F03EB84033A4621467D
:103CB00050F82300FFF7C0FF0134032CE6DD013785
:103CC000072F01DC0024F8E7092616E01E4A82FBD4
:103CD0000532EB17C3EBA2031C4A52F82300A6F1EE
:103CE000090303EB84033246214650F82300FFF713
:103CF000A3FF0134032CE9DD01360C2E01DC002486
:103D0000F8E70D261AE0104A82FB0532EB17C3EBE9
:103D1000A20303EB8303A5EB43030C4A52F82300F1
:103D2000A6F10D0303EB84033246214650F823002D
:103D3000FFF782FF0134032CE5DD0136102E01DC94
:103D40000024F8E7F8BD00BF67666666A40100209E
:103D5000F8B500EB00100144134B53F82120134B2E
:103D600053F821305C0004F0E00444EA022403F03C
:103D70000F031C43A3B223F4C05241F610073B408B
:103D80004FF0904672610A4D6B610520FEF740FED0
:103D900044F00404A4B224F4C0533C4073616C6149
:103DA0000520FEF735FEF8BD2C140020A8470008BA
:103DB0000004004838B5002510E029462046FFF7EA
:103DC000C7FF04EB04132B44074A52F82310074A99
:103DD00042F823100134032CEFDD0135102D01DCF6
:103DE0000024F8E738BD00BF2C1400203C1500204B
:103DF0000D4885460D480E490E4A002302E0D4586E
:103E0000C4500433C4188C42F9D30B4A0B4C002322
:103E100001E013600432A242FBD3FEF781FE00F002
:103E200011F8FCF711FBFEE70080002000000020E5
:103E300030020020744B0008300200206016002081
:103E4000FEE7000070B50D4D0D4C641BA41000265C
:103E5000A64209D10B4D0C4C00F06AFC641BA41067
:103E60000026A64205D170BD55F8043B984701369F
:103E7000EEE755F8043B98470136F2E76C4B000833
:103E80006C4B00086C4B0008704B000830B51446B2
:103E9000002C9BB005461A4605DA8B2303604FF0D1
:103EA000FF301BB030BD4FF40273ADF80C3014BFBF
:103EB00004F1FF332346029305934FF6FF730091FD
:103EC0000491ADF80E3069461E9B00F075F8431C56
:103ED000BCBF8B232B60002CE3D0009B00221A7008
:103EE000DFE7000007B5009313460A460146034882
:103EF0000068FFF7CBFF03B05DF804FBCC010020A6
:103F00002DE9F0478E689E4282460C4690461F4639
:103F100038D88A8912F4906F32D025680969A5EBE8
:103F20000109656905EB450505EBD57501334B4482
:103F30006D109D4238BF1D46530531D5294600F00E
:103F400043FB064650B90C23CAF80030A38943F05E
:103F50004003A3814FF0FF30BDE8F08721694A4656
:103F600000F0BEFAA38923F4906343F08003A38199
:103F7000266165614E44A5EB09052660A5603E46B5
:103F8000BE4200D93E4620683246414600F0B6FAAD
:103F9000A3689B1BA3602368334423600020DBE7F6
:103FA0002A4600F06BFB06460028E1D12169504605
:103FB00000F0BEFAC7E700002DE9F04F98468B8964
:103FC0001B069DB007460D4614460ED50B6963B916
:103FD000402100F0F9FA2860286120B90C233B60E9
:103FE0004FF0FF30D1E040236B6100230993202381
:103FF0008DF82930CDF80C803023DFF8A8818DF8BA
:104000002A304FF0010923469A4613F8012B0AB1D2
:10401000252AF9D1BAEB040B0BD05B462246294680
:104020003846FFF76DFF013000F0AA80099A5A4424
:1040300009929AF80030002B00F0A28000234FF084
:10404000FF32CDE905230AF1010A049307938DF8A5
:1040500053301A935446052214F8011B5148FCF7BB
:10406000DFF8049AD8B9D00644BF20238DF8533026
:10407000110744BF2B238DF853309AF800302A2BB8
:1040800015D0079A544600204FF00A0C214611F82B
:10409000013B303B092B4ED9B0B1079214E0A0EBA5
:1040A000080309FA03F313430493A246D2E7039BE0
:1040B000191D1B680391002BBBBF5B4242F002023B
:1040C00007930793B8BF049223782E2B0CD1637803
:1040D0002A2B35D1039B1A1D1B680392002BB8BFF6
:1040E0004FF0FF3302340593DFF8C8A02178032294
:1040F0005046FCF795F840B14023A0EB0A0003FAC4
:1041000000F0049B03430134049314F8011B264878
:104110008DF828100622FCF783F8002838D0234BAE
:104120001BBB039B073323F0070308330393099B4F
:104130003344099367E70CFB02320C460120A5E7E4
:1041400000230134059319464FF00A0C204610F85D
:10415000012B303A092A03D9002BC5D00591C3E7BA
:104160000CFB012104460123F0E703AB00932A4630
:104170000F4B04A93846AFF30080421C0646D6D147
:10418000AB895B063FF52CAF09981DB0BDE8F08FF9
:1041900003AB00932A46064B04A9384600F07AF890
:1041A000EBE700BF384B0008424B0008000000005E
:1041B000013F00083E4B00082DE9F047164699469E
:1041C0008A680B69DDF820809342B8BF13463360DC
:1041D00091F8432007460C460AB101333360236847
:1041E000990642BF336802333360256815F006052F
:1041F00006D104F1190AE36832689B1AAB4226DC47
:1042000094F84320131E226818BF012392062BD472
:1042100004F1430249463846C04701301ED02368A6
:10422000E568326803F00603042B08BFAD1AA368E3
:1042300022690CBF25EAE57500259342C4BF9B1A8D
:10424000ED1800261A34B5421AD1002008E00123E7
:10425000524649463846C047013003D14FF0FF303F
:10426000BDE8F0870135C6E7E1185A1C302081F817
:104270004300224494F8451082F843100233C7E704
:104280000123224649463846C0470130E6D0013670
:10429000D9E700002DE9FF470F7E0C9D782F91464E
:1042A00080460C469A4601F1430207D8622F0AD88D
:1042B000002F00F0D880582F00F0A38004F14205B1
:1042C00084F842703AE0A7F16303152BF6D801A1F8
:1042D00051F823F02D43000841430008BD42000877
:1042E000BD420008BD420008BD420008414300082D
:1042F000BD420008BD420008BD420008BD420008A2
:104300004D440008714300082F440008BD420008D6
:10431000BD4200086F440008BD4200087143000818
:10432000BD420008BD420008374400082B681A1D32
:104330001B682A6004F1420584F842300123A3E09F
:1043400020682968060601F104030AD50E682B606F
:10435000002E03DA2D23764284F843305E480A2388
:1043600019E00E682B6010F0400F18BF36B2EFE76F
:104370002B682068191D2960010601D51E6802E01E
:104380004606FBD51E8854486F2F0CBF08230A230E
:10439000002184F843106568A560002DA2BF216844
:1043A00021F0040121600EB9002D4DD01546B6FB59
:1043B000F3F103FB1167C75D05F8017D3746BB428A
:1043C0000E46F4D9082B0BD12368DE0708D52369E4
:1043D00061689942DEBF302305F8013C05F1FF35E5
:1043E000521B2261CDF800A04B4603AA214640464D
:1043F000FFF7E2FE01304CD14FF0FF3004B0BDE8D2
:10440000F087354881F845702968236851F8046BB6
:1044100029601D0614D5DF0744BF43F02003236045
:104420001EB9236823F0200323601023B0E723681C
:1044300043F0200323607823284884F84530E3E7DD
:10444000590648BFB6B2E6E71546BBE72B682668B3
:104450006169181D286035061B6801D5196002E0E6
:104460007006FBD51980002323611546BAE72B6837
:104470001A1D2A601D68626800212846FBF7D0FEDD
:1044800008B1401B606063682361002384F84330F7
:10449000A8E723692A4649464046D0470130ABD0B9
:1044A00023689B0713D4E068039B9842B8BF184663
:1044B000A4E70123324649464046D04701309BD00D
:1044C0000135E36803995B1AAB42F2DCEBE70025A8
:1044D00004F11906F5E700BF494B00085A4B0008E4
:1044E0000A44914200F1FF3300D1704710B511F832
:1044F000014B03F8014F9142F9D110BD884210B52C
:1045000001EB020402D98442234607D8431EA1428C
:1045100008D011F8012B03F8012FF8E702440146F7
:104520008A4200D110BD13F8014D02F8014DF7E7A2
:1045300037B5002944D051F8043C0190002BA1F17B
:104540000404B8BFE41800F0CFF81E4A01981368BD
:1045500033B96360146003B0BDE8304000F0CAB8FE
:10456000A34208D9256861198B4201BF19685B68AD
:1045700049192160EDE71A465B680BB1A342FAD9ED
:1045800011685518A5420BD1246821445418A34240
:104590001160E0D11C685B68536021441160DAE768
:1045A00002D90C230360D6E7256861198B4204BF4A
:1045B00019685B68636004BF491921605460CAE7E9
:1045C00003B030BD4C160020F8B5CD1C25F0030516
:1045D00008350C2D38BF0C25002D064601DBA942FD
:1045E00003D90C2333600020F8BD00F07DF8214989
:1045F0000A6814469CB9204F3B6823B921463046CF
:1046000000F062F838602946304600F05DF8431C3F
:1046100023D10C233360304600F06CF8E3E72368C5
:104620005B1B17D40B2B03D923601C44256004E0CB
:104630006368A2420CBF0B605360304600F05AF82A
:1046400004F10B00231D20F00700C21ACCD01B1A66
:10465000A350C9E722466468CCE7C41C24F00304D5
:10466000A042E3D0211A304600F02EF80130DDD10F
:10467000CFE700BF4C16002050160020F8B50746C3
:1046800014460E4621B9BDE8F8401146FFF79CBF1D
:1046900022B9FFF74DFF25462846F8BD00F030F857
:1046A000A0420FD221463846FFF78EFF054600286C
:1046B000F2D031462246FFF713FF31463846FFF766
:1046C00037FFE9E73546E7E738B5064D00230446EE
:1046D00008462B6000F01EF8431C02D12B6803B182
:1046E000236038BD54160020014800F011B800BF07
:1046F00058160020014800F00CB800BF58160020E2
:1047000051F8043C181F002BBCBF0B58C018704751
:1047100070477047044A05491368002B08BF0B46D1
:1047200018441060184670475C1600206016002080
:10473000F8B500BFF8BC08BC9E467047F8B500BF8E
:08474000F8BC08BC9E4670475E
:1047480025302E32643A25302E32643A25302E3206
:10475800642020202020000053544D333220566915
:10476800727475616C20436F6D506F727400000035
:1047780053544D6963726F656C656374726F6E69CB
:104788006373000043444320436F6E66696700000B
:1047980043444320496E7465726661636500000096
:1047A8003000000028000000080000001000000091
:1047B800310000002900000009000000110000007D
:1047C80034000000320000002A0000000A00000047
:1047D80012000000330000002B0000000B00000056
:1047E800130000003800000020000000180000003E
:1047F800000000003900000021000000190000003E
:10480800010000003B0000003A0000002200000008
:104818001A000000020000003B0000002300000016
:104828001B000000030000005800000050000000BA
:1048380068000000600000005900000051000000FE
:1048480069000000610000005B0000005A000000E1
:10485800520000006A000000620000005B000000D7
:10486800530000006B0000006300000040000000DF
:1048780048000000700000007800000041000000BF
:1048880049000000710000007900000044000000A9
:10489800420000004A000000720000007A00000098
:1048A800430000004B000000730000007B00000084
:1048B800EA0000000F0000000F000000E300000005
:1048C8000F000000E2000000E20000000F000000FE
:1048D800E20000000F0000000F000000E2000000EE
:1048E8002F000000E2000000E20000008F0000003E
:1048F800EF0000000F0000000F0000000F00000094
:10490800EF000000E2000000E2000000C00000002C
:10491800E200000000000000000000000F0000009E
:104928002F000000E2000000E20000008F000000FD
:104938000000000000000000EA000000EF00000096
:1049480000000000EA00000000000000EF00000086
:10495800EA000000E2000000E2000000EF000000B2
:10496800000000000000000000000000EF00000050
:10497800EA0000000F0000000F000000E300000044
:10498800EF0000000000000000000000EF00000041
:104998000C0000000F0000000F000000EF000000F6
:1049A8002F000000E3000000EA0000008F00000074
:1049B80000000000EA000000EF0000000000000016
:1049C8000000000000000000EF00000000000000F0
:1049D8000000000000000000EF00000000000000E0
:1049E80000000000E2000000EF000000E20000000C
:1049F8000F0000000F0000000F000000EF00000093
:104A08000000000000000000EA00000000000000B4
:104A180000000000EF00000000000000000000009F
:104A280000000000EF00000000000000000000008F
:104A3800EA0000008F0000002F000000E3000000E3
:104A4800EF000000E2000000E2000000C0000000EB
:104A5800EF0000000000000000000000EF00000070
:104A68002F000000E2000000E20000008F000000BC
:104A7800EA0000000F0000000F000000E300000043
:104A88000000000060000000E20000008F0000004D
:104A9800000000000C0000000F000000E300000010
:104AA8002F000000E2000000E20000008F0000007C
:104AB800E20000000F0000000F000000E20000000C
:104AC8000000000000000000EA0000008F00000065
:104AD80000000000EA0000008F0000000000000055
:104AE8002F000000E2000000E20000008F0000003C
:104AF800EA0000000F0000000F000000E3000000C3
:104B0800EF0000000000000000000000EF000000BF
:104B1800EF0000000000000000000000EF000000AF
:104B28002F000000E3000000EA0000008F000000F2
:104B3800232D302B2000686C4C006566674546477E
:104B48000030313233343536373839414243444501
:104B58004600303132333435363738396162636470
:044B6800656600007E
:044B6C000502000836
:044B7000E101000857
:104B740048454C4C4F2054484552452046524945DF
:104B84004E440A0000000000000000000000000085
:104B9400E9080008F5080008B909000895090008A3
:104BA40081090008D5090008F9090008000000007F
:104BB4001201000202020040830440570002010275
:104BC40003010000040309041A03000000000000AC
:104BD40000000000000000000000000000000000D1
:104BE40000000000790A00081D0A0008210A0008D4
:104BF400290A0008250A000801000000100000002E
:104C04000024F400813700083937000845360008CD
:104C14000000000049350008DB350008B135000804
:104C24000000000000000000000000008D350008B6
:104C34008135000899350008A535000809024300AC
:104C4400020100C03209040000010202010005242F
:104C540000100105240100010424020205240600B9
:104C6400010705820308001009040100020A00007C
:104C74000007050102400000070581024000000012
:104C840009024300020100C03209040000010202CB
:104C9400010005240010010524010001042402027E
:104CA4000524060001070582030800100904010019
:104CB400020A000000070501020002000705810244
:104CC400000200000A06000200000040010000008B
:104CD40009074300020104C0320904000001020272
:104CE400010005240010010524010001042402022E
:104CF40005240600010705820308001009040100C9
:104D0400020A0000000705010240000007058102B5
:104D140040000008F84A0008B8490008B84A0008EA
:104D2400784A000838490008F8480008384A00085A
:104D3400F8490008B848000878490008D001002064
:104D4400000000000000000000000000000000005F
:104D5400000000000000000000000000000000004F
:104D6400000000000000000000000000000000003F
:104D7400000000000000000000000000000000002F
:104D8400000000000000000000000000000000001F
:104D9400000000000000000000000000000000000F
:0400000508003DF1C1
:00000001FF
