:020000040800F2
:1000000000800020F9490008C9120008CB1200083E
:10001000CD120008CF120008D11200080000000025
:10002000000000000000000000000000D3120008E3
:10003000D512000800000000D7120008D9120008ED
:10004000494A0008494A0008494A0008494A000844
:10005000494A0008494A0008494A0008494A000834
:10006000494A0008494A0008494A0008494A000824
:10007000494A0008494A0008494A0008494A000814
:10008000494A000800000000494A0008494A00089F
:10009000E1120008494A0008494A0008494A000894
:1000A000494A0008494A0008494A0008494A0008E4
:1000B000494A0008494A0008494A0008494A0008D4
:1000C000494A0008494A0008494A0008494A0008C4
:1000D000494A0008494A0008494A0008494A0008B4
:1000E000494A0008494A0008494A0008494A0008A4
:1000F000494A0008494A0008494A0008000000002F
:1001000000000000494A000800000000494A0008B9
:10011000494A000800000000494A0008494A00080E
:10012000494A0008494A0008494A0008494A000863
:10013000494A00080000000000000000494A000889
:10014000494A0008494A0008000000000000000079
:10015000000000000000000000000000000000009F
:10016000000000000000000000000000494A0008F4
:10017000494A0008000000000000000000000000E4
:1001800000000000494A00080000000000000000D4
:1001900000000000494A00080000000000000000C4
:1001A0000000000000000000494A0008494A000819
:1001B000494A0008494A0008494A0008000000006E
:1001C00000000000494A0008000000000000000094
:0801D000494A0008494A0008F1
:1001E00070B50D4E0D4D761BB61006D000240134AF
:1001F00055F8043B9847A642F9D1094E094D761BA4
:1002000004F024FCB61006D00024013455F8043B59
:100210009847A642F9D170BD004B0008004B00087A
:10022000044B0008004B000870B5141E9AB0054638
:100230002BDB1A464FF4027300910491ADF80C3099
:1002400013D0013C4FF6FF761E9B0294694605943D
:10025000ADF80E6000F01CF9421C01DA8B232B6014
:10026000009B00221A701AB070BD1E9B02944FF6BC
:10027000FF7669460594ADF80E6000F009F9431C5D
:1002800001DA8B232B601AB070BD8B2303604FF013
:10029000FF30F8E710B5054C82B0009313460A46CC
:1002A00001462068FFF7C0FF02B010BD000000202B
:1002B000704700BF704700BF704700BF704700BF66
:1002C000704700BF704700BF012070470120704792
:1002D000704700BF704700BF2DE9F0478E681D468C
:1002E000AE420C460B68174636D88046888910F413
:1002F000906F0ED1354618462A46394600F0D2FC9A
:10030000A2682368961B2B44A66023600020BDE8EA
:10031000F087D1E9041606EB4606A3EB010906EBCC
:10032000D6766B1C76104B44B342324684BF1E46D1
:100330003246430512D51146404600F071FD824613
:1003400000B34A46216900F013FCA38923F49063AB
:1003500043F08003A38106E02E46CCE7404600F040
:10036000C3FD824650B1A6EB09020AEB09036661A0
:10037000C4F810A02360A2602E46BCE72169404665
:1003800000F0F8FC0C23C8F80030A38943F04003C8
:10039000A3814FF0FF30BAE72DE9F04F936883B0A7
:1003A0009046002B6DD017688D6882460C46086811
:1003B000083743E0A38913F4906F2ED0D4E90415D5
:1003C00005EB4505A0EB010B05EBD5750BEB060026
:1003D0006D100130A8422A4684BF05462A465B05B7
:1003E00036D51146504600F01BFD00283AD05A463B
:1003F0002169019000F0BCFBA289019B22F490626C
:1004000042F08002A281A5EB0B0203EB0B006561B9
:1004100023612060A2603546B3465A46494600F043
:1004200041FCD8F80830A2682068551B58449E1B30
:10043000A5602060C8F808601EB3083757E9029627
:10044000AB46002EF9D0AE42B4D23546B346E4E70F
:10045000504600F049FD03460028D4D1216950469A
:1004600000F088FC0C23CAF80030A389002243F076
:1004700040034FF0FF30A381C8E9012203B0BDE87B
:10048000F08F0020C8F8040003B0BDE8F08F00BF73
:100490002DE9F04F90468A899FB014068B46029052
:1004A00003D50A69002A00F00B81059330238DF8EB
:1004B000323098F800308E4E002120220B918DF8BA
:1004C00031200127002B00F08480252B00F0F680DE
:1004D000454603E0252B00F0868025466B786C1C92
:1004E000002BF7D1B4EB080A73D042465346594665
:1004F0000298FFF7F1FE01306BD00B9B6A785344F2
:100500000B93002A65D000234FF0FF32013406938D
:10051000CDE908338DF85B301C93079205E0069A0D
:1005200007FA03F313432C4606932546052215F8D4
:10053000011B304600F0CCFAAA46831B0028EED1FE
:10054000069BD90644BF20228DF85B2021781A072C
:1005500044BF2B228DF85B202A2948D1059A1168C7
:100560000432002905927EDB09916178A51C2E29B1
:1005700056D0604C0322204600F0AAFA002868D02A
:10058000001B069B402404FA00F00343069305F188
:100590000108297858488DF83010062200F098FAA2
:1005A000002866D0554B002B56D005AB00935A4619
:1005B000534B029806A9AFF300808146B9F1FF3F83
:1005C00007D00B9B4B440B9398F80030002B7FF423
:1005D0007CAFBBF80C305B0654BF0B984FF0FF307C
:1005E0001FB0BDE8F08FB4EB080A8CD07DE7A1F115
:1005F0003002092A88BFA246B9D8099B01E02C46DF
:100600000135297803EB830302EB4303A1F13002A8
:10061000092AAA46F3D92E2904F102050993A8D183
:100620009AF801102A292ED1059B9AF802101A680F
:1006300007920433002A05930AF103050AF1020325
:1006400037DB2C4C032220469A4600F041FA002862
:1006500096D1A84655469CE7059B073323F0070330
:1006600008330593ADE7494243F00203099106932D
:100670007BE705AB00935A46214B029806A900F090
:10068000D7F881469AE7A1F130020023092A07939F
:1006900001D923E05546697803EB830302EB43035A
:1006A000A1F13002092A05F1010AF3D902350793B5
:1006B0005FE74FF0FF329A4607925AE7444622E737
:1006C0004021039300F0ACFB039BCBF80000CBF878
:1006D000100030B14022CBF81420E6E6AA460135DE
:1006E00047E7029A0C2313604FF0FF3078E700BF12
:1006F000C44A0008CC4A0008D04A000800000000A4
:10070000D90200082DE9F0470C4691460A6989682C
:10071000DDF820808A42B8BF0A46C9F8002094F864
:10072000431006461F4611B10132C9F80020236864
:1007300099065CD5D9F800200232C9F80020236858
:1007400013F0060F19461DD1E1688A1A002AD8BF96
:10075000194617DD04F1190A002505E0E368D9F808
:1007600000209B1AAB420CDD01235246394630462D
:10077000C047013005F10105F0D14FF0FF30BDE871
:10078000F087216894F84330003318BF01238A06AC
:100790000AD5E1185A1C302081F84300224494F80D
:1007A000451082F84310023304F1430239463046C3
:1007B000C0470130E1D02368A268216903F0060335
:1007C000042B1DD08A4226DD4FF00009521A9144B5
:1007D0001A34002501E04D451DDA01232246394631
:1007E0003046C047013005F10105F4D1C5E713F0EB
:1007F000060F13D094F84330003318BF0123D3E71A
:10080000D9F80000E3688A42A3EB000323EAE37906
:10081000DCDC002BDCDC0020BDE8F087E168D9F8E7
:1008200000208A1A002AD8BF194693DCAAE700BF25
:100830002DE9F0430C46097E85B06E290646174621
:100840000C98984604F1430E6DD039D9732900F005
:10085000F68044D9752900F00481782940F011818F
:1008600078232268DFF858C284F8453001681506FD
:1008700051F8043B016040F1A180D10744BF42F030
:1008800020022260002B00F093801022002184F8C7
:1008900043106068A0600028C0F2C880216821F081
:1008A00004012160002B40F0A380002840F0C080AC
:1008B0007546082A00F0AC80AEEB0503236141E0E9
:1008C000632900F0E5801AD8002938D0582940F073
:1008D000D88084F845102268DFF8E8C1C6E76F29A0
:1008E00000F0BF80702940F0CC802268DFF8D0C1D2
:1008F00042F020027823226084F84530B6E764296C
:1009000002D0692940F0BD8022680368110603F116
:10091000040557D5196805600B46002959DBDFF837
:10092000A4C10A22B5E70368226861691D1D05603C
:1009300015061B6802D4500600F1BD801960002323
:1009400075462361CDF800803B4603AA2146304618
:10095000FFF7D8FE013020D02A46236939463046B9
:10096000C047013019D022680398E368920719D56F
:100970001A1A002A16DD04F11909002504E0E368BB
:1009800003981A1AAA420DDD01234A463946304619
:10099000C047013005F10105F1D14FF0FF3005B03E
:1009A000BDE8F0839842B8BF184605B0BDE8F083B3
:1009B000226822F020022260102267E7500648BF1A
:1009C0009BB25AE75106A5D5B3F900300560194628
:1009D000A3E76168A1602D200029C3F1000384F81A
:1009E000430002DB22F004022260DFF8D8C00A22B2
:1009F000754600E00B46B3FBF2F102FB1130934267
:100A00001CF8000005F8010DF4D2082A7FF454AF59
:100A10002368DB077FF550AF626823699A423FF78E
:100A20004BAF302305F8013C013D45E7002BDFD1FA
:100A30009CF8003084F8423004F1420539E703683D
:100A40006268191D01601D680021284600F040F809
:100A5000002832D0401B60602061002384F84330BE
:100A600070E72268036812F0800F03F104051AD0C2
:100A70001B6805606F290CBF08220A22DFF844C0FA
:100A800004E7012384F84210236104F14205E4E7FE
:100A900003681A68191D0123016004F1420584F8F6
:100AA00042202361D9E712F0400F0DBF1B6805609B
:100AB0001B880560DEE7198041E76068CCE700BF6E
:100AC000EC4A0008D84A00080000000000000000BE
:100AD00001F0FF01102A2BDB10F0070F08D010F8EF
:100AE000013B013A8B422DD010F0070F42B3F6D1F3
:100AF000F0B441EA012141EA014122F007047FF00C
:100B000000070023F0E80256083C85EA010586EA62
:100B1000010685FA47F5A3FA87F586FA47F6A5FA9E
:100B200087F68EB9EED1F0BC01F0FF0102F00702AA
:100B300032B110F8013B013A83EA010313B1F8D155
:100B40000020704701387047002D06BF3546033836
:100B5000073815F0010F07D1013015F4807F02BF6F
:100B6000013015F4C03F0130F0BC0138704700BFC0
:100B7000844641EA000313F003036DD1403A41D3A8
:100B800051F8043B40F8043B51F8043B40F8043B67
:100B900051F8043B40F8043B51F8043B40F8043B57
:100BA00051F8043B40F8043B51F8043B40F8043B47
:100BB00051F8043B40F8043B51F8043B40F8043B37
:100BC00051F8043B40F8043B51F8043B40F8043B27
:100BD00051F8043B40F8043B51F8043B40F8043B17
:100BE00051F8043B40F8043B51F8043B40F8043B07
:100BF00051F8043B40F8043B51F8043B40F8043BF7
:100C0000403ABDD2303211D351F8043B40F8043B96
:100C100051F8043B40F8043B51F8043B40F8043BD6
:100C200051F8043B40F8043B103AEDD20C3205D3A6
:100C300051F8043B40F8043B043AF9D2043208D09E
:100C4000D2071CBF11F8013B00F8013B01D30B8810
:100C500003806046704700BF082A13D38B078DD0EE
:100C600010F003038AD0C3F10403D21ADB071CBFC0
:100C700011F8013B00F8013B80D331F8023B20F82A
:100C8000023B7BE7043AD9D3013A11F8013B00F863
:100C9000013BF9D20B7803704B7843708B788370EB
:100CA000604670478842F0B40DD98B1883420AD948
:100CB000841832B1224613F8014D02F8014D9942D1
:100CC000F9D1F0BC70470F2A0ED80346541E002AF3
:100CD000F7D001340C44013B11F8012B03F8012F2C
:100CE000A142F9D1F0BC704740EA01039B073BD118
:100CF000A2F110073F0901F1200606EB071601F1EA
:100D0000100300F1100453F8105C44F8105C53F821
:100D10000C5C44F80C5C53F8085C44F8085C53F82D
:100D2000045C44F8045C1033B34204F11004EAD1CB
:100D30007B1C1B0112F00C0F194402F00F05034439
:100D400015D0043DAD0803EB850C1C1F0E4656F86C
:100D5000047B44F8047F6445F9D10135AD002B4490
:100D6000294402F00302B1E7541E0346B1E72A46C4
:100D7000ACE700BF00293CD038B551F8043C0C1F4B
:100D8000002BB8BFE418054600F0E6F8234B1A68BC
:100D90002AB1A2420DD921686018824223D0626034
:100DA00028461C60BDE8384000F0DCB8A34203D8F8
:100DB0001A465368002BF9D111685018A04219D077
:100DC00024D821686018834206D0636054602846A6
:100DD000BDE8384000F0C6B8D3E9000301446360C1
:100DE00021605460F3E7D2E90002014462602160AF
:100DF000D6E7704720680144501883421160E6D15D
:100E0000D3E90003014453601160E0E70C232B6039
:100E10002846BDE8384000F0A5B800BF0802002011
:100E2000F8B5CD1C25F0030508350C2D38BF0C2571
:100E3000002D064633DBA94231D82A4F00F08CF84A
:100E40003A6852B113685B1B04D43FE023685B1B14
:100E500029D522465468002CF8D1796800293BD066
:100E60002946304600F066F8431C28D0C41C24F004
:100E70000304A04205D0211A304600F05BF801308F
:100E80001DD02560304600F06DF804F10B0020F015
:100E90000700231DC21A01D01B1AA350F8BD0C2253
:100EA00032600020F8BD0B2B05D8A242636811D038
:100EB0005360E7E7144623601C442560E2E70C23F7
:100EC0003046336000F04EF80020F8BD0B2BF1D80F
:100ED000536814463B60D5E7304600F02BF8786045
:100EE000BEE700BF0802002009B3F8B51446CAB136
:100EF00006460D4600F03CF8A04202D32F46384685
:100F0000F8BD21463046FFF78BFF07460028F6D094
:100F100022462946FFF72CFE30462946FFF72AFFD6
:100F20003846F8BD2746FFF725FF3846F8BD11467D
:100F3000FFF776BF38B5074C002305460846236007
:100F400000F01EF8431C00D038BD2368002BFBD0F6
:100F50002B6038BD341400200148FFF7B3B900BF3F
:100F6000201400200148FFF7B5B900BF201400206D
:100F700051F8043C181F002BBCBF0B58C018704719
:100F8000044A05491368002B08BF0B46184410603B
:100F900018467047100200203814002010B5054C88
:100FA000237833B9044B13B10448AFF30080012315
:100FB000237010BD14020020000000004C4A0008FD
:100FC00008B5034B1BB103490348AFF3008008BDCC
:100FD00000000000180200204C4A0008084AD36CA8
:100FE00043F00203D364074A136823F0022323F477
:100FF00008031360936943F400739361704700BF63
:101000000010024000040048064AD36C43F001037C
:10101000D3644FF0904300221A604FF055321A60AB
:10102000704700BF00100240144A136843F4803335
:10103000136002F58052136843F0030313600F4BF3
:101040001B6813F4003FFAD00C4BD3F8882042F011
:101050000062C3F88820D968094A0A43DA601A682E
:1010600042F080721A60054B1B6813F0007FFAD0C3
:10107000024A936843F003039360704700100240F4
:1010800033303000094AD36C43F48033D364084BC7
:101090001A6842F001021A601A6942F040021A61AD
:1010A0005A6842F001025A60704700BF00100240C7
:1010B00000080050274B9A6D42F080529A652649ED
:1010C0000A6842F480720A609A6D42F480629A65FE
:1010D000D3F8902042F00102C3F890201D4BD3F8C2
:1010E000903013F0020FF9D01A4BD3F8902022F46D
:1010F0004072C3F89020D3F8902042F48072C3F875
:101100009020D3F8902042F40042C3F89020A3F539
:10111000F433CA225A6253225A62DA6842F08002D9
:10112000DA600E4BDB6813F0400FFAD00B4B9A6974
:1011300042F040029A6100221A60094A1A60DA6895
:1011400022F08002DA60054BDB6813F0200FFAD042
:10115000704700BF001002400070004000280040AF
:101160000027430010B502F0F7FAFFF75DFFFFF725
:1011700035FFFFF749FF4C4A936D43F40003936535
:101180004A494B4800F028FA4A4B186003F074FBB8
:1011900003F00EFC00220121084603F0F3FB0021BE
:1011A000012003F0E4FBFFF76DFFFFF783FF424AE6
:1011B000936943F0007393614048036803F00F03A1
:1011C0000268C2F3021202EB82020168C1F3032C2F
:1011D0000168C1F3023101EB81010468C4F30344E7
:1011E0000068C0F3015000EB800003EB42030CEBFE
:1011F000410204EB4001324803F0EAFB03F0B2FB8A
:1012000050E02B4AD15C294AD15401331F2BF8DD21
:10121000264B0A22DA772021244800F0F1FA002830
:10122000F9D1234B1B78212B14D1214B5A789B7871
:1012300043EA022323F4C05222F0100292B223F4B4
:10124000FD6323F00703DB04DB0C4FF090414A61A0
:10125000194A53614FF4FA7002F0A0FA1748046873
:1012600004F00F040268C2F3021202EB8202036868
:10127000C3F3032E0168C1F3023101EB810103685E
:10128000C3F3034C0068C0F3015000EB800004EB93
:1012900042030EEB41020CEB4001094803F098FBBE
:1012A00003F060FB0023B1E700100240640000205F
:1012B00030020020500200200004004800280040B6
:1012C000644A000872B6FEE7FEE7FEE7FEE7FEE7C7
:1012D000FEE770477047704708B502F04DFA08BD49
:1012E00008B5024800F0DCFF08BD00BF5402002032
:1012F00000B583B00B4B1A6E42F001021A661A6EEB
:1013000002F001020092009A9A6D42F080529A65B2
:101310009B6D03F080530193019B02F053FA03B0DD
:101320005DF804FB00100240032805D8DFE800F058
:1013300005040205012070470320704708B5FFF738
:1013400073FE08BD02680E4B9A4200D0704700B58C
:1013500083B003F5DA339A6D42F400029A659B6D0F
:1013600003F400030193019B00221146142002F0B4
:1013700043FA142002F078FA03B05DF804FB00BFD2
:10138000005C004008B500F52C71D0F8F00202F0C6
:10139000DAFA08BD08B501EB810300EBC303D3F80B
:1013A0007C21D0F8F00202F0FAFA08BD08B501EB92
:1013B000810300EBC303DA6BD0F8F00202F02BFBE1
:1013C00008BD08B5D0F8F00202F0CBFB08BD10B59F
:1013D00004468368022B09D10121D4F8F00202F0FF
:1013E000A6FBD4F8F00202F075FB10BDFFF76AFF10
:1013F000F2E7000010B50446D0F8F00202F09AFBC4
:10140000A36923B1024A136943F00603136110BDB7
:1014100000ED00E010B50446836923B9D4F8F0026A
:1014200002F092FB10BD044A136923F00603136116
:10143000FFF784FFF2E700BF00ED00E010B50446BF
:101440001E48C0F8F042C4F8C4021D4B03600823D4
:101450004360022383600361002343618361C361AE
:10146000036200F06FFA30BB182300221146D4F853
:10147000C40201F03AF9582300228021D4F8C402B2
:1014800001F033F9C02300228121D4F8C40201F015
:101490002CF94FF4887300220121D4F8C40201F022
:1014A00024F94FF4807300228221D4F8C40201F0A1
:1014B0001CF9002010BDFFF705FFD5E754020020FE
:1014C000005C004008B5D0F8C40200F0ADFAFFF7A8
:1014D0002BFF08BD08B594461A466346D0F8C402EF
:1014E00000F0CCFFFFF720FF08BD08B5D0F8C4021C
:1014F00001F006F8FFF718FF08BD08B5D0F8C402E0
:1015000001F083F8FFF710FF08BD08B5D0F8C4025A
:1015100001F0B0F8FFF708FF08BDD0F8C43211F0B1
:10152000800F08D101F07F0101EB810103EBC101C4
:1015300091F86A01704701F07F01013101EB8101EF
:1015400003EBC1018878704708B5D0F8C40200F0F9
:1015500093FEFFF7E9FE08BD08B5D0F8C40201F01C
:101560002CF8FFF7E1FE08BD08B5D0F8C40200F082
:10157000F9FFFFF7D9FE08BD08B5D0F8C40201F0A5
:1015800013F808BD10B5044611B101290FD010BDE4
:10159000836923B9D4F8F00202F0D6FAF7E7FFF72F
:1015A000CDFE094A136923F006031361F2E7D0F870
:1015B000F00202F0BFFAA369002BE8D0024A1369D7
:1015C00043F006031361E2E700ED00E000487047D6
:1015D000480500207047000070B506460D46002201
:1015E0001549164802F06CF9C8B91549134802F0BC
:1015F0007EF9B8B91349114802F0E9FFA8B90F48BC
:1016000002F08CF9A0B90D4C3146204602F0F1FFF2
:1016100020222946204602F0E1FF204670BDFFF758
:1016200051FEE2E7FFF74EFEE4E7FFF74BFEE6E789
:10163000FFF748FEE7E700BF8400002068070020AE
:10164000F8000020D800002012230B8000487047CB
:10165000A400002004230B8000487047B80000203D
:10166000002393421ED200B510E00CF1370C01F8B4
:1016700013C000014FEA430C0CF1010C4FF0000EB7
:1016800001F80CE00133DBB2934209D24FEA107C3F
:10169000B0F1204FE9D20CF1300C01F813C0E8E7AB
:1016A0005DF804FB7047000038B50B4BD3F890058C
:1016B000D3F89445D3F89835C01800D138BD074DFC
:1016C0000822A91CFFF7CCFF042205F112012046D5
:1016D000FFF7C6FFF2E700BF0070FF1FBC0000204D
:1016E00008B51A230B80FFF7DFFF014808BD00BFD4
:1016F000BC00002008B50A4628B90549054802F093
:101700008AFD034808BD0249024802F084FDF8E75B
:10171000380A00207C4A000810B50A46034C2146CE
:10172000034802F078FD204610BD00BF380A0020B3
:10173000944A000808B50A4628B90549054802F048
:101740006AFD034808BD0249024802F064FDF8E75B
:10175000380A0020A84A000808B50A4628B90549F1
:10176000054802F058FD034808BD0249024802F04E
:1017700052FDF8E7380A0020B44A000800207047FC
:10178000002070470020704770B504460D46104E8B
:101790000146304602F02DFF304602F04DFF002397
:1017A0002A689A4208D914F903C00A4A02F803C009
:1017B0001F2B0AD00133F3E71F2B04DC054A00215D
:1017C000D1540133F8E7002070BD0320FCE700BFCF
:1017D000680700203002002010B5064C00220649A0
:1017E000204602F0FBFE0549204602F002FF0020E1
:1017F00010BD00BF6807002020100020380C00201A
:10180000094BD3F8BC32D3F814320BB10120704726
:1018100010B5054C0A460146204602F0DFFE204680
:1018200002F0F0FE10BD00BF6807002038B512F4CA
:10183000804F43D00468B4F8503091F800C04FEAAC
:10184000CC0E1EFA83F32344B3F80244C4F3090414
:101850008B69A34228D31B1B8B618B697BB90568FD
:1018600035F82C309BB223F4804323F0700383F4CB
:10187000005343F4004343F0800325F82C3012F06A
:10188000400F0ED002680D7832F825309BB223F459
:10189000E04323F0700343F4004343F0C00322F815
:1018A000253024B9204638BD00238B61D5E7234677
:1018B0000A894969006801F00FFFF3E70468B4F88A
:1018C000503091F800C04FEACC0E1EFA83F3234447
:1018D000B3F80644C4F309048B69A3422FD31B1B3E
:1018E0008B618B697BB9056835F82C309BB223F48A
:1018F000804323F0700383F4005343F4004343F028
:10190000800325F82C3012F0400F0FD1026891F8B7
:1019100000C032F82C309BB223F4E04323F0700374
:1019200043F4004343F0C00322F82C30002CB9D01C
:1019300023464A894969006801F0CEFEB2E70023D8
:101940008B61CEE700286DD030B587B0044690F8A3
:10195000A9323BB1032384F8A932206800F000FFCC
:1019600000231FE080F8A832FFF7ECFCF2E75A1CD6
:1019700002EB820104EBC1010120487002EB8201FD
:1019800004F8313003EB830104EBC101CB8602EB99
:10199000820C04EBCC0C00208CF803008863C86335
:1019A0000864D3B260688342E1D3002316E003EBFE
:1019B000830204EBC202002182F8691182F86831C7
:1019C00082F86B11C2F87811C2F87C1103EB830224
:1019D00004EBC202C2F880110133DBB29842E6D8B0
:1019E000A4465CF8105BEE46BCE80F00AEE80F00C2
:1019F000DCF80030CEF80030231D0ECB284600F076
:101A0000B9FE002384F82430012384F8A932E36965
:101A1000012B02D0002007B030BD204600F081FE2F
:101A20000020F8E70120704790F8A832012B0ED073
:101A300010B50446012380F8A832006800F087FE44
:101A4000206801F0CDF9002084F8A80210BD022022
:101A5000704770B505460C46164612F0400F00F070
:101A600009810268B2F850300978C80010FA83F38F
:101A70001344B3F80224C2F30902A369934251D973
:101A80009B1AA361A369002B68D16378002B4CD10A
:101A90002A68B2F8503012FA83F30344B3F80224F0
:101AA00092B222F4F84292B2A3F80224B3F80224CC
:101AB0006FEA42426FEA524292B2A3F802242968C6
:101AC0006278002A3DD1B1F8503011FA83F32278C0
:101AD00003EBC203B3F8062492B222F4F84292B2A6
:101AE000A3F80624B3F806246FEA42426FEA524292
:101AF00092B2A3F8062421782846FFF757FC16F483
:101B0000804F40D02A68217832F821309BB223F4EC
:101B1000E04323F0700343F4404343F0800322F892
:101B2000213030E00023A361ACE7012BC7D12A6844
:101B3000B2F8503012FA83F303440022A3F80224CF
:101B4000BDE7012AD7D1B1F8503011FA83F32178DB
:101B500003EBC1030022A3F80624CCE716F4804F60
:101B60000DD0286830F821309BB223F4E04323F0F5
:101B7000700343F4404343F0800320F8213094F88D
:101B80002430012B12D02A68217832F821309BB200
:101B900023F4E04323F0400383F0300343F4004395
:101BA00043F0800322F82130002070BD63691344A4
:101BB0006361E3691344E361216A236999421FD396
:101BC000C91A21626278002A3FD12968B1F85020F1
:101BD00011FA82F2217802EBC102EBB9B2F80214D9
:101BE00089B221F4F84189B2A2F80214B2F80214C1
:101BF0006FEA41416FEA514189B2A2F8021426E02E
:101C000021B9002384F824301346DBE7002384F84D
:101C1000243023620B46D5E73E2B09D8590813F030
:101C2000010F00D00131890289B2A2F802140EE03E
:101C3000590913F01F0F00D101396FEAC1616FEA32
:101C4000514189B2A2F8021401E0012A06D09BB2E8
:101C500022896169286801F0D2F894E72968B1F80F
:101C6000502011FA82F2217802EBC10299B2A2F857
:101C70000214ECE70268B2F850300978C80010FA94
:101C800083F31344B3F80624C2F30902A369934211
:101C900052D39B1AA361A369002B69D16378002BEF
:101CA0004DD12A68B2F8503012FA83F31844B0F8D4
:101CB00002349BB223F4F8439BB2A0F80234B0F88C
:101CC00002346FEA43436FEA53439BB2A0F80234F5
:101CD00029686278002A3ED1B1F8503011FA83F3B6
:101CE000227803EBC203B3F8062492B222F4F8423E
:101CF00092B2A3F80624B3F806246FEA42426FEAD0
:101D0000524292B2A3F8062421782846FFF74EFBF0
:101D100016F4804F7FF437AF2A68217832F82130EB
:101D20009BB223F4E04323F0700343F4404343F0B9
:101D3000800322F8213026E70023A361ABE7012BC3
:101D4000C6D12A68B2F8503012FA83F3184400233F
:101D5000A0F80234BCE7012AD6D1B1F8503011FA0C
:101D600083F3217803EBC1030022A3F80624CBE719
:101D700016F4804F0DD1286830F821309BB223F43F
:101D8000E04323F0700343F4404343F0800320F822
:101D9000213094F82430012B7FF4F5AE63691344AD
:101DA0006361E3691344E361216A236999421FD3A4
:101DB000C91A216229686278002A3ED1B1F8502000
:101DC00011FA82F2217802EBC102EBB9B2F80614E3
:101DD00089B221F4F84189B2A2F80614B2F80614C7
:101DE0006FEA41416FEA514189B2A2F8061426E038
:101DF00021B9002384F824301346DBE70023236253
:101E000084F824300B46D5E73E2B09D8590813F047
:101E1000010F00D00131890289B2A2F806140EE048
:101E2000590913F01F0F00D101396FEAC1616FEA40
:101E3000514189B2A2F8061401E0012A06D09BB2F2
:101E400062896169286800F0DAFF9CE6B1F85020E9
:101E500011FA82F2217802EBC10299B2A2F80614BB
:101E6000EDE72DE9F041054691E103889BB223F4AB
:101E7000E14323F070036FEA43436FEA53439BB29D
:101E800003802968B1F8503095F82820D20012FA62
:101E900083F30B44B3F80234C3F309036B64EA6BB6
:101EA0001344EB6300212846FFF780FA95F82430AD
:101EB000002B00F06C812B6C002B40F0688195F8B2
:101EC00024302A6843F08003A2F84C30002385F8C0
:101ED00024305CE1B0F8503095F86821D20012FA55
:101EE00083F30344B3F80634C3F30903C5F884311C
:101EF000B5F86E2105F52C7101F0EEFB2A68138808
:101F000023F070031B051B0D43F08003138028464C
:101F1000FFF738FA3BE13E2A09D8510812F0010FC9
:101F200000D001318A0292B2A3F8062492E151094D
:101F300012F01F0F00D101396FEAC1626FEA5242FD
:101F400092B2A3F8062485E130F824309EB213F44F
:101F5000004F4AD116F0800F00F01981621C02EB8D
:101F6000820105EBC101286830F824309BB223F4CC
:101F7000E14323F070036FEA43436FEA53439BB29C
:101F800020F82430CB78022B40F0FD8016F4807FBF
:101F900040F0F9802868B0F85030621C02EB8202F1
:101FA00015F83260F20012FA83F30344B3F80234F6
:101FB000C3F3090304EB840205EBC202126C9A42DC
:101FC00040F2CD8004EB840705EBC707D21A3A64D0
:101FD00004EB840205EBC202126C002A40F0C680BA
:101FE00031462846FFF7E2F9D1E030F8243023F0FB
:101FF00070031B051B0D43F0800320F8243004EB15
:102000008401C90001F5B47105EB010804EB8403F8
:1020100005EBC30393F87431002B40D12868B0F866
:10202000503004EB840205EBC20292F86821D20022
:1020300012FA83F30344B3F80674C7F3090717BB16
:1020400004EB840305EBC303D3F884213A44C3F8BB
:102050008421D3F87C213A44C3F87C21D3F8803121
:102060003BB104EB840305EBC303D3F878319F4203
:1020700070D204EB840305EBC30393F86811284680
:10208000FFF788F966E704EB840105EBC1013B46E5
:10209000B1F86E21D1F87C1101F01EFBD0E704EB02
:1020A000840305EBC30393F86B31022B33D029680B
:1020B00004EB840205EBC20292F8680131F820308B
:1020C0009BB223F4E04323F0700343F4004343F056
:1020D000C00321F82030286892F8683130F82320B6
:1020E00012F4804F1ED0B0F85020DB0013FA82F3B8
:1020F0000344B3F80274C7F30907002FA0D004EB20
:10210000840105EBC1013B46B1F87021D1F87C1187
:1021100001F0E2FA94E7324641462846FFF786FB93
:1021200007468DE7B0F85020DB0013FA82F3034432
:10213000B3F80674C7F30907002F81D004EB8401BC
:1021400005EBC1013B46B1F87221D1F87C1101F0D9
:10215000C3FA75E74146286800F065FEFAE604EB2D
:10216000840205EBC2020027176431E704EB840206
:1021700005EBC202D66B1E44D663546C23445364F1
:1021800000F051FE03E032462846FFF762FC286863
:10219000B0F8443013F4004F6BD0B0F84440A3B211
:1021A00014F00F047FF4D0AE13F0100F3FF45DAEC7
:1021B00003889AB213F4006F7FF48CAE12F4004FD0
:1021C000E5D0038823F070031B051B0D43F080034B
:1021D00003802868B0F8503095F86821D20012FAD0
:1021E00083F30344B3F80634C3F30903C5F8843119
:1021F0008BB1D5F87C1171B1B5F86E2101F06CFA94
:10220000D5F88421D5F87C311344C5F87C31002100
:102210002846FFF7BFF82B681A8812F4006FB6D172
:10222000B3F8502013FA82F3D5F87821002A7FF40E
:1022300072AEB3F8062492B222F4F84292B2A3F836
:102240000624B3F806246FEA42426FEA524292B281
:10225000A3F806242A6813889BB223F4804323F052
:10226000700383F4405343F4004343F0800313802E
:102270008DE70020BDE8F08190F8A832012B0DD049
:1022800010B50446012380F8A83280F824100068B5
:1022900000F0A0FD002084F8A80210BD02207047C5
:1022A00010B50446006800F0A6FD10F4004F40F0A1
:1022B0009B80206800F09FFD10F4806F40F09880B4
:1022C000206800F098FD10F4804F08D02268B2F822
:1022D00044309BB223F480439BB2A2F84430206880
:1022E00000F089FD10F4005F08D02268B2F8443095
:1022F0009BB223F400539BB2A2F84430206800F054
:102300007AFD10F4805F21D02268B2F840309BB291
:1023100023F004039BB2A2F840302268B2F84030A8
:102320009BB223F008039BB2A2F8403094F8E0324D
:10233000012B6ED02046FFF76DF82268B2F84430CA
:102340009BB223F480539BB2A2F84430206800F083
:1023500052FD10F4006F63D1206800F04CFD10F0C6
:10236000800F2BD02268B2F844309BB223F0800358
:102370009BB2A2F8443094F8E032002B6DD1226871
:10238000B2F840309BB243F00403A2F84030226818
:10239000B2F840309BB243F00803A2F8403001216C
:1023A00084F8E0122368B3F85430C3F38D0303F0CC
:1023B0003C03C4F8E4322046FFF7E4F8206800F05C
:1023C0001AFD10F4007F4CD1206800F014FD10F4C9
:1023D000807F08D02268B2F844309BB223F4807327
:1023E0009BB2A2F8443010BD2046FFF73AFD60E7EB
:1023F0002268B2F844309BB223F480639BB2A2F807
:1024000044302046FEF7E3FF00212046FFF734FF6B
:1024100056E7002184F8E0122046FFF7B3F889E779
:102420002268B2F840309BB243F00803A2F8403073
:102430002268B2F844309BB223F400639BB2A2F846
:1024400044302268B2F840309BB243F00403A2F853
:1024500040302046FEF7CEFF7EE72046FEF7CAFF5B
:10246000ACE72268B2F844309BB223F400739BB20D
:10247000A2F844302046FEF7A4FFA5E710B50446B5
:102480008C4611F0800F2AD101F0070000EB80018B
:10249000C90001F5B47E04EB0E0100EB800004EBF3
:1024A000C0004FF0000E80F869E10CF0070C81F8D5
:1024B00000C00A61CB704A780AB1A1F80EC0022BA5
:1024C00019D094F8A832012B18D0012384F8A8322F
:1024D000206800F060F9002084F8A80210BD01F027
:1024E0000700013000EB800104EBC1014FF0010E49
:1024F00081F801E0D9E700230B71E2E70220EDE764
:1025000010B504460B4611F0800F1FD101F00702F1
:1025100002EB8201C90001F5B471014402EB8202B1
:1025200000EBC202002082F8690103F007030B7080
:1025300094F8A832012B13D0012384F8A832206824
:1025400000F0E7FA002084F8A80210BD01F00702AD
:10255000013202EB820100EBC10101204870E4E787
:102560000220F2E710B501F0070404EB8401C90072
:1025700001F5B471014404EB840C00EBCC0CCCF8F5
:102580007C21CCF880310023CCF884318CF869317F
:102590008CF8684124B9006800F045FC002010BDAB
:1025A000006800F040FCF9E701F0070101EB810150
:1025B00000EBC101D1F88401704710B501F00704A8
:1025C00004F1010C0CEB8C0100EBC10104EB840E57
:1025D00000EBCE0ECEF83C20CEF8403001228EF833
:1025E0004C20CEF848300023CEF844304A700CEB33
:1025F0008C0C00F83C4024B9006800F014FC00206A
:1026000010BD006800F00FFCF9E70B4601F007026F
:1026100041688A422AD810B5044613F0800F1DD1B4
:1026200003EB8301C90001F5B471014403EB83039B
:1026300000EBC303002083F8690101238B700A704B
:1026400094F8A832012B13D0012384F8A832206813
:1026500000F04AFB002084F8A80210BD531C03EBD5
:10266000830100EBC10101204870E6E701207047BB
:102670000220F2E70B4601F00F014268914230D888
:1026800010B5044613F0800F21D103F0070202EBCE
:102690008201C90001F5B471014402EB820200EB32
:1026A000C202002082F8690100228A7003F0070349
:1026B0000B7094F8A832012B15D0012384F8A832AE
:1026C000206800F036FB002084F8A80210BD03F05B
:1026D0000702013202EB820100EBC10101204870C8
:1026E000E2E7012070470220F0E711F0800F0BD0E5
:1026F00001F00701013101EB810100EBC10152B989
:102700000A73CB800020704701EB8101C90001F5FD
:10271000B4710144F3E701220A730B811B0C4B8156
:10272000F0E7034602680121C0F8E812002083F8B0
:10273000E002B2F854309BB20B43A2F85430B2F826
:1027400054309BB243F00203A2F854307047034662
:102750000020A3F844004BF68072A3F84020704795
:10276000B0F8403023F47E535B045B0CA0F840309B
:102770000020704784B0844601A880E80E00012341
:10278000ACF840300020ACF84000ACF84400ACF8A5
:10279000500004B0704710B503460A7830F822C0E4
:1027A0001FFA8CFC2CF4EC4C2CF0700C1FFA8CFCF7
:1027B000C878032862D8DFE800F0565D025900208F
:1027C00048F2800E4CEA0E0C23F822C091F800C0AB
:1027D00033F82C2012B222F4E04222F070024CEACC
:1027E000020292B242EA0E0223F82C200A7B002A4F
:1027F00040F0C4804A78002A51D0B3F8502013FA30
:1028000082F20C7802EBC402B1F806C04FEA5C0C0D
:102810004FEA4C0CA2F800C40C7833F8242012F0D4
:10282000400F0CD033F8242092B222F4E04222F080
:10283000700242F4004242F0C00223F82420CA7819
:10284000012A1DD0097833F8212092B222F4E04207
:1028500022F0400282F0200242F4004242F0800264
:1028600023F821206AE04CF4007CA9E74CF4C06C0A
:102870000020A5E74CF4806C0020A1E701209FE731
:10288000097833F8212092B222F4E04222F040028B
:1028900042F4004242F0800223F821204EE0B3F8D7
:1028A000502013FA82F20C7802EBC402B1F806C091
:1028B0004FEA5C0C4FEA4C0CA2F804C4B3F8502069
:1028C00013FA82F20C7802EBC4020C69BCBBB2F8BA
:1028D00006C41FFA8CFC2CF4F84C1FFA8CFCA2F8EE
:1028E00006C4B2F806C46FEA4C4C6FEA5C4C1FFA9F
:1028F0008CFCA2F806C40C7833F8242012F4804F24
:102900000CD033F8242092B222F4E04222F070027C
:1029100042F4404242F0800223F82420097833F840
:10292000212092B222F4804222F0700282F44052BE
:1029300042F4004242F0800223F8212010BD3E2CD8
:102940000DD84FEA540C14F0010F01D00CF1010C1A
:102950004FEA8C2C1FFA8CFCA2F806C4CBE74FEA96
:10296000541C14F01F0F01D10CF1FF3C6FEACC6432
:102970006FEA5444A4B2A2F80644BCE791F800C040
:1029800033F82C2092B222F4E04222F0700242F49A
:10299000014242F0800223F82C20B3F8502013FAB1
:1029A00082F291F800C002EBCC02B1F808C04FEA05
:1029B0005C0C4FEA4C0CA2F800C4B3F8502013FA98
:1029C00082F291F800C002EBCC02B1F80AC04FEAE3
:1029D0005C0C4FEA4C0CA2F804C44A78002A41D19E
:1029E0000C7833F8242012F4804F0CD033F82420D4
:1029F00092B222F4E04222F0700242F4404242F0ED
:102A0000800223F824200C7833F8242012F0400FA1
:102A10000CD033F8242092B222F4E04222F070026B
:102A200042F4004242F0C00223F8242091F800C092
:102A300033F82C2092B222F4804222F0700282F409
:102A4000405248F28004224323F82C20097833F8BE
:102A5000212092B222F4E04222F04002224323F8E5
:102A600021206BE70C7833F8242012F4804F0CD02F
:102A700033F8242092B222F4E04222F0700242F4B1
:102A8000404242F0800223F824200C7833F82420BE
:102A900012F0400F0CD033F8242092B222F4E0421E
:102AA00022F0700242F4004242F0C00223F82420D7
:102AB000CA78012A1ED00C7833F8242092B222F46E
:102AC000E04222F0400282F0200242F4004242F052
:102AD000800223F82420097833F8212092B222F4CE
:102AE000804222F0700242F4004242F0800223F859
:102AF000212023E70C7833F8242092B222F4E0421C
:102B000022F0400242F4004242F0800223F82420E6
:102B1000E1E70B7B002B46D14B7813B30A7830F8F2
:102B2000223013F0400F0CD030F822309BB223F447
:102B3000E04323F0700343F4004343F0C00320F864
:102B400022300A7830F822309BB223F4E04323F09D
:102B5000400343F4004343F0800320F82230002078
:102B600070470A7830F8223013F4804F0CD030F8D8
:102B700022309BB223F4E04323F0700343F440433C
:102B800043F0800320F822300A7830F822309BB2DC
:102B900023F4804323F0700343F4004343F08003A5
:102BA00020F82230DBE74B78002B4ED10A7830F842
:102BB000223013F4804F0CD030F822309BB223F433
:102BC000E04323F0700343F4404343F0800320F8D4
:102BD00022300A7830F8223013F0400F0CD030F851
:102BE00022309BB223F4E04323F0700343F400430C
:102BF00043F0C00320F822300A7830F822309BB22C
:102C000023F4E04323F0700343F4004343F0C00394
:102C100020F822300B7830F8232092B222F4804240
:102C200022F0700248F2800C42EA0C0220F82320C5
:102C30000A7830F822309BB223F4E04323F04003BB
:102C400043EA0C0320F8223089E70A7830F8223072
:102C500013F4804F0CD030F822309BB223F4E043C1
:102C600023F0700343F4404343F0800320F8223004
:102C70000A7830F8223013F0400F0CD030F82230B0
:102C80009BB223F4E04323F0700343F4004343F08A
:102C9000C00320F822300A7830F822309BB223F4A7
:102CA000E04323F0700343F4404343F0800320F8F3
:102CB00022300B7830F8232092B222F4E04222F046
:102CC000400248F2800C42EA0C0220F823200A78E5
:102CD00030F822309BB223F4804323F0700343EAA0
:102CE0000C0320F822303AE74B788BB10A7830F8A1
:102CF00022309BB223F4E04323F0400383F010031F
:102D000043F4004343F0800320F822300020704752
:102D10000A7830F822309BB223F4804323F070030A
:102D200083F4805343F4004343F0800320F82230BF
:102D3000ECE70B7B002B4BD14B7833B30A7830F8A0
:102D4000223013F0400F0CD030F822309BB223F425
:102D5000E04323F0700343F4004343F0C00320F842
:102D60002230CB78012B33D00A7830F822309BB256
:102D700023F4E04323F0400383F0200343F40043B3
:102D800043F0800320F8223022E00A7830F8223025
:102D900013F4804F0CD030F822309BB223F4E04380
:102DA00023F0700343F4404343F0800320F82230C3
:102DB0000A7830F822309BB223F4804323F070036A
:102DC00083F4405343F4004343F0800320F822305F
:102DD0000020704711B98023A0F84C3000207047C4
:102DE000B0F858306FEA43436FEA53439BB2A0F800
:102DF000583000207047B0F8440080B2704710B4DB
:102E00005C1C6408024402F5806207E00B78487895
:102E100043EA002322F8023B0231013C002CF5D1A9
:102E20005DF8044B704770B505460C464B78012B96
:102E300037D00A7B002A40F026838B690A699342C7
:102E400040F204839B1A8B61B5F8503015FA83F376
:102E5000217803EBC103002A40F0FC82B3F806247A
:102E600092B222F4F84292B2A3F80624B3F80624F0
:102E70006FEA42426FEA524292B2A3F806242278E5
:102E800035F822309BB223F4804323F0700383F49F
:102E9000405343F4004343F0800325F822300020E0
:102EA00070BD8E690A69964200D91646237B002BB5
:102EB00039D0E378022B58D0227835F822309BB2F3
:102EC00023F4E04323F0700343F4014343F0800311
:102ED00025F82230236A9B1B2362237835F82320B0
:102EE00012F0400F00F026826278002A40F0CA817A
:102EF000B5F8502015FA82F202EBC303002E40F021
:102F0000A881B3F8062492B222F4F84292B2A3F850
:102F10000624B3F806246FEA42426FEA524292B2A4
:102F2000A3F80624B0E1B6B23346E28861692846C8
:102F3000FFF765FFB5F8503015FA83F3227803EBFD
:102F4000C203A3F80264227835F822309BB223F43E
:102F5000E04323F0400383F0300343F4004343F0A5
:102F6000800325F8223000209AE7236A9A4280F0F5
:102F70005281227835F822309BB223F4E04323F0CB
:102F8000700343F4014343F0800325F82230236AA1
:102F90009B1B2362237835F8232012F0400F00F0AA
:102FA0009D8062788ABBB5F8502015FA82F202EB58
:102FB000C3038EB9B3F8062492B222F4F84292B257
:102FC000A3F80624B3F806246FEA42426FEA52429D
:102FD00092B2A3F806241AE03E2E09D8720816F021
:102FE000010F00D00132920292B2A3F806240EE043
:102FF000720916F01F0F00D1013A6FEAC2626FEA40
:10300000524292B2A3F8062401E0012A2BD0B3B2B7
:10301000628961692846FFF7F2FE636933446361A0
:10302000236A2269934228D99B1B23626378002B71
:1030300040D1B5F8503015FA83F3227803EBC20380
:10304000FEB9B3F8022492B222F4F84292B2A3F885
:103050000224B3F802246FEA42426FEA524292B26B
:10306000A3F8022428E0B5F8502015FA82F202EB0A
:10307000C303B2B2A3F80624C9E7002222621E46A7
:10308000D4E73E2E09D8720816F0010F00D00132A5
:10309000920292B2A3F802240EE0720916F01F0FFA
:1030A00000D1013A6FEAC2626FEA524292B2A3F8CB
:1030B000022401E0012B06D0B3B2228961692846BF
:1030C000FFF79DFE3FE7B5F8503015FA83F32278FD
:1030D00003EBC203B2B2A3F80224EDE762788ABB25
:1030E000B5F8502015FA82F202EBC3038EB9B3F89B
:1030F000022492B222F4F84292B2A3F80224B3F866
:1031000002246FEA42426FEA524292B2A3F80224CA
:103110001AE03E2E09D8720816F0010F00D00132D5
:10312000920292B2A3F802240EE0720916F01F0F69
:1031300000D1013A6FEAC2626FEA524292B2A3F83A
:10314000022401E0012A2BD0B3B22289616928460A
:10315000FFF755FE636933446361236A2269934232
:1031600028D99B1B23626378002B40D1B5F85030DF
:1031700015FA83F3227803EBC203FEB9B3F80624F1
:1031800092B222F4F84292B2A3F80624B3F80624CD
:103190006FEA42426FEA524292B2A3F8062428E054
:1031A000B5F8502015FA82F202EBC303B2B2A3F8CD
:1031B0000224C9E7002222621E46D4E73E2E09D827
:1031C000720816F0010F00D00132920292B2A3F8F9
:1031D00006240EE0720916F01F0F00D1013A6FEAC3
:1031E000C2626FEA524292B2A3F8062401E0012BB8
:1031F00006D0B3B2628961692846FFF700FEA2E6F5
:10320000B5F8503015FA83F3227803EBC203B2B25B
:10321000A3F80624EDE7217835F8212092B222F4B4
:10322000E24222F0700242F4004242F0800225F8AD
:103230002120B5F8502015FA82F2217802EBC10264
:103240009BB2A2F80234228961692846FFF7D7FDB4
:1032500079E63E2E09D8720816F0010F00D001322F
:10326000920292B2A3F806240EE0720916F01F0F24
:1032700000D1013A6FEAC2626FEA524292B2A3F8F9
:10328000062401E0012A26D0B3B26289616928468A
:10329000FFF7B5FD636933446361236A2269934292
:1032A00023D99B1B2362002E3FF44DAE63786BBB8A
:1032B000B5F8503015FA83F3227803EBC2033E2EA3
:1032C00017D8720816F0010F00D00132920292B2A4
:1032D000A3F802241CE0B5F8502015FA82F202EBA4
:1032E000C303B2B2A3F80624CEE7002222621E4630
:1032F000D9E7720916F01F0F00D1013A6FEAC262D6
:103300006FEA524292B2A3F8022401E0012B06D0E8
:10331000B3B2228961692846FFF771FD13E6B5F85B
:10332000503015FA83F3227803EBC203B2B2A3F84C
:103330000224EDE762788ABBB5F8502015FA82F2D4
:1033400002EBC3038EB9B3F8022492B222F4F8421E
:1033500092B2A3F80224B3F802246FEA42426FEA61
:10336000524292B2A3F802241AE03E2E09D8720803
:1033700016F0010F00D00132920292B2A3F802249B
:103380000EE0720916F01F0F00D1013A6FEAC26217
:103390006FEA524292B2A3F8022401E0012A26D039
:1033A000B3B2228961692846FFF729FD6369334476
:1033B0006361236A2269934223D99B1B2362002EF7
:1033C0003FF4C1AD63786BBBB5F8503015FA83F3A9
:1033D000227803EBC2033E2E17D8720816F0010FB5
:1033E00000D00132920292B2A3F806241CE0B5F894
:1033F000502015FA82F202EBC303B2B2A3F8022402
:10340000CEE7002222621E46D9E7720916F01F0F8E
:1034100000D1013A6FEAC2626FEA524292B2A3F857
:10342000062401E0012B06D0B3B262896169284607
:10343000FFF7E5FC87E5B5F8503015FA83F32278FD
:1034400003EBC203B2B2A3F80624EDE700228A61BF
:103450001A46F9E43E2A09D8510812F0010F00D0AB
:103460000131890289B2A3F8061408E5510912F066
:103470001F0F00D101396FEAC1616FEA514189B272
:10348000A3F80614FBE4CA78022A45D0012A40F0CA
:10349000208189692269914240F2D480891AA16110
:1034A000D3B9B5F8503015FA83F3217803EBC10393
:1034B000002A40F0CB80B3F8021489B221F4F8411D
:1034C00089B2A3F80214B3F802146FEA41416FEA1B
:1034D000514189B2A3F802146378002B40F0EA80CE
:1034E000B5F8503015FA83F3217803EBC103002AB5
:1034F00040F0C580B3F8062492B222F4F84292B2AA
:10350000A3F80624B3F806246FEA42426FEA524257
:1035100092B2A3F80624B2E4CBB9B0F8503010FA56
:1035200083F30A7803EBC2030A6972BBB3F802247F
:1035300092B222F4F84292B2A3F80224B3F8022421
:103540006FEA42426FEA524292B2A3F802246378D1
:10355000002B4CD1B5F8503015FA83F3227803EBE9
:10356000C203226952BBB3F8062492B222F4F84295
:1035700092B2A3F80624B3F806246FEA42426FEA37
:10358000524292B2A3F8062433E03E2A09D85108E9
:1035900012F0010F00D001318A0292B2A3F8022486
:1035A000D5E7510912F01F0F00D101396FEAC1624E
:1035B0006FEA524292B2A3F80224C8E73E2A09D821
:1035C000510812F0010F00D001318A0292B2A3F823
:1035D00006240EE0510912F01F0F00D101396FEAE5
:1035E000C1626FEA524292B2A3F8062401E0012BB5
:1035F0001DD0E369002B3FF442AC227835F822104D
:1036000044F2400303EA01008B4302D000287FF418
:1036100036AC35F822309BB223F4E04323F070033C
:1036200043F4004343F0C00325F8223027E4B5F803
:10363000503015FA83F3227803EBC203228AA3F8F1
:103640000624D6E70022A2610A4629E73E2A09D8C5
:10365000510812F0010F00D00131890289B2A3F89C
:10366000021439E7510912F01F0F00D101396FEA36
:10367000C1616FEA514189B2A3F802142CE73E2AD6
:103680000AD8510812F0010F00D001318A0292B21B
:10369000A3F80624FFF7F3BB510912F01F0F00D166
:1036A00001396FEAC1626FEA524292B2A3F806246E
:1036B000FFF7E5BB012B7FF4E2ABB5F8503015FA0C
:1036C00083F3217803EBC10392B2A3F80624FFF73A
:1036D000D6BB0120FFF7E4BB10B45C08104400F532
:1036E000806007E030F8022B0A70C2F307224A70AC
:1036F0000231013C002CF5D113F0010F01D00388F9
:103700000B705DF8044B7047104B1B680BB9012020
:10371000704710B504464FF47A70B0FBF3F30C4ACF
:103720001068B0FBF3F000F0ADF868B90F2C01D9C8
:1037300001200AE0002221464FF0FF3000F05CF843
:10374000044B1C60002000E0012010BDEC000020B4
:10375000F4000020F000002010B5032000F03AF83B
:103760000F20FFF7D1FF10B10124204610BD044601
:10377000FDF7BEFDF9E70000034A13680349096835
:103780000B441360704700BF08140020EC000020B9
:10379000014B1868704700BF0814002038B5044674
:1037A000FFF7F6FF0546B4F1FF3F02D0044B1B685C
:1037B0001C44FFF7EDFF401BA042FAD338BD00BF09
:1037C000EC000020024A936843F480439360704702
:1037D00000700040074AD36823F4E0631B041B0C0D
:1037E000000200F4E060034343F0BF6343F400339E
:1037F000D360704700ED00E000B5194BDB68C3F300
:103800000223C3F1070CBCF1040F28BF4FF0040CD6
:1038100003F1040EBEF1060F18D9033B4FF0FF3E33
:103820000EFA0CFC21EA0C0199400EFA03F322EA8D
:103830000303194300280BDB0901C9B200F1604002
:1038400000F5614080F800135DF804FB0023E5E714
:1038500000F00F000901C9B2024B1954F4E700BF90
:1038600000ED00E014ED00E0002807DB00F01F028F
:10387000400901239340024A42F82030704700BFBC
:1038800000E100E00138B0F1807F0BD24FF0E0237F
:103890005861054AF02182F8231000209861072220
:1038A0001A6170470120704700ED00E0034AD2F82A
:1038B000883043F47003C2F88830704700ED00E0B0
:1038C00098B108B503460020C3F8B802C3F8C00297
:1038D000C3F8CC0209B1C3F8B412012183F89C12D9
:1038E0001A701846FDF7AAFD08BD0320704710B5F1
:1038F00082B00023ADF8063061B10446C0F8B812BA
:10390000CB6A4BB10DF106009847C4F8CC020020F9
:1039100002B010BD0320FBE70020F9E708B5FDF772
:10392000D1FD08BD08B5D0F8B83213B11B6898476F
:1039300008BD0320FCE708B5D0F8B8320BB15B68CE
:103940009847002008BD38B5044600F2AA2528464D
:1039500000F02FF90123C4F89432B4F8B032C4F85F
:10396000983294F8AA1201F01F03012B0DD0022BFC
:1039700010D02BB101F080012046FDF7BEFD03E021
:103980002946204600F0E5FA38BD2946204600F0D9
:1039900018FBF9E72946204600F047FBF4E738B565
:1039A00004460D4641BB1346D0F89422032A01D0A9
:1039B000084638BDD0F85C11D0F86021914209D892
:1039C00090F89C32DBB2032B0FD0204600F06CFC49
:1039D0002846EEE7891AC0F85C118A4228BF0A46D9
:1039E000194600F059FC2846E3E7D0F8B8321B69C5
:1039F000002BEAD09847E8E790F89C32DBB2032B23
:103A000001D00020D5E7D0F8B8329B690BB19847B8
:103A1000CFE70020CDE738B504460D4600294AD14E
:103A20001346D0F89422022A05D094F8A032012B34
:103A30003CD0284638BDC269016A8A420ED88A4203
:103A400018D094F89C32DBB2032B27D0802120467B
:103A5000FDF753FD204600F032FCE6E7521AC26142
:103A6000194600F002FC00231A4619462046FDF7CD
:103A70007BFDDAE783699942E3D8D0F89822934234
:103A8000DFD20022114600F0F0FB0021C4F89812AA
:103A90000B460A462046FDF767FDC6E7D4F8B83264
:103AA000DB68002BD2D020469847CFE7002384F86C
:103AB000A0322846BEE790F89C32DBB2032B01D03F
:103AC0000020B7E7D0F8B8325B690BB19847B1E78F
:103AD0000020AFE7012380F89C320023C0F8943225
:103AE0004360C0F8A432D0F8B832F3B170B50446E0
:103AF000D0F8BC221AB15B680BB100219847402373
:103B0000002211462046FDF7E5FC0126A4F8646179
:103B10004025C4F860512B46002280212046FDF745
:103B2000D9FCA6842562002070BD03207047017473
:103B30000020704790F89C32DBB280F89D3204235D
:103B400080F89C320020704790F89C32DBB2042B46
:103B500001D00020704790F89D32DBB280F89C3293
:103B6000F7E7D0F8B82262B108B590F89C32DBB222
:103B7000032B01D0002008BDD36923B19847002052
:103B8000F9E7032070470020F5E70346002002E034
:103B90000130C0B201331A78002AF9D1704708B554
:103BA0004B88012B00D008BDC0F8A43200F07CFB8C
:103BB000F9E70B7803704B7843708B78CA7843EA47
:103BC000022343800B794A7943EA022383808B796D
:103BD000CA7943EA0223C380704710B504468021A6
:103BE000FDF78BFC00212046FDF787FC10BD30B5AA
:103BF00083B004460D460023ADF806304A88130A08
:103C0000013B0E2B00F2BC80DFE803F0153044BA14
:103C1000BA9EABBABABABABABABA0800D0F8B432D5
:103C2000DB6923B10DF10601007C98470AE02946C3
:103C3000FFF7D3FF18E0D0F8B4321B680DF106018E
:103C4000007C9847EA88002A00F0A380BDF806307F
:103C5000002B00F099809A4228BF1A46ADF8062042
:103C60000146204600F0F4FA03B030BD037C43B9AE
:103C7000D0F8B8329B6A0DF10600984702234370D2
:103C8000E0E7D0F8B832DB6A0DF10600984702236E
:103C90004370D7E7D2B2052A52D8DFE802F003100A
:103CA0001D2A3744D0F8B4325B6823B10DF1060108
:103CB000007C9847C6E72946FFF78FFFD4E7D0F886
:103CC000B4329B6823B10DF10601007C9847B9E737
:103CD0002946FFF782FFC7E7D0F8B432DB6823B18B
:103CE0000DF10601007C9847ACE72946FFF775FF08
:103CF000BAE7D0F8B4321B6923B10DF10601007C9C
:103D000098479FE72946FFF768FFADE7D0F8B43240
:103D10005B6923B10DF10601007C984792E72946C3
:103D2000FFF75BFFA0E7D0F8B4329B6923B10DF138
:103D30000601007C984785E72946FFF74EFF93E789
:103D40002946FFF74AFF8FE7037C33B9D0F8B83232
:103D50005B6B0DF10600984774E72946FFF73DFFBE
:103D600082E7037C43B9D0F8B8321B6B0DF1060033
:103D700098470723437065E72946FFF72EFF73E74F
:103D80002946FFF72AFF6FE729462046FFF725FF60
:103D90006AE7204600F088FA66E738B504468B8863
:103DA000FBB9CB88EBB94B887F2B1AD803F07F0582
:103DB00090F89C32DBB2032B0CD080F89E5229463F
:103DC000FDF7C2FB204600F06FFA35B1022384F8FC
:103DD0009C3209E0FFF701FF06E0012384F89C32E2
:103DE00002E02046FFF7F9FE38BD000070B504463A
:103DF0000E468D782E4B1D70012D10D890F89C32F8
:103E0000DBB2022B0FD0032B23D0FFF7E6FE284BAB
:103E100019782046FFF78FFD0325284670BDFFF770
:103E2000DCFE0325F9E78DB145602946FFF77AFDF1
:103E3000054620B131462046FFF7CFFEEDE720468C
:103E400000F032FA032384F89C32E6E700F02CFA03
:103E5000E3E7CDB141688D4225D0C9B2FFF76BFDD4
:103E6000134B197861602046FFF75CFD0546B0B141
:103E700031462046FFF7B1FE21792046FFF75BFD72
:103E8000022384F89C32C8E7022380F89C32456004
:103E90002946FFF750FD204600F006FABDE7204610
:103EA00000F002FAB9E700F0FFF90025B5E700BF1E
:103EB0000C14002008B5CB88012B0BD190F89C3254
:103EC000DBB2022B09D9032B09D10122011D00F01D
:103ED000BFF901E0FFF781FE08BD5BB213B9FFF740
:103EE0007CFEF9E70146002341F8083F012200F07B
:103EF000AFF9F1E708B590F89C32013B022B12D8DC
:103F0000CB88022B0CD10123C360D0F8A4320BB1B3
:103F10000323C360022200F10C0100F099F908BDEF
:103F2000FFF75BFEFBE7FFF758FEF8E708B590F8F0
:103F30009C32013B022B09D84B88012B00D008BDD5
:103F40000023C0F8A43200F0AFF9F8E7FFF745FE10
:103F5000F5E738B50C7804F06004202C06D0402C2E
:103F600004D054B1FFF739FE002404E0D0F8B83291
:103F70009B6898470446204638BD4D78092D1DD8CA
:103F8000DFE805F012191C161C08051C0F0BFFF7C3
:103F90002EFEF0E7FFF701FFEDE7FFF727FF0446EE
:103FA000E9E7FFF787FFE6E7FFF7A4FF2C46E2E724
:103FB000FFF7F5FDDFE7FFF7B9FFDCE7FFF70DFEE1
:103FC000D9E770B505460C460B7803F06003202B4B
:103FD00007D0402B05D023B1FFF7FFFD0026304668
:103FE00070BD95F89C32013B022B18D82379012B28
:103FF0000FD8D5F8B8329B68214628469847064620
:10400000E388002BEBD10028E9D1284600F04CF9D9
:10401000E5E721462846FFF7E0FD0026DFE72146D9
:104020002846FFF7DAFD0026D9E7F8B506460D4623
:104030008B880C7804F06004202C08D0D9B2402C76
:1040400005D06CB12946FFF7C8FD002406E0D6F87C
:10405000B8329B6829463046984704462046F8BD4A
:104060006F78012F2FD0032F05D0002F59D029466C
:10407000FFF7B3FDF2E790F89C32DBB2022B05D0DC
:10408000032B12D02946FFF7A8FDE7E709B18029E5
:1040900004D129463046FFF7A0FDDFE7FDF72DFAF2
:1040A00080213046FDF729FAD8E76B8823B919B18A
:1040B000802901D0EB881BB1304600F0F5F8CDE740
:1040C000FDF71BFAF8E790F89C32DBB2022B05D023
:1040D000032B12D02946FFF780FDBFE709B18029E5
:1040E00004D129463046FFF778FDB7E7FDF705FA1A
:1040F00080213046FDF701FAB0E76B88002BADD187
:1041000011F07F0F0AD1304600F0CEF8D6F8B83261
:104110009B6829463046984704469FE7FDF7F5F926
:10412000F1E790F89C22D2B2022A06D0032A29D0C5
:104130002946FFF752FD3C4690E709B1802913D18B
:1041400013F0800F15D101F07F0101EB810189008F
:1041500001F5A8713144043100230B60022230467E
:1041600000F076F83C4679E72946FFF736FD3C46F5
:1041700074E701F07F0101EB8101890010313144C6
:104180000431E9E75BB2002B1FDB01F00F0202EB09
:10419000820200EB8202B2F8642122B3002B27DBFB
:1041A00001F07F0303EB83039C0004F5A8743444FF
:1041B000043409B1802924D100232360022221463E
:1041C000304600F045F83C4648E701F00F0202EBAC
:1041D000820200EB8202928C002ADFD12946FFF78F
:1041E000FCFC3C463AE72946FFF7F7FC3C4635E73E
:1041F00001F07F0303EB83039C0010343444043448
:10420000D7E73046FDF789F910B101232360D5E7E0
:1042100000232360D2E7D0B170B50D4616460446A0
:10422000FFF7B3FC431C5B009BB233802B7003236E
:104230006B70022307E0EA5401345A1CD2B2002109
:10424000A9540233DBB22278002AF4D170BD704742
:1042500008B513460222C0F894228361C3610A465E
:104260000021FDF779F9002008BD08B513460A467C
:104270000021FDF771F9002008BD08B5134603229F
:10428000C0F89422C0F85831C0F85C310A460021C9
:10429000FDF76AF9002008BD08B513460A4600215B
:1042A000FDF762F9002008BD08B50422C0F8942289
:1042B00000231A461946FDF74FF9002008BD08B53E
:1042C0000522C0F8942200231A461946FDF74CF93E
:1042D000002008BD10B5D0F8BC4284B1D0F8C0327F
:1042E0007BB194F80002FF280DD09B6894F801225E
:1042F00021469847FF2384F80032002010BD032098
:10430000FCE70020FAE70020F8E7000043230380E1
:104310000048704730010020432303800048704765
:10432000740100204323038000487047C40100202B
:104330000A23038000487047B801002038B5D0F840
:10434000BC5275B10446FDF717F9C5F80C02D4F854
:10435000C032DB6805F50371D5F8040298470020E8
:1043600038BD0320FCE710B5D0F8C442D0F8BC3209
:1043700053B301EB810200EB820292694AB101EB77
:10438000810C04EBCC04A46BB2FBF4FC04FB1C22F8
:1043900072B10022C3F81422D0F8C0221469ACB163
:1043A0000A4603F50471D3F80802A047002010BDA7
:1043B00001EB810300EB830300249C61234622462A
:1043C000FDF7CAF82046F2E70320F0E70020EEE709
:1043D000F0B583B0D0F8BC6200238DF80730ADF89B
:1043E0000430002E6CD007460C460B7813F06005A5
:1043F0002AD0202D5ED1CA88F2B113F0800F0FD0E1
:10440000D0F8C0329B68314660789847E288072A26
:1044100028BF072231463846FFF71AFF00254CE037
:104420004B7886F800328B7986F80132CA8831469B
:10443000FFF723FF002540E0D0F8C0329B68002240
:1044400048789847002538E04E780B2E2ED8DFE8C4
:1044500006F006342D2D2D2D2D2D2D2D152490F803
:104460009C32DBB2032B03D0FFF7B7FB032524E01C
:10447000022201A9FFF7ECFE35461EE090F89C32BF
:10448000DBB2032B03D0FFF7A8FB032515E00122C5
:104490000DF10701FFF7DCFE0FE090F89C32DBB274
:1044A000032B0AD0FFF799FB032506E0FFF795FBE6
:1044B000032502E0FFF791FB0325284603B0F0BD7A
:1044C0000325FAE738B504468121FDF70EF80025EB
:1044D000258701212046FDF708F8A4F878518221AC
:1044E0002046FDF702F8A4F84C50A4F84E50D4F83A
:1044F000BC324BB1D4F8C0325B689847D4F8BC02E8
:10450000FDF768F8C4F8BC52002038BD70B5044609
:104510004FF40770FDF75AF8B8B30646C4F8BC026A
:10452000237CBBBB4FF40073022281212046FCF7A1
:10453000D1FF012525874FF400730222294620462A
:10454000FCF7C8FFA4F878511023A4F84E300823D4
:10455000032282212046FCF7BDFF0123A4F84C3042
:10456000D4F8C0321B6898470023C6F81432C6F846
:104570001832257C15BB4FF40073D6F804220121B4
:104580002046FCF7F1FF284670BD0023C4F8BC327A
:104590000225F8E74023022281212046FCF79AFFFA
:1045A000012525874023022229462046FCF792FF59
:1045B000A4F878511023A4F84E30C8E74023D6F869
:1045C000042201212046FCF7CFFF0025DBE719B1CB
:1045D000C0F8C0120020704703207047D0F8BC32EA
:1045E0002BB1C3F80812C3F8102200207047032033
:1045F0007047D0F8BC321BB1C3F8041200207047DA
:1046000003207047D0F8BC22A2B108B5D2F814320A
:104610000BB1012008BD0123C2F81432D2F81032C8
:10462000C362D2F81032D2F808228121FCF794FF3D
:104630000020EFE70320704710B5D0F8BC2292B1FC
:10464000047C44B94FF40073D2F804220121FCF732
:104650008BFF204610BD4023D2F804220121FCF735
:1046600083FF0024F5E70324F3E70000104BD3F8A1
:10467000FC2022F08072C3F8FC20D3F8FC2042F02A
:104680008072C3F8FC20A3F55D431A6822F0010292
:104690001A601A6842F001021A6000225A6000BFD4
:1046A00000BF00BF5B680BB1104670470120704728
:1046B00000ED00E082B00190074B5968019B642235
:1046C00002FB03F30193044B5A68521A019B643BAB
:1046D0009A42F8D302B07047001000E082B0019017
:1046E000074B5968019B074A02FB03F30193044BF4
:1046F0005B685B1A019A9342F9D302B0704700BF1E
:10470000001000E0A0860100054B5B6920B143F07A
:104710000403034A5361704723F00403F9E700BF21
:1047200000040048064B5B699BB220B143F00103D3
:10473000034A5361704723F001039BB2F8E700BFBF
:1047400000040048064B5B699BB220B143F00203B2
:10475000034A5361704723F002039BB2F8E700BF9E
:10476000000400480D4A53699BB223F07803C1004E
:1047700001F008010B431BB24108090101F01001CF
:104780000B438108490101F020010B43C00880015F
:1047900000F0400003439BB253617047000400489F
:1047A00010B504460009FFF7DDFF0020FFF7ACFF5E
:1047B0000120FFF7A9FF0020FFF7A6FF4FF4967036
:1047C000FFF778FF2046FFF7CDFF0020FFF79CFFA3
:1047D0000120FFF799FF0020FFF796FF4FF4967036
:1047E000FFF768FF10BD000008B5144A136823F4F2
:1047F000405313600120FFF795FF0020FFF7A2FF51
:104800000120FFF781FF0BE00020FFF77DFF012073
:10481000FFF77AFF0020FFF777FF0120FFF774FF13
:10482000064B1B6913F0400FEED10020FFF76CFF21
:10483000024A136843F48053136008BD0004004823
:1048400010B50446FFF7D0FF0020FFF76BFF0020F4
:10485000FFF778FF2046FFF7A3FF10BD10B5044611
:10486000FFF7C2FF0020FFF75DFF0120FFF76AFF9F
:104870002046FFF795FF10BD08B5FFF7F7FE364A53
:10488000936C43F002039364344B196821F47F5115
:104890001960196841F4AA511960916C41F0020144
:1048A0009164196821F003011960196841F0010150
:1048B0001960916C41F002019164196821F00C01BA
:1048C0001960196841F004011960916C41F002010E
:1048D00091641A6822F030021A601A6842F01002DD
:1048E0001A600F20FFF7FAFE0020FFF71BFF0020E1
:1048F000FFF728FF0320FFF735FF0020FFF704FF35
:104900000120FFF701FF0020FFF7FEFE41F2040047
:10491000FFF7D0FE0320FFF725FF0020FFF7F4FE8E
:104920000120FFF7F1FE0020FFF7EEFE6420FFF705
:10493000C1FE3220FFF784FF2820FFF781FF082007
:10494000FFF77EFF0120FFF77BFF0620FFF778FFD0
:10495000034B00221A7008BD0010024000040048FA
:104960000702002008B50220FFF76AFF08BD08B55E
:10497000400040F0040040B20843C0B2FFF760FFBF
:1049800008BD000008B5094B4FF0080C83F800C0C3
:10499000490041EA800149B241EA020040B240EADE
:1049A0000C00C0B21870FFF74BFF08BD07020020D3
:1049B00008B52820FFF744FF08BD38B50546002498
:1049C00002E0FFF74BFF0134285D0028F9D138BD24
:1049D0000FB400B587B008AB53F8042B0593102132
:1049E00001A8FBF757FC01A8FFF7E7FF07B05DF848
:1049F00004EB04B0704700000D4885460D480E4991
:104A00000E4A002302E0D458C4500433C4188C4228
:104A1000F9D30B4A0B4C002301E013600432A2428D
:104A2000FBD3FEF743FFFBF7DBFBFCF79BFBFEE74B
:104A3000008000200000002008020020084B000831
:104A40000802002038140020FEE70000F8B500BF7F
:104A5000F8BC08BC9E467047F8B500BFF8BC08BC5F
:044A60009E467047B7
:104A640025302E32643A25302E32643A25302E32E7
:104A7400642020202020000053544D3332205669F6
:104A8400727475616C20436F6D506F727400000016
:104A940053544D6963726F656C656374726F6E69AC
:104AA4006373000043444320436F6E6669670000EC
:104AB40043444320496E7465726661636500000077
:104AC400232D302B20000000686C4C006566674580
:104AD40046470000303132333435363738394142B5
:104AE4004344454600000000303132333435363714
:0C4AF400383961626364656600000000F0
:044B0000C10F0008D9
:044B04009D0F0008F9
:104B08000400002000000000000000000000000079
:104B1800000000000000000000000000000000008D
:104B2800000000000000000000000000000000007D
:104B3800000000000000000000000000000000006D
:104B4800000000000000000000000000000000005D
:104B5800000000000000000000000000000000004D
:104B68000000000048454C4C4F2054484552452011
:104B7800465249454E440A0000000000000000006B
:104B8800000000004916000855160008191700080B
:104B9800F5160008E116000835170008591700082F
:104BA8000000000012010002020200408304405786
:104BB8000002010203010000040309041A030000B3
:104BC80000000000000000000000000000000000DD
:104BD8000000000000000000D91700087D17000839
:104BE80081170008891700088517000801000000D0
:104BF800100000000024F4000D450008C54400081A
:104C0800D143000800000000D542000867430008AF
:104C18003D43000800000000000000000000000004
:104C2800194300080D4300082543000831430008D4
:104C380009024300020100C0320904000001020217
:104C480001000524001001052401000104240202CA
:104C58000524060001070582030800100904010065
:104C6800020A000000070501024000000705810252
:104C78004000000009024300020100C0320904009C
:104C880000010202010005240010010524010001B1
:104C98000424020205240600010705820308001007
:104CA80009040100020A00000007050102000200D1
:104CB80007058102000200000A0600020000004009
:104CC8000100000009074300020104C03209040082
:104CD8000001020201000524001001052401000161
:104CE80004240202052406000107058203080010B7
:104CF80009040100020A0000000705010240000043
:084D08000705810240000008CC
:04000005080049F9AD
:00000001FF
