:020000040800F2
:1000000000800020E13A0008790700087B0700081B
:100010007D0700087F070008810700080000000036
:10002000000000000000000000000000830700083E
:1000300085070008000000008707000889070008FE
:10004000313B0008313B0008313B0008313B0008E0
:10005000313B0008313B0008313B0008313B0008D0
:10006000313B0008313B0008313B0008313B0008C0
:10007000313B0008313B0008313B0008313B0008B0
:10008000313B000800000000313B0008313B000814
:1000900091070008313B0008313B0008313B000864
:1000A000313B0008313B0008313B0008313B000880
:1000B000313B0008313B0008313B0008313B000870
:1000C000313B0008313B0008313B0008313B000860
:1000D000313B0008313B0008313B0008313B000850
:1000E000313B0008313B0008313B0008313B000840
:1000F000313B0008313B0008313B000800000000A4
:1001000000000000313B000800000000313B000807
:10011000313B000800000000313B0008313B000883
:10012000313B0008313B0008313B0008313B0008FF
:10013000313B00080000000000000000313B0008D7
:10014000313B0008313B00080000000000000000C7
:10015000000000000000000000000000000000009F
:10016000000000000000000000000000313B00081B
:10017000313B00080000000000000000000000000B
:1001800000000000313B00080000000000000000FB
:1001900000000000313B00080000000000000000EB
:1001A0000000000000000000313B0008313B000867
:1001B000313B0008313B0008313B000800000000E3
:1001C00000000000313B00080000000000000000BB
:0801D000313B0008313B00083F
:1001D80010B5054C237833B9044B13B10448AFF379
:1001E80000800123237010BDDC0200200000000005
:1001F8007C3B000808B5034B1BB103490348AFF328
:10020800008008BD00000000E00200207C3B0008E0
:1002180001EB01111144024B43F82100704700BF64
:10022800F8020020F8B506460D46002714E0464AB5
:1002380082FB0632F317C3EBA203444A52F8233079
:1002480007EB84003A46214653F82000FFF7E0FF09
:100258000134032CEBDD0137032F01DC0024F8E720
:10026800042719E0384A82FB0632F317C3EBA203CE
:1002780003EB8303A6EB4303344A52F823003B1FE6
:1002880003EB84033A46214650F82300FFF7C0FFEA
:100298000134032CE6DD0137072F01DC0024F8E7E1
:1002A800082200210846FFF7B3FF082201210F208A
:1002B800FFF7AEFF08220221E220FFF7A9FF08227C
:1002C80003210020FFF7A4FF092616E01E4A82FB3F
:1002D8000532EB17C3EBA2031C4A52F82300A6F120
:1002E800090303EB84033246214650F82300FFF745
:1002F8008FFF0134032CE9DD01360C2E01DC0024CC
:10030800F8E70D261AE0104A82FB0532EB17C3EB1B
:10031800A20303EB8303A5EB43030C4A52F8230023
:10032800A6F10D0303EB84033246214650F823005F
:10033800FFF76EFF0134032CE5DD0136102E01DCDA
:100348000024F8E7F8BD00BF676666661001002064
:1003580038B500EB001001440D4B53F821400D4B0C
:1003680053F8213044EA4324A3B223F480739BB2A8
:10037800094D6B61012000F063FA44F46064A4B293
:1003880024F48074A4B26C61012000F059FA38BDDD
:10039800F8020020943B00080004004870B50025CE
:1003A80000E00135432D1FDC104B05F1440253F8E2
:1003B800224053F8256004EB041333440C4A52F8E6
:1003C80023200C4951F823309A42EAD0314620467E
:1003D800FFF7BEFF04EB04143444054B53F8242004
:1003E800044B43F82420DCE770BD00BFE43D00085F
:1003F800F802002000000020044AD36C43F00203F6
:10040800D364034B4FF055321A6070470010024016
:1004180000040048064AD36C43F00103D3644FF04C
:10042800904300221A604FF055321A60704700BF9F
:10043800001002400F4A136843F0030313600E4B89
:10044800D3F8882042F00062C3F88820D9680B4AA4
:100458000A43DA601A6842F080721A60064B1B6819
:1004680013F0007FFAD0044A936843F003039360C3
:10047800704700BF002002400010024032303000B8
:1004880030B4464B9C6D44F080549C65444D2C68B8
:1004980044F480742C609C6D44F480649C65D3F8AB
:1004A800944044F00104C3F894403C4BD3F8943092
:1004B80013F0020FF9D03B4CA36943F00073A3611A
:1004C800364BD3F8904024F44074C3F89040D3F8E6
:1004D800904044F40074C3F89040D3F8904044F43A
:1004E8000044C3F89040A3F5F433CA245C62532453
:1004F8005C62DC6844F08004DC602B4BDB6813F042
:10050800400FFAD0284CA36943F04003A3610023AD
:100518002360264D85FB02C34FEAE27CCCEBA30C9B
:100528004FEA0C5343F480030CEB8C0CA2EB4C0CFD
:1005380043EA0C4385FB01C24FEAE17CCCEBA20CF9
:1005480043EA0C330CEB8C0CA1EB4C0C43EA0C2368
:1005580085FB0025C217C2EBA50243EA021302EB92
:100568008202A0EB420213432360114B2361E3682C
:1005780023F08003E3600C4BDB6813F0400FFAD1E3
:10058800094BDB6813F0200FFAD00023064A5362A8
:10059800A2F58062136030BC704700BF00100240B3
:1005A8000070004000040048002800406766666646
:1005B800F9007F001D4B9B783A2B30D11B4B5B79A0
:1005C8003A2B2ED1002300E00133072B0CDC022B41
:1005D800FAD0052BF8D0154AD25C303AD2B2092AA3
:1005E80021D81249CA54EFE710B5104B9A7902EB9B
:1005F8008202500093F807E0DA7802EB8202510099
:100608001C7993F800C00CEB8C0C4FEA4C025B7819
:100618001A4421447044FFF733FF012010BD002025
:100628007047002070470020704700BF0804002072
:1006380070B500F0E3F8FFF7FDFEFFF7DDFEFFF70A
:10064800E9FE354A936D43F400039365334A936991
:1006580043F4007393613249324802F0BBFF324BD6
:100668001860642000F0ECF832E02E4AD15C2C4A85
:10067800D15401331F2BF8DD2C4B83FB0421E217E7
:10068800C2EBA10202EB8202A4EB42023032244800
:10069800827383FB0632F317C3EBA20303EB8303D6
:1006A800A6EB43033033C3731B4BD3F8903003F0EE
:1006B800020303740A23C377202103F005F8FA2004
:1006C80000F0BEF821462846FFF7ACFDFFF766FEAE
:1006D800174B1E6806F00F061A68C2F3021202EBE7
:1006E800820206EB42061C68C4F303241A68C2F3AC
:1006F800023202EB820204EB42041D68C5F3034593
:100708001B68C3F3015303EB830305EB4305FFF7B2
:1007180051FF0023AEE700BF00100240000400486C
:100728003801002008040020480400206766666637
:100738000028004072B6FEE700B583B00B4B1A6E76
:1007480042F001021A661A6E02F001020092009A43
:100758009A6D42F080529A659B6D03F08053019325
:10076800019B01F07FF803B05DF804FB0010024024
:10077800FEE7FEE7FEE7FEE7FEE7704770477047D3
:1007880008B500F04BF808BD08B5024800F012FEA5
:1007980008BD00BFF4100020034AD2F8883043F4A3
:1007A8007003C2F88830704700ED00E0104B1B68FA
:1007B8000BB90120704710B504464FF47A70B0FBAE
:1007C800F3F30C4A1068B0FBF3F000F0A5F868B931
:1007D8000F2C01D901200AE0002221464FF0FF30FA
:1007E80000F054F8044B1C60002000E0012010BD0C
:1007F8005C010020580100206001002010B5032092
:1008080000F032F80F20FFF7D1FF10B10124204685
:1008180010BD0446FFF790FFF9E70000034A13688C
:10082800034909680B441360704700BF4C0400205B
:100838005C010020014B1868704700BF4C04002081
:1008480038B50446FFF7F6FF0546B4F1FF3F02D07E
:10085800044B1B681C44FFF7EDFF401BA042FAD372
:1008680038BD00BF5C010020074AD36823F4E06369
:100878001B041B0C000200F4E060034343F0BF6359
:1008880043F40033D360704700ED00E000B5194B26
:10089800DB68C3F30223C3F1070CBCF1040F28BFC4
:1008A8004FF0040C03F1040EBEF1060F18D9033BF8
:1008B8004FF0FF3E0EFA0CFC21EA0C0199400EFAAB
:1008C80003F322EA0303194300280BDB0901C9B229
:1008D80000F1604000F5614080F800135DF804FB0A
:1008E8000023E5E700F00F000901C9B2024B1954D3
:1008F800F4E700BF00ED00E014ED00E0002807DB9E
:1009080000F01F02400901239340024A42F82030B8
:10091800704700BF00E100E00138B0F1807F0BD2E2
:100928004FF0E0235861054AF02182F82310002097
:10093800986107221A6170470120704700ED00E0B6
:1009480038B512F4804F43D00468B4F8503091F8A9
:1009580000C04FEACC0E1EFA83F32344B3F80244D6
:10096800C4F309048B69A34228D31B1B8B618B69D1
:100978007BB9056835F82C309BB223F4804323F00B
:10098800700383F4005343F4004343F0800325F8D5
:100998002C3012F0400F0ED002680D7832F8253056
:1009A8009BB223F4E04323F0700343F4004343F085
:1009B800C00322F8253024B9204638BD00238B61B6
:1009C800D5E723460A894969006801F018FFF3E76B
:1009D8000468B4F8503091F800C04FEACC0E1EFA03
:1009E80083F32344B3F80644C4F309048B69A34290
:1009F8002FD31B1B8B618B697BB9056835F82C30AD
:100A08009BB223F4804323F0700383F4005343F430
:100A1800004343F0800325F82C3012F0400F0FD12B
:100A2800026891F800C032F82C309BB223F4E043FE
:100A380023F0700343F4004343F0C00322F82C3042
:100A4800002CB9D023464A894969006801F0D7FECD
:100A5800B2E700238B61CEE700286DD030B587B0B0
:100A6800044690F8A9323BB1032384F8A9322068E0
:100A780000F009FF00231FE080F8A83202F0E2FE30
:100A8800F2E75A1C02EB820104EBC1010120487015
:100A980002EB820104F8313003EB830104EBC1015E
:100AA800CB8602EB820C04EBCC0C00208CF8030004
:100AB8008863C8630864D3B260688342E1D30023C3
:100AC80016E003EB830204EBC202002182F86911ED
:100AD80082F8683182F86B11C2F87811C2F87C117B
:100AE80003EB830204EBC202C2F880110133DBB2CC
:100AF8009842E6D8A4465CF8105BEE46BCE80F00C6
:100B0800AEE80F00DCF80030CEF80030231D0ECB25
:100B1800284600F0C2FE002384F82430012384F81C
:100B2800A932E369012B02D0002007B030BD20466E
:100B380000F081FE0020F8E70120704790F8A83205
:100B4800012B0ED010B50446012380F8A8320068A6
:100B580000F090FE206801F0D6F9002084F8A80281
:100B680010BD0220704770B505460C46164612F0B7
:100B7800400F00F009810268B2F850300978C800C7
:100B880010FA83F31344B3F80224C2F30902A369E9
:100B9800934251D99B1AA361A369002B68D163784A
:100BA800002B4CD12A68B2F8503012FA83F3034470
:100BB800B3F8022492B222F4F84292B2A3F80224C3
:100BC800B3F802246FEA42426FEA524292B2A3F8A3
:100BD800022429686278002A3DD1B1F8503011FA10
:100BE80083F3227803EBC203B3F8062492B222F40B
:100BF800F84292B2A3F80624B3F806246FEA4242F8
:100C08006FEA524292B2A3F806242178284602F0ED
:100C18004DFE16F4804F40D02A68217832F82130F2
:100C28009BB223F4E04323F0700343F4404343F0C2
:100C3800800322F8213030E00023A361ACE7012BC8
:100C4800C7D12A68B2F8503012FA83F3034400225D
:100C5800A3F80224BDE7012AD7D1B1F8503011FA20
:100C680083F3217803EBC1030022A3F80624CCE721
:100C780016F4804F0DD0286830F821309BB223F449
:100C8800E04323F0700343F4404343F0800320F82B
:100C9800213094F82430012B12D02A68217832F8B8
:100CA80021309BB223F4E04323F0400383F0300368
:100CB80043F4004343F0800322F82130002070BD44
:100CC800636913446361E3691344E361216A236937
:100CD80099421FD3C91A21626278002A3FD1296834
:100CE800B1F8502011FA82F2217802EBC102EBB977
:100CF800B2F8021489B221F4F84189B2A2F80214B8
:100D0800B2F802146FEA41416FEA514189B2A2F880
:100D1800021426E021B9002384F824301346DBE7C7
:100D2800002384F8243023620B46D5E73E2B09D8EC
:100D3800590813F0010F00D00131890289B2A2F8D5
:100D480002140EE0590913F01F0F00D101396FEAA0
:100D5800C1616FEA514189B2A2F8021401E0012A87
:100D680006D09BB222896169286801F0DBF894E714
:100D78002968B1F8502011FA82F2217802EBC102F9
:100D880099B2A2F80214ECE70268B2F85030097878
:100D9800C80010FA83F31344B3F80624C2F3090217
:100DA800A369934252D39B1AA361A369002B69D10B
:100DB8006378002B4DD12A68B2F8503012FA83F3C9
:100DC8001844B0F802349BB223F4F8439BB2A0F85D
:100DD8000234B0F802346FEA43436FEA53439BB2DC
:100DE800A0F8023429686278002A3ED1B1F8503060
:100DF80011FA83F3227803EBC203B3F8062492B204
:100E080022F4F84292B2A3F80624B3F806246FEA53
:100E180042426FEA524292B2A3F806242178284649
:100E280002F044FD16F4804F7FF437AF2A6821782A
:100E380032F821309BB223F4E04323F0700343F4EB
:100E4800404343F0800322F8213026E70023A361C2
:100E5800ABE7012BC6D12A68B2F8503012FA83F3F7
:100E680018440023A0F80234BCE7012AD6D1B1F80F
:100E7800503011FA83F3217803EBC1030022A3F861
:100E88000624CBE716F4804F0DD1286830F82130BE
:100E98009BB223F4E04323F0700343F4404343F050
:100EA800800320F8213094F82430012B7FF4F5AE2C
:100EB800636913446361E3691344E361216A236945
:100EC80099421FD3C91A216229686278002A3ED143
:100ED800B1F8502011FA82F2217802EBC102EBB985
:100EE800B2F8061489B221F4F84189B2A2F80614BE
:100EF800B2F806146FEA41416FEA514189B2A2F88B
:100F0800061426E021B9002384F824301346DBE7D1
:100F18000023236284F824300B46D5E73E2B09D8FA
:100F2800590813F0010F00D00131890289B2A2F8E3
:100F380006140EE0590913F01F0F00D101396FEAAA
:100F4800C1616FEA514189B2A2F8061401E0012A91
:100F580006D09BB262896169286800F0E3FF9CE6CD
:100F6800B1F8502011FA82F2217802EBC10299B24D
:100F7800A2F80614EDE72DE9F041054691E1038852
:100F88009BB223F4E14323F070036FEA43436FEA13
:100F980053439BB203802968B1F8503095F8282054
:100FA800D20012FA83F30B44B3F80234C3F30903F3
:100FB8006B64EA6B1344EB630021284602F076FC6D
:100FC80095F82430002B00F06C812B6C002B40F03E
:100FD800688195F824302A6843F08003A2F84C30E1
:100FE800002385F824305CE1B0F8503095F868218A
:100FF800D20012FA83F30344B3F80634C3F30903A7
:10100800C5F88431B5F86E2105F52C7101F0F7FBB0
:101018002A68138823F070031B051B0D43F0800317
:101028001380284602F02EFC3BE13E2A09D85108DD
:1010380012F0010F00D001318A0292B2A3F80624FF
:1010480092E1510912F01F0F00D101396FEAC16214
:101058006FEA524292B2A3F8062485E130F82430B0
:101068009EB213F4004F4AD116F0800F00F0198198
:10107800621C02EB820105EBC101286830F82430BC
:101088009BB223F4E14323F070036FEA43436FEA12
:1010980053439BB220F82430CB78022B40F0FD80DC
:1010A80016F4807F40F0F9802868B0F85030621C50
:1010B80002EB820215F83260F20012FA83F303445D
:1010C800B3F80234C3F3090304EB840205EBC2024C
:1010D800126C9A4240F2CD8004EB840705EBC707F7
:1010E800D21A3A6404EB840205EBC202126C002A9D
:1010F80040F0C6803146284602F0D8FBD1E030F8EF
:10110800243023F070031B051B0D43F0800320F8E7
:10111800243004EB8401C90001F5B47105EB010822
:1011280004EB840305EBC30393F87431002B40D11F
:101138002868B0F8503004EB840205EBC20292F83C
:101148006821D20012FA83F30344B3F80674C7F394
:10115800090717BB04EB840305EBC303D3F8842109
:101168003A44C3F88421D3F87C213A44C3F87C215B
:10117800D3F880313BB104EB840305EBC303D3F808
:1011880078319F4270D204EB840305EBC30393F8D4
:101198006811284602F07EFB66E704EB840105EB44
:1011A800C1013B46B1F86E21D1F87C1101F027FB53
:1011B800D0E704EB840305EBC30393F86B31022BF0
:1011C80033D0296804EB840205EBC20292F8680167
:1011D80031F820309BB223F4E04323F0700343F44A
:1011E800004343F0C00321F82030286892F86831A2
:1011F80030F8232012F4804F1ED0B0F85020DB00C6
:1012080013FA82F30344B3F80274C7F30907002FF3
:10121800A0D004EB840105EBC1013B46B1F8702175
:10122800D1F87C1101F0EBFA94E7324641462846A2
:10123800FFF786FB07468DE7B0F85020DB0013FA6E
:1012480082F30344B3F80674C7F30907002F81D06B
:1012580004EB840105EBC1013B46B1F87221D1F8DA
:101268007C1101F0CCFA75E74146286800F06EFE63
:10127800FAE604EB840205EBC2020027176431E7A3
:1012880004EB840205EBC202D66B1E44D663546C91
:101298002344536400F05AFE03E032462846FFF721
:1012A80062FC2868B0F8443013F4004F6BD0B0F8F3
:1012B8004440A3B214F00F047FF4D0AE13F0100F23
:1012C8003FF45DAE03889AB213F4006F7FF48CAEDE
:1012D80012F4004FE5D0038823F070031B051B0DA3
:1012E80043F0800303802868B0F8503095F86821EF
:1012F800D20012FA83F30344B3F80634C3F30903A4
:10130800C5F884318BB1D5F87C1171B1B5F86E216F
:1013180001F075FAD5F88421D5F87C311344C5F865
:101328007C310021284602F0B5FA2B681A8812F49D
:10133800006FB6D1B3F8502013FA82F3D5F87821AC
:10134800002A7FF472AEB3F8062492B222F4F8426F
:1013580092B2A3F80624B3F806246FEA42426FEA71
:10136800524292B2A3F806242A6813889BB223F447
:10137800804323F0700383F4405343F4004343F065
:10138800800313808DE70020BDE8F08190F8A83233
:10139800012B0DD010B50446012380F8A83280F83F
:1013A8002410006800F0A9FD002084F8A80210BDF0
:1013B8000220704710B50446006800F0AFFD10F435
:1013C800004F40F09B80206800F0A8FD10F4806F6B
:1013D80040F09880206800F0A1FD10F4804F08D0FC
:1013E8002268B2F844309BB223F480439BB2A2F83F
:1013F8004430206800F092FD10F4005F08D02268A5
:10140800B2F844309BB223F400539BB2A2F84430A4
:10141800206800F083FD10F4805F21D02268B2F8C4
:1014280040309BB223F004039BB2A2F840302268FC
:10143800B2F840309BB223F008039BB2A2F84030C8
:1014480094F8E032012B6ED0204602F063FA22684D
:10145800B2F844309BB223F480539BB2A2F84430D4
:10146800206800F05BFD10F4006F63D1206800F085
:1014780055FD10F0800F2BD02268B2F844309BB293
:1014880023F080039BB2A2F8443094F8E032002B9A
:101498006DD12268B2F840309BB243F00403A2F841
:1014A80040302268B2F840309BB243F00803A2F8FB
:1014B8004030012184F8E0122368B3F85430C3F3B4
:1014C8008D0303F03C03C4F8E432204602F0DAFA54
:1014D800206800F023FD10F4007F4CD1206800F054
:1014E8001DFD10F4807F08D02268B2F844309BB20A
:1014F80023F480739BB2A2F8443010BD2046FFF756
:101508003AFD60E72268B2F844309BB223F4806366
:101518009BB2A2F84430204602F0D9F900212046B7
:10152800FFF734FF56E7002184F8E012204602F066
:10153800A9FA89E72268B2F840309BB243F0080361
:10154800A2F840302268B2F844309BB223F400631A
:101558009BB2A2F844302268B2F840309BB243F004
:101568000403A2F84030204602F0C4F97EE7204682
:1015780002F0C0F9ACE72268B2F844309BB223F419
:1015880000739BB2A2F84430204602F09AF9A5E70E
:1015980010B504468C4611F0800F2AD101F00700DF
:1015A80000EB8001C90001F5B47E04EB0E0100EBED
:1015B800800004EBC0004FF0000E80F869E10CF0E9
:1015C800070C81F800C00A61CB704A780AB1A1F80B
:1015D8000EC0022B19D094F8A832012B18D0012381
:1015E80084F8A832206800F069F9002084F8A8027D
:1015F80010BD01F00700013000EB800104EBC101D0
:101608004FF0010E81F801E0D9E700230B71E2E702
:101618000220EDE710B504460B4611F0800F1FD1EC
:1016280001F0070202EB8201C90001F5B47101441F
:1016380002EB820200EBC202002082F8690103F08B
:1016480007030B7094F8A832012B13D0012384F8F8
:10165800A832206800F0F0FA002084F8A80210BD33
:1016680001F00702013202EB820100EBC101012007
:101678004870E4E70220F2E710B501F0070404EB34
:101688008401C90001F5B471014404EB840C00EB3A
:10169800CC0CCCF87C21CCF880310023CCF88431F8
:1016A8008CF869318CF8684124B9006800F04EFC68
:1016B800002010BD006800F049FCF9E701F00701BF
:1016C80001EB810100EBC101D1F88401704710B52D
:1016D80001F0070404F1010C0CEB8C0100EBC101D3
:1016E80004EB840E00EBCE0ECEF83C20CEF8403052
:1016F80001228EF84C20CEF848300023CEF8443032
:101708004A700CEB8C0C00F83C4024B9006800F0DF
:101718001DFC002010BD006800F018FCF9E70B461E
:1017280001F0070241688A422AD810B5044613F02E
:10173800800F1DD103EB8301C90001F5B471014489
:1017480003EB830300EBC303002083F86901012343
:101758008B700A7094F8A832012B13D0012384F8F7
:10176800A832206800F053FB002084F8A80210BDBE
:10177800531C03EB830100EBC10101204870E6E72D
:10178800012070470220F2E70B4601F00F01426882
:10179800914230D810B5044613F0800F21D103F0E0
:1017A800070202EB8201C90001F5B471014402EBA2
:1017B800820200EBC202002082F8690100228A70CE
:1017C80003F007030B7094F8A832012B15D00123FE
:1017D80084F8A832206800F03FFB002084F8A802B3
:1017E80010BD03F00702013202EB820100EBC101D8
:1017F80001204870E2E7012070470220F0E711F06D
:10180800800F0BD001F00701013101EB810100EBE2
:10181800C10152B90A73CB800020704701EB8101E6
:10182800C90001F5B4710144F3E701220A730B8181
:101838001B0C4B81F0E7034602680121C0F8E8124F
:10184800002083F8E002B2F854309BB20B43A2F8B0
:101858005430B2F854309BB243F00203A2F854302B
:1018680070470000024A936843F4804393607047CE
:101878000070004003460020A3F844004BF6807235
:10188800A3F840207047B0F8403023F47E535B043F
:101898005B0CA0F840300020704784B0844601A853
:1018A80080E80E000123ACF840300020ACF840007E
:1018B800ACF84400ACF8500004B0704710B50346CB
:1018C8000A7830F822C01FFA8CFC2CF4EC4C2CF06F
:1018D800700C1FFA8CFCC878032862D8DFE800F087
:1018E800565D0259002048F2800E4CEA0E0C23F88F
:1018F80022C091F800C033F82C2012B222F4E04242
:1019080022F070024CEA020292B242EA0E0223F876
:101918002C200A7B002A40F0C4804A78002A51D043
:10192800B3F8502013FA82F20C7802EBC402B1F833
:1019380006C04FEA5C0C4FEA4C0CA2F800C40C78C5
:1019480033F8242012F0400F0CD033F8242092B240
:1019580022F4E04222F0700242F4004242F0C00257
:1019680023F82420CA78012A1DD0097833F82120C9
:1019780092B222F4E04222F0400282F0200242F4C5
:10198800004242F0800223F821206AE04CF4007CF7
:10199800A9E74CF4C06C0020A5E74CF4806C00204B
:1019A800A1E701209FE7097833F8212092B222F4B9
:1019B800E04222F0400242F4004242F0800223F862
:1019C80021204EE0B3F8502013FA82F20C7802EB93
:1019D800C402B1F806C04FEA5C0C4FEA4C0CA2F8FE
:1019E80004C4B3F8502013FA82F20C7802EBC40254
:1019F8000C69BCBBB2F806C41FFA8CFC2CF4F84C7A
:101A08001FFA8CFCA2F806C4B2F806C46FEA4C4C64
:101A18006FEA5C4C1FFA8CFCA2F806C40C7833F809
:101A2800242012F4804F0CD033F8242092B222F4F0
:101A3800E04222F0700242F4404242F0800223F871
:101A48002420097833F8212092B222F4804222F02F
:101A5800700282F4405242F4004242F0800223F8BD
:101A6800212010BD3E2C0DD84FEA540C14F0010F64
:101A780001D00CF1010C4FEA8C2C1FFA8CFCA2F857
:101A880006C4CBE74FEA541C14F01F0F01D10CF128
:101A9800FF3C6FEACC646FEA5444A4B2A2F806444F
:101AA800BCE791F800C033F82C2092B222F4E0424F
:101AB80022F0700242F4014242F0800223F82C2006
:101AC800B3F8502013FA82F291F800C002EBCC026E
:101AD800B1F808C04FEA5C0C4FEA4C0CA2F800C4FD
:101AE800B3F8502013FA82F291F800C002EBCC024E
:101AF800B1F80AC04FEA5C0C4FEA4C0CA2F804C4D7
:101B08004A78002A41D10C7833F8242012F4804F07
:101B18000CD033F8242092B222F4E04222F0700272
:101B280042F4404242F0800223F824200C7833F833
:101B3800242012F0400F0CD033F8242092B222F463
:101B4800E04222F0700242F4004242F0C00223F860
:101B5800242091F800C033F82C2092B222F480425D
:101B680022F0700282F4405248F28004224323F8A3
:101B78002C20097833F8212092B222F4E04222F096
:101B88004002224323F821206BE70C7833F8242005
:101B980012F4804F0CD033F8242092B222F4E042A1
:101BA80022F0700242F4404242F0800223F82420DE
:101BB8000C7833F8242012F0400F0CD033F824208E
:101BC80092B222F4E04222F0700242F4004242F063
:101BD800C00223F82420CA78012A1ED00C7833F8D2
:101BE800242092B222F4E04222F0400282F0200245
:101BF80042F4004242F0800223F82420097833F8A6
:101C0800212092B222F4804222F0700242F4004273
:101C180042F0800223F8212023E70C7833F82420AF
:101C280092B222F4E04222F0400242F4004242F032
:101C3800800223F82420E1E70B7B002B46D14B7868
:101C480013B30A7830F8223013F0400F0CD030F874
:101C580022309BB223F4E04323F0700343F40043A3
:101C680043F0C00320F822300A7830F822309BB2C3
:101C780023F4E04323F0400343F4004343F080039C
:101C880020F82230002070470A7830F8223013F408
:101C9800804F0CD030F822309BB223F4E04323F07D
:101CA800700343F4404343F0800320F822300A785D
:101CB80030F822309BB223F4804323F0700343F4BE
:101CC800004343F0800320F82230DBE74B78002BF9
:101CD8004ED10A7830F8223013F4804F0CD030F807
:101CE80022309BB223F4E04323F0700343F44043D3
:101CF80043F0800320F822300A7830F8223013F0BD
:101D0800400F0CD030F822309BB223F4E04323F08C
:101D1800700343F4004343F0C00320F822300A78EC
:101D280030F822309BB223F4E04323F0700343F4ED
:101D3800004343F0C00320F822300B7830F823200A
:101D480092B222F4804222F0700248F2800C42EAF9
:101D58000C0220F823200A7830F822309BB223F4B2
:101D6800E04323F0400343EA0C0320F8223089E7DC
:101D78000A7830F8223013F4804F0CD030F8223033
:101D88009BB223F4E04323F0700343F4404343F051
:101D9800800320F822300A7830F8223013F0400F00
:101DA8000CD030F822309BB223F4E04323F07003C8
:101DB80043F4004343F0C00320F822300A7830F897
:101DC80022309BB223F4E04323F0700343F44043F2
:101DD80043F0800320F822300B7830F8232092B2A9
:101DE80022F4E04222F0400248F2800C42EA0C025F
:101DF80020F823200A7830F822309BB223F480435D
:101E080023F0700343EA0C0320F822303AE74B78BA
:101E18008BB10A7830F822309BB223F4E04323F0E8
:101E2800400383F0100343F4004343F0800320F899
:101E38002230002070470A7830F822309BB223F411
:101E4800804323F0700383F4805343F4004343F04A
:101E5800800320F82230ECE70B7B002B4BD14B782A
:101E680033B30A7830F8223013F0400F0CD030F832
:101E780022309BB223F4E04323F0700343F4004381
:101E880043F0C00320F82230CB78012B33D00A78F6
:101E980030F822309BB223F4E04323F0400383F070
:101EA800200343F4004343F0800320F8223022E06B
:101EB8000A7830F8223013F4804F0CD030F82230F2
:101EC8009BB223F4E04323F0700343F4404343F010
:101ED800800320F822300A7830F822309BB223F4AD
:101EE800804323F0700383F4405343F4004343F0EA
:101EF800800320F822300020704711B98023A0F811
:101F08004C3000207047B0F858306FEA43436FEA0E
:101F180053439BB2A0F8583000207047B0F84400F3
:101F280080B2704710B45C1C6408024402F58062F9
:101F380007E00B78487843EA002322F8023B023195
:101F4800013C002CF5D15DF8044B704770B505468F
:101F58000C464B78012B37D00A7B002A40F02683A9
:101F68008B690A69934240F204839B1A8B61B5F826
:101F7800503015FA83F3217803EBC103002A40F0AF
:101F8800FC82B3F8062492B222F4F84292B2A3F883
:101F98000624B3F806246FEA42426FEA524292B22C
:101FA800A3F80624227835F822309BB223F4804324
:101FB80023F0700383F4405343F4004343F0800359
:101FC80025F82230002070BD8E690A69964200D932
:101FD8001646237B002B39D0E378022B58D0227881
:101FE80035F822309BB223F4E04323F0700343F426
:101FF800014343F0800325F82230236A9B1B2362A8
:10200800237835F8232012F0400F00F026826278FA
:10201800002A40F0CA81B5F8502015FA82F202EB86
:10202800C303002E40F0A881B3F8062492B222F42C
:10203800F84292B2A3F80624B3F806246FEA4242A3
:102048006FEA524292B2A3F80624B0E1B6B2334620
:10205800E28861692846FFF765FFB5F8503015FA40
:1020680083F3227803EBC203A3F80264227835F8DD
:1020780022309BB223F4E04323F0400383F0300383
:1020880043F4004343F0800325F8223000209AE708
:10209800236A9A4280F05281227835F822309BB226
:1020A80023F4E04323F0700343F4014343F0800337
:1020B80025F82230236A9B1B2362237835F82320D6
:1020C80012F0400F00F09D8062788ABBB5F850206E
:1020D80015FA82F202EBC3038EB9B3F8062492B262
:1020E80022F4F84292B2A3F80624B3F806246FEA61
:1020F80042426FEA524292B2A3F806241AE03E2EF8
:1021080009D8720816F0010F00D00132920292B27B
:10211800A3F806240EE0720916F01F0F00D1013A49
:102128006FEAC2626FEA524292B2A3F8062401E053
:10213800012A2BD0B3B2628961692846FFF7F2FE03
:10214800636933446361236A2269934228D99B1BDC
:1021580023626378002B40D1B5F8503015FA83F329
:10216800227803EBC203FEB9B3F8022492B222F438
:10217800F84292B2A3F80224B3F802246FEA42426A
:102188006FEA524292B2A3F8022428E0B5F8502030
:1021980015FA82F202EBC303B2B2A3F80624C9E728
:1021A800002222621E46D4E73E2E09D8720816F095
:1021B800010F00D00132920292B2A3F802240EE07D
:1021C800720916F01F0F00D1013A6FEAC2626FEA76
:1021D800524292B2A3F8022401E0012B06D0B3B216
:1021E800228961692846FFF79DFE3FE7B5F8503020
:1021F80015FA83F3227803EBC203B2B2A3F80224E0
:10220800EDE762788ABBB5F8502015FA82F202EB46
:10221800C3038EB9B3F8022492B222F4F84292B200
:10222800A3F80224B3F802246FEA42426FEA52424A
:1022380092B2A3F802241AE03E2E09D8720816F0CA
:10224800010F00D00132920292B2A3F802240EE0EC
:10225800720916F01F0F00D1013A6FEAC2626FEAE5
:10226800524292B2A3F8022401E0012A2BD0B3B261
:10227800228961692846FFF755FE63693344636123
:10228800236A2269934228D99B1B23626378002B17
:1022980040D1B5F8503015FA83F3227803EBC20326
:1022A800FEB9B3F8062492B222F4F84292B2A3F827
:1022B8000624B3F806246FEA42426FEA524292B209
:1022C800A3F8062428E0B5F8502015FA82F202EBAC
:1022D800C303B2B2A3F80224C9E7002222621E4651
:1022E800D4E73E2E09D8720816F0010F00D001324B
:1022F800920292B2A3F806240EE0720916F01F0F9C
:1023080000D1013A6FEAC2626FEA524292B2A3F870
:10231800062401E0012B06D0B3B262896169284620
:10232800FFF700FEA2E6B5F8503015FA83F32278DD
:1023380003EBC203B2B2A3F80624EDE7217835F81F
:10234800212092B222F4E24222F0700242F40042CA
:1023580042F0800225F82120B5F8502015FA82F2C3
:10236800217802EBC1029BB2A2F80234228961698A
:102378002846FFF7D7FD79E63E2E09D8720816F0F1
:10238800010F00D00132920292B2A3F806240EE0A7
:10239800720916F01F0F00D1013A6FEAC2626FEAA4
:1023A800524292B2A3F8062401E0012A26D0B3B221
:1023B800628961692846FFF7B5FD63693344636143
:1023C800236A2269934223D99B1B2362002E3FF480
:1023D8004DAE63786BBBB5F8503015FA83F32278AD
:1023E80003EBC2033E2E17D8720816F0010F00D077
:1023F8000132920292B2A3F802241CE0B5F85020F0
:1024080015FA82F202EBC303B2B2A3F80624CEE7B0
:10241800002222621E46D9E7720916F01F0F00D16A
:10242800013A6FEAC2626FEA524292B2A3F80224FA
:1024380001E0012B06D0B3B2228961692846FFF773
:1024480071FD13E6B5F8503015FA83F3227803EBE3
:10245800C203B2B2A3F80224EDE762788ABBB5F8EA
:10246800502015FA82F202EBC3038EB9B3F80224A6
:1024780092B222F4F84292B2A3F80224B3F80224EA
:102488006FEA42426FEA524292B2A3F802241AE07B
:102498003E2E09D8720816F0010F00D001329202C0
:1024A80092B2A3F802240EE0720916F01F0F00D1B1
:1024B800013A6FEAC2626FEA524292B2A3F802246A
:1024C80001E0012A26D0B3B2228961692846FFF7C4
:1024D80029FD636933446361236A2269934223D9DE
:1024E8009B1B2362002E3FF4C1AD63786BBBB5F82C
:1024F800503015FA83F3227803EBC2033E2E17D827
:10250800720816F0010F00D00132920292B2A3F8BD
:1025180006241CE0B5F8502015FA82F202EBC3033A
:10252800B2B2A3F80224CEE7002222621E46D9E7FF
:10253800720916F01F0F00D1013A6FEAC2626FEA02
:10254800524292B2A3F8062401E0012B06D0B3B29E
:10255800628961692846FFF7E5FC87E5B5F85030E0
:1025680015FA83F3227803EBC203B2B2A3F8062468
:10257800EDE700228A611A46F9E43E2A09D8510893
:1025880012F0010F00D00131890289B2A3F80614B4
:1025980008E5510912F01F0F00D101396FEAC16136
:1025A8006FEA514189B2A3F80614FBE4CA78022AFB
:1025B80045D0012A40F0208189692269914240F280
:1025C800D480891AA161D3B9B5F8503015FA83F3CC
:1025D800217803EBC103002A40F0CB80B3F8021442
:1025E80089B221F4F84189B2A3F80214B3F80214AD
:1025F8006FEA41416FEA514189B2A3F80214637846
:10260800002B40F0EA80B5F8503015FA83F32178B2
:1026180003EBC103002A40F0C580B3F8062492B248
:1026280022F4F84292B2A3F80624B3F806246FEA1B
:1026380042426FEA524292B2A3F80624B2E4CBB9FE
:10264800B0F8503010FA83F30A7803EBC2030A6932
:1026580072BBB3F8022492B222F4F84292B2A3F801
:102668000224B3F802246FEA42426FEA524292B25D
:10267800A3F802246378002B4CD1B5F8503015FA32
:1026880083F3227803EBC203226952BBB3F8062412
:1026980092B222F4F84292B2A3F80624B3F80624C0
:1026A8006FEA42426FEA524292B2A3F8062433E03C
:1026B8003E2A09D8510812F0010F00D001318A02D0
:1026C80092B2A3F80224D5E7510912F01F0F00D1E6
:1026D80001396FEAC1626FEA524292B2A3F802244A
:1026E800C8E73E2A09D8510812F0010F00D001317D
:1026F8008A0292B2A3F806240EE0510912F01F0FC5
:1027080000D101396FEAC1626FEA524292B2A3F86E
:10271800062401E0012B1DD0E369002B3FF442ACF5
:10272800227835F8221044F2400303EA01008B4373
:1027380002D000287FF436AC35F822309BB223F45F
:10274800E04323F0700343F4004343F0C00325F84B
:10275800223027E4B5F8503015FA83F3227803EBDA
:10276800C203228AA3F80624D6E70022A2610A46F9
:1027780029E73E2A09D8510812F0010F00D001318B
:10278800890289B2A3F8021439E7510912F01F0F20
:1027980000D101396FEAC1616FEA514189B2A3F8EA
:1027A80002142CE73E2A0AD8510812F0010F00D073
:1027B80001318A0292B2A3F80624FFF7F3BB51094C
:1027C80012F01F0F00D101396FEAC1626FEA52425D
:1027D80092B2A3F80624FFF7E5BB012B7FF4E2AB26
:1027E800B5F8503015FA83F3217803EBC10392B2A0
:1027F800A3F80624FFF7D6BB0120FFF7E4BB10B40B
:102808005C08104400F5806007E030F8022B0A707D
:10281800C2F307224A700231013C002CF5D113F0B3
:10282800010F01D003880B705DF8044B704710B599
:10283800D0F8BC4284B1D0F8C0327BB194F8000221
:10284800FF280DD09B6894F8012221469847FF2362
:1028580084F80032002010BD0320FCE70020FAE7CE
:102868000020F8E743230380004870479C010020BC
:102878004323038000487047E0010020432303807E
:1028880000487047300200200A2303800048704740
:102898002402002038B5D0F8BC5275B1044601F0C6
:1028A800EBF8C5F80C02D4F8C032DB6805F5037103
:1028B800D5F804029847002038BD0320FCE710B57E
:1028C800D0F8C442D0F8BC3253B301EB810200EB1C
:1028D800820292694AB101EB810C04EBCC04A46B2F
:1028E800B2FBF4FC04FB1C2272B10022C3F81422D0
:1028F800D0F8C0221469ACB10A4603F50471D3F8C4
:102908000802A047002010BD01EB810300EB830300
:1029180000249C612346224601F09EF82046F2E7F7
:102928000320F0E70020EEE7F0B583B0D0F8BC62F2
:1029380000238DF80730ADF80430002E6CD0074620
:102948000C460B7813F060052AD0202D5ED1CA887A
:10295800F2B113F0800F0FD0D0F8C0329B68314627
:1029680060789847E288072A28BF07223146384608
:1029780000F0EEFD00254CE04B7886F800328B79AC
:1029880086F80132CA88314600F0F7FD002540E09C
:10299800D0F8C0329B68002248789847002538E074
:1029A8004E780B2E2ED8DFE806F006342D2D2D2D6F
:1029B8002D2D2D2D152490F89C32DBB2032B03D03E
:1029C80000F08CFA032524E0022201A900F0C0FDE2
:1029D80035461EE090F89C32DBB2032B03D000F0A2
:1029E8007DFA032515E001220DF1070100F0B0FD85
:1029F8000FE090F89C32DBB2032B0AD000F06EFA9D
:102A0800032506E000F06AFA032502E000F066FA02
:102A18000325284603B0F0BD0325FAE738B5044678
:102A2800812100F0E2FF002525870121204600F0E2
:102A3800DCFFA4F878518221204600F0D6FFA4F8E4
:102A48004C50A4F84E50D4F8BC324BB1D4F8C03234
:102A58005B689847D4F8BC0201F03CF8C4F8BC5253
:102A6800002038BD70B504464FF4077001F02EF809
:102A7800B8B30646C4F8BC02237CBBBB4FF4007352
:102A880002228121204600F0A5FF012525874FF469
:102A9800007302222946204600F09CFFA4F87851D2
:102AA8001023A4F84E30082303228221204600F088
:102AB80091FF0123A4F84C30D4F8C0321B68984722
:102AC8000023C6F81432C6F81832257C15BB4FF41B
:102AD8000073D6F804220121204600F0C5FF2846DD
:102AE80070BD0023C4F8BC320225F8E74023022257
:102AF8008121204600F06EFF012525874023022210
:102B08002946204600F066FFA4F878511023A4F85F
:102B18004E30C8E74023D6F804220121204600F0B1
:102B2800A3FF0025DBE719B1C0F8C01200207047E9
:102B380003207047D0F8BC322BB1C3F80812C3F891
:102B480010220020704703207047D0F8BC321BB118
:102B5800C3F804120020704703207047D0F8BC2245
:102B6800A2B108B5D2F814320BB1012008BD012377
:102B7800C2F81432D2F81032C362D2F81032D2F846
:102B88000822812100F068FF0020EFE7032070474A
:102B980010B5D0F8BC2292B1047C44B94FF400734C
:102BA800D2F80422012100F05FFF204610BD402327
:102BB800D2F80422012100F057FF0024F5E703248E
:102BC800F3E798B108B503460020C3F8B802C3F884
:102BD800C002C3F8CC0209B1C3F8B412012183F8CA
:102BE8009C121A70184600F0A9FE08BD0320704711
:102BF80010B582B00023ADF8063061B10446C0F8C4
:102C0800B812CB6A4BB10DF106009847C4F8CC0254
:102C1800002002B010BD0320FBE70020F9E708B54B
:102C280000F0D0FE08BD08B5D0F8B83213B11B6863
:102C3800984708BD0320FCE708B5D0F8B8320BB1B7
:102C48005B689847002008BD38B5044600F2AA25FD
:102C5800284600F02FF90123C4F89432B4F8B032B2
:102C6800C4F8983294F8AA1201F01F03012B0DD072
:102C7800022B10D02BB101F08001204600F0BDFEE0
:102C880003E02946204600F0E4FA38BD29462046EC
:102C980000F017FBF9E72946204600F046FBF4E769
:102CA80038B504460D4641BB1346D0F89422032A92
:102CB80001D0084638BDD0F85C11D0F860219142A7
:102CC80009D890F89C32DBB2032B0FD0204600F0D5
:102CD8006BFC2846EEE7891AC0F85C118A4228BFC7
:102CE8000A46194600F058FC2846E3E7D0F8B832FF
:102CF8001B69002BEAD09847E8E790F89C32DBB2D2
:102D0800032B01D00020D5E7D0F8B8329B690BB16E
:102D18009847CFE70020CDE738B504460D4600298F
:102D28004AD11346D0F89422022A05D094F8A0324A
:102D3800012B3CD0284638BDC269016A8A420ED8A8
:102D48008A4218D094F89C32DBB2032B27D080211A
:102D5800204600F052FE204600F031FCE6E7521A09
:102D6800C261194600F001FC00231A4619462046A4
:102D780000F07AFEDAE783699942E3D8D0F898221E
:102D88009342DFD20022114600F0EFFB0021C4F885
:102D980098120B460A46204600F066FEC6E7D4F8AD
:102DA800B832DB68002BD2D020469847CFE7002303
:102DB80084F8A0322846BEE790F89C32DBB2032B99
:102DC80001D00020B7E7D0F8B8325B690BB198475B
:102DD800B1E70020AFE7012380F89C320023C0F858
:102DE80094324360C0F8A432D0F8B832F3B170B569
:102DF8000446D0F8BC221AB15B680BB10021984791
:102E0800402300221146204600F0E4FD0126A4F8E4
:102E180064614025C4F860512B4600228021204679
:102E280000F0D8FDA6842562002070BD03207047FD
:102E380001740020704790F89C32DBB280F89D3214
:102E4800042380F89C320020704790F89C32DBB253
:102E5800042B01D00020704790F89D32DBB280F837
:102E68009C32F7E7D0F8B82262B108B590F89C32E6
:102E7800DBB2032B01D0002008BDD36923B19847EA
:102E88000020F9E7032070470020F5E703460020FB
:102E980002E00130C0B201331A78002AF9D1704734
:102EA80008B54B88012B00D008BDC0F8A43200F04B
:102EB8007BFBF9E70B7803704B7843708B78CA7803
:102EC80043EA022343800B794A7943EA0223838049
:102ED8008B79CA7943EA0223C380704710B5044648
:102EE800802100F08AFD0021204600F086FD10BDFB
:102EF80030B583B004460D460023ADF806304A8845
:102F0800130A013B0E2B00F2BC80DFE803F01530FA
:102F180044BABA9EABBABABABABABABA0800D0F8C2
:102F2800B432DB6923B10DF10601007C98470AE051
:102F38002946FFF7D3FF18E0D0F8B4321B680DF12B
:102F48000601007C9847EA88002A00F0A380BDF8B3
:102F58000630002B00F099809A4228BF1A46ADF837
:102F680006200146204600F0F3FA03B030BD037C8A
:102F780043B9D0F8B8329B6A0DF10600984702238E
:102F88004370E0E7D0F8B832DB6A0DF106009847E5
:102F980002234370D7E7D2B2052A52D8DFE802F0FD
:102FA80003101D2A3744D0F8B4325B6823B10DF101
:102FB8000601007C9847C6E72946FFF78FFFD4E74C
:102FC800D0F8B4329B6823B10DF10601007C984714
:102FD800B9E72946FFF782FFC7E7D0F8B432DB68C4
:102FE80023B10DF10601007C9847ACE72946FFF7AD
:102FF80075FFBAE7D0F8B4321B6923B10DF10601A9
:10300800007C98479FE72946FFF768FFADE7D0F8AF
:10301800B4325B6923B10DF10601007C984792E751
:103028002946FFF75BFFA0E7D0F8B4329B6923B1CC
:103038000DF10601007C984785E72946FFF74EFF0A
:1030480093E72946FFF74AFF8FE7037C33B9D0F8A7
:10305800B8325B6B0DF10600984774E72946FFF715
:103068003DFF82E7037C43B9D0F8B8321B6B0DF102
:10307800060098470723437065E72946FFF72EFFA8
:1030880073E72946FFF72AFF6FE729462046FFF72F
:1030980025FF6AE7204600F087FA66E738B5044658
:1030A8008B88FBB9CB88EBB94B887F2B1AD803F0F8
:1030B8007F0590F89C32DBB2032B0CD080F89E522F
:1030C800294600F0C1FC204600F06EFA35B1022313
:1030D80084F89C3209E0FFF701FF06E0012384F839
:1030E8009C3202E02046FFF7F9FE38BD70B5044671
:1030F8000E468D782E4B1D70012D10D890F89C32FD
:10310800DBB2022B0FD0032B23D0FFF7E7FE284BAF
:1031180019782046FFF790FD0325284670BDFFF774
:10312800DDFE0325F9E78DB145602946FFF77BFDF4
:10313800054620B131462046FFF7D0FEEDE7204690
:1031480000F032FA032384F89C32E6E700F02CFA08
:10315800E3E7CDB141688D4225D0C9B2FFF76CFDD8
:10316800134B197861602046FFF75DFD0546B0B145
:1031780031462046FFF7B2FE21792046FFF75CFD75
:10318800022384F89C32C8E7022380F89C32456009
:103198002946FFF751FD204600F006FABDE7204614
:1031A80000F002FAB9E700F0FFF90025B5E700BF23
:1031B8005004002008B5CB88012B0BD190F89C3225
:1031C800DBB2022B09D9032B09D10122011D00F022
:1031D800BFF901E0FFF782FE08BD5BB213B9FFF744
:1031E8007DFEF9E70146002341F8083F012200F07F
:1031F800AFF9F1E708B590F89C32013B022B12D8E1
:10320800CB88022B0CD10123C360D0F8A4320BB1B8
:103218000323C360022200F10C0100F099F908BDF4
:10322800FFF75CFEFBE7FFF759FEF8E708B590F8F3
:103238009C32013B022B09D84B88012B00D008BDDA
:103248000023C0F8A43200F0AFF9F8E7FFF746FE14
:10325800F5E738B50C7804F06004202C06D0402C33
:1032680004D054B1FFF73AFE002404E0D0F8B83295
:103278009B6898470446204638BD4D78092D1DD8CF
:10328800DFE805F012191C161C08051C0F0BFFF7C8
:103298002FFEF0E7FFF702FFEDE7FFF727FF0446F1
:1032A800E9E7FFF787FFE6E7FFF7A4FF2C46E2E729
:1032B800FFF7F6FDDFE7FFF7B9FFDCE7FFF70EFEE4
:1032C800D9E770B505460C460B7803F06003202B50
:1032D80007D0402B05D023B1FFF700FE002630466B
:1032E80070BD95F89C32013B022B18D82379012B2D
:1032F8000FD8D5F8B8329B68214628469847064625
:10330800E388002BEBD10028E9D1284600F04CF9DE
:10331800E5E721462846FFF7E1FD0026DFE72146DD
:103328002846FFF7DBFD0026D9E7F8B506460D4627
:103338008B880C7804F06004202C08D0D9B2402C7B
:1033480005D06CB12946FFF7C9FD002406E0D6F880
:10335800B8329B6829463046984704462046F8BD4F
:103368006F78012F2FD0032F05D0002F59D0294671
:10337800FFF7B4FDF2E790F89C32DBB2022B05D0E0
:10338800032B12D02946FFF7A9FDE7E709B18029E9
:1033980004D129463046FFF7A1FDDFE700F02DFBF9
:1033A8008021304600F029FBD8E76B8823B919B192
:1033B800802901D0EB881BB1304600F0F5F8CDE745
:1033C80000F01BFBF8E790F89C32DBB2022B05D02B
:1033D800032B12D02946FFF781FDBFE709B18029E9
:1033E80004D129463046FFF779FDB7E700F005FB21
:1033F8008021304600F001FBB0E76B88002BADD18F
:1034080011F07F0F0AD1304600F0CEF8D6F8B83266
:103418009B6829463046984704469FE700F0F5FA2E
:10342800F1E790F89C22D2B2022A06D0032A29D0CA
:103438002946FFF753FD3C4690E709B1802913D18F
:1034480013F0800F15D101F07F0101EB8101890094
:1034580001F5A8713144043100230B600222304683
:1034680000F076F83C4679E72946FFF737FD3C46F9
:1034780074E701F07F0101EB8101890010313144CB
:103488000431E9E75BB2002B1FDB01F00F0202EB0E
:10349800820200EB8202B2F8642122B3002B27DB00
:1034A80001F07F0303EB83039C0004F5A874344404
:1034B800043409B1802924D1002323600222214643
:1034C800304600F045F83C4648E701F00F0202EBB1
:1034D800820200EB8202928C002ADFD12946FFF794
:1034E800FDFC3C463AE72946FFF7F8FC3C4635E741
:1034F80001F07F0303EB83039C001034344404344D
:10350800D7E7304600F089FA10B101232360D5E7E8
:1035180000232360D2E7D0B170B50D4616460446A5
:10352800FFF7B4FC431C5B009BB233802B70032372
:103538006B70022307E0EA5401345A1CD2B200210E
:10354800A9540233DBB22278002AF4D170BD704747
:1035580008B513460222C0F894228361C3610A4663
:10356800002100F079FA002008BD08B513460A4684
:10357800002100F071FA002008BD08B513460322A7
:10358800C0F89422C0F85831C0F85C310A460021CE
:1035980000F06AFA002008BD08B513460A46002163
:1035A80000F062FA002008BD08B50422C0F8942291
:1035B80000231A46194600F04FFA002008BD08B546
:1035C8000522C0F8942200231A46194600F04CFA46
:1035D800002008BD70B506460D460022154916485C
:1035E800FFF7EFFAC8B915491348FFF701FBB8B957
:1035F80013491148FFF797FAA8B90F48FFF70FFBCF
:10360800A0B90D4C31462046FFF79FFA20222946E3
:103618002046FFF78FFA204670BDFDF78BF8E2E7EA
:10362800FDF788F8E4E7FDF785F8E6E7FDF782F8A7
:10363800E7E700BF8802002054040020640100204E
:103648007402002000207047002070470020704757
:1036580070B504460D46104E01463046FFF775FA20
:103668003046FFF795FA00232A689A4208D914F9D8
:1036780003C00A4A02F803C01F2B0AD00133F3E73C
:103688001F2B04DC054A0021D1540133F8E7002040
:1036980070BD0320FCE700BF54040020080400208C
:1036A80010B5064C002206492046FFF743FA0549A3
:1036B8002046FFF74AFA002010BD00BF540400203E
:1036C8000C0B002024070020094BD3F8BC32D3F898
:1036D80014320BB10120704710B5054C0A4601465B
:1036E8002046FFF727FA2046FFF738FA10BD00BF3B
:1036F8005404002012230B8000487047A8020020C1
:1037080004230B8000487047BC020020002393422A
:103718001ED200B510E00CF1370C01F813C00001FF
:103728004FEA430C0CF1010C4FF0000E01F80CE0CD
:103738000133DBB2934209D24FEA107CB0F1204F3B
:10374800E9D20CF1300C01F813C0E8E75DF804FB8E
:103758007047000038B50B4BD3F89005D3F8944563
:10376800D3F89835C01800D138BD074D0822A91CD8
:10377800FFF7CCFF042205F112012046FFF7C6FF30
:10378800F2E700BF0070FF1FC002002008B51A232F
:103798000B80FFF7DFFF014808BD00BFC002002013
:1037A80008B50A4628B905490548FFF7B4FE034895
:1037B80008BD02490248FFF7AEFEF8E7F40E002004
:1037C8004441000810B50A46034C21460348FFF758
:1037D800A2FE204610BD00BFF40E00205C41000888
:1037E80008B50A4628B905490548FFF794FE034875
:1037F80008BD02490248FFF78EFEF8E7F40E0020E4
:103808007041000808B50A4628B905490548FFF778
:1038180082FE034808BD02490248FFF77CFEF8E72C
:10382800F40E00207C410008032805D8DFE800F0EA
:1038380005040205012070470320704708B5FCF70E
:10384800F9FD08BD02680E4B9A4200D0704700B5DA
:1038580083B003F5DA339A6D42F400029A659B6DE2
:1038680003F400030193019B002211461420FDF785
:103878000DF81420FDF742F803B05DF804FB00BF13
:10388800005C004008B500F52C71D0F8F002FFF795
:10389800DBF908BD08B501EB810300EBC303D3F8DE
:1038A8007C21D0F8F002FFF7FBF908BD08B501EB61
:1038B800810300EBC303DA6BD0F8F002FFF72CFAB0
:1038C80008BD08B5D0F8F002FFF7CCFA08BD10B56E
:1038D80004468368022B09D10121D4F8F002FFF7CE
:1038E800A7FAD4F8F002FFF776FA10BDFCF722FF2A
:1038F800F2E7000010B50446D0F8F002FFF79BFA93
:10390800A36923B1024A136943F00603136110BD8A
:1039180000ED00E010B50446836923B9D4F8F0023D
:10392800FFF793FA10BD044A136923F006031361E5
:10393800FFF784FFF2E700BF00ED00E010B5044692
:103948001E48C0F8F042C4F8C4021D4B03600823A7
:103958004360022383600361002343618361C36181
:103968000362FDF779F830BB182300221146D4F81A
:10397800C402FDF744FF582300228021D4F8C40272
:10398800FDF73DFFC02300228121D4F8C402FDF7D2
:1039980036FF4FF4887300220121D4F8C402FDF7E2
:1039A8002EFF4FF4807300228221D4F8C402FDF761
:1039B80026FF002010BDFCF7BDFED5E7F41000205F
:1039C800005C004008B5D0F8C402FDF7B7F8FFF76F
:1039D8002BFF08BD08B594461A466346D0F8C402C2
:1039E800FDF7D6FDFFF720FF08BD08B5D0F8C402E3
:1039F800FDF710FEFFF718FF08BD08B5D0F8C402A0
:103A0800FDF78DFEFFF710FF08BD08B5D0F8C4021A
:103A1800FDF7BAFEFFF708FF08BDD0F8C43211F071
:103A2800800F08D101F07F0101EB810103EBC10197
:103A380091F86A01704701F07F01013101EB8101C2
:103A480003EBC1018878704708B5D0F8C402FDF7C8
:103A58009DFCFFF7E9FE08BD08B5D0F8C402FDF7E4
:103A680036FEFFF7E1FE08BD08B5D0F8C402FDF741
:103A780003FEFFF7D9FE08BD08B5D0F8C402FDF76C
:103A88001DFE08BD10B5044611B101290FD010BDA7
:103A9800836923B9D4F8F002FFF7D7F9F7E7FFF7FE
:103AA800CDFE094A136923F006031361F2E7D0F843
:103AB800F002FFF7C0F9A369002BE8D0024A1369A6
:103AC80043F006031361E2E700ED00E000487047A9
:103AD800E8130020704700000D4885460D480E4940
:103AE8000E4A002302E0D458C4500433C4188C4250
:103AF800F9D30B4A0B4C002301E013600432A242B5
:103B0800FBD3FCF749FE00F011F8FCF791FDFEE746
:103B18000080002000000020DC0200209441000802
:103B2800DC02002008160020FEE7000070B50D4DED
:103B38000D4C641BA4100026A64209D10B4D0C4C59
:103B480000F018F8641BA4100026A64205D170BD29
:103B580055F8043B98470136EEE755F8043B98477B
:103B68000136F2E78C4100088C4100088C410008BE
:103B780090410008F8B500BFF8BC08BC9E467047E5
:0C3B8800F8B500BFF8BC08BC9E467047B2
:103B940030000000280000000800000010000000B1
:103BA400310000002900000009000000110000009D
:103BB40034000000320000002A0000000A00000067
:103BC40012000000330000002B0000000B00000076
:103BD400130000003800000020000000180000005E
:103BE400000000003900000021000000190000005E
:103BF400010000003C0000003A0000002200000028
:103C04001A000000020000003B0000002300000036
:103C14001B000000030000005800000050000000DA
:103C2400680000006000000059000000510000001E
:103C340069000000610000005C0000005A00000000
:103C4400520000006A000000620000005B000000F7
:103C5400530000006B0000006300000040000000FF
:103C640048000000700000007800000041000000DF
:103C740049000000710000007900000044000000C9
:103C8400420000004A000000720000007A000000B8
:103C9400430000004B000000730000007B000000A4
:103CA400EA0000000F0000000F000000E300000025
:103CB4000F000000E2000000E20000000F0000001E
:103CC400E20000000F0000000F000000E20000000E
:103CD4002F000000E2000000E20000008F0000005E
:103CE400EF0000000F0000000F0000000F000000B4
:103CF400EF000000E2000000E2000000C00000004D
:103D0400E20000000000000000000000EF000000DE
:103D14002F000000E2000000E20000008F0000001D
:103D24000000000000000000EA000000EF000000B6
:103D340000000000EA00000000000000EF000000A6
:103D4400EA000000E2000000E2000000EF000000D2
:103D5400000000000000000000000000EF00000070
:103D6400EA0000000F0000000F000000E300000064
:103D7400EF0000000000000000000000EF00000061
:103D84000C0000000F0000000F000000EF00000016
:103D94002F000000E3000000EA0000008F00000094
:103DA40000000000EA000000EF0000000000000036
:103DB4000000000000000000EF0000000000000010
:103DC4000000000000000000EF0000000000000000
:103DD40000000000E2000000EF000000E20000002C
:103DE40003000000070000000C00000010000000A9
:103DF40002000000060000000B0000000F0000009D
:103E040003000000070000000C0000001000000088
:103E140002000000060000000B0000000F0000007C
:103E240001000000050000000A0000000E00000070
:103E340001000000050000000A0000000E00000060
:103E44000000000004000000090000000D00000054
:103E54000800000000000000040000000900000049
:103E64000D00000008000000000000000400000035
:103E7400090000000D00000008000000010000001F
:103E8400050000000A0000000E0000000100000010
:103E9400050000000A0000000E0000000000000001
:103EA40004000000090000000D00000008000000EC
:103EB40003000000070000000C00000010000000D8
:103EC40002000000060000000B0000000F000000CC
:103ED40002000000060000000B0000000F000000BC
:103EE40003000000070000000C00000010000000A8
:103EF40001000000010000000100000001000000BA
:103F040000000000000000000000000000000000AD
:103F1400000000000000000000000000000000009D
:103F24000100000001000000010000000100000089
:103F34000100000001000000010000000100000079
:103F4400000000000000000000000000000000006D
:103F5400000000000000000000000000000000005D
:103F6400000000000100000001000000010000004A
:103F74000100000001000000030000000300000035
:103F84000300000003000000030000000300000021
:103F94000300000003000000030000000200000012
:103FA4000200000002000000020000000200000005
:103FB40002000000020000000200000002000000F5
:103FC40002000000020000000200000002000000E5
:103FD40002000000020000000200000002000000D5
:103FE40003000000030000000300000003000000C1
:103FF40003000000030000000300000003000000B1
:104004000F0000000F0000000F000000EF00000090
:104014000000000000000000EA00000000000000B2
:1040240000000000EF00000000000000000000009D
:1040340000000000EF00000000000000000000008D
:10404400EA0000008F0000002F000000E3000000E1
:10405400EF000000E2000000E2000000C0000000E9
:10406400EF0000000000000000000000EF0000006E
:104074002F000000E2000000E20000008F000000BA
:10408400EA0000000F0000000F000000E300000041
:104094000000000060000000E20000008F0000004B
:1040A400000000000C0000000F000000E30000000E
:1040B4002F000000E2000000E20000008F0000007A
:1040C400E20000000F0000000F000000E20000000A
:1040D4000000000000000000EA0000008F00000063
:1040E40000000000EA0000008F0000000000000053
:1040F4002F000000E2000000E20000008F0000003A
:10410400EA0000000F0000000F000000E3000000C0
:10411400EF0000000000000000000000EF000000BD
:10412400EF0000000000000000000000EF000000AD
:104134002F000000E3000000EA0000008F000000F0
:1041440053544D3332205669727475616C20436F39
:104154006D506F727400000053544D6963726F6543
:104164006C656374726F6E6963730000434443202B
:10417400436F6E666967000043444320496E74656B
:08418400726661636500000032
:04418C00FD01000829
:04419000D901000849
:10419400FFFFFFFFFFFFFFFFFFFFFFFFFFFFFFFF2B
:1041A400FFFFFFFFFFFFFFFFFFFFFFFFFFFFFFFF1B
:1041B400FFFFFFFFFFFFFFFFFFFFFFFFFFFFFFFF0B
:1041C400FFFFFFFFFFFFFFFFFFFFFFFFFFFFFFFFFB
:1041D400FFFFFFFFFFFFFFFFFFFFFFFFFFFFFFFFEB
:1041E400FFFFFFFFFFFFFFFFFFFFFFFFFFFFFFFFDB
:1041F400FFFFFFFFFFFFFFFFFFFFFFFFFFFFFFFFCB
:10420400FFFFFFFFFFFFFFFFFFFFFFFFFFFFFFFFBA
:10421400FFFFFFFFFFFFFFFFFFFFFFFFFFFFFFFFAA
:10422400FFFFFFFFFFFFFFFFFFFFFFFFFFFFFFFF9A
:10423400FFFFFFFFFFFFFFFFFFFFFFFFFFFFFFFF8A
:10424400FFFFFFFFFFFFFFFFFFFFFFFFFFFFFFFF7A
:10425400FFFFFFFFFFFFFFFFFFFFFFFFFFFFFFFF6A
:10426400FFFFFFFFFFFFFFFFFFFFFFFFFFFFFFFF5A
:10427400FFFFFFFFFFFFFFFFFFFFFFFFFFFFFFFF4A
:10428400FFFFFFFFFFFFFFFFFFFFFFFFFFFFFFFF3A
:10429400FFFFFFFFFFFFFFFFFFFFFFFFFFFFFFFF2A
:1042A40004410008A43D0008C440000884400008FC
:1042B400243D0008E43C0008444000080440000891
:1042C400A43C0008643D000848454C4C4F20544829
:1042D40045524520465249454E440A00000000001C
:1042E40000000000000000000024F40001000000B1
:1042F400100000006D2A0008252A00083129000852
:104304000000000037280008C72800089D2800087E
:1043140000000000000000000000000079280008F0
:104324006D28000885280008912800080902430028
:10433400020100C032090400000102020100052448
:1043440000100105240100010424020205240600D2
:10435400010705820308001009040100020A000095
:10436400000705010240000007058102400000002B
:1043740009024300020100C03209040000010202E4
:104384000100052400100105240100010424020297
:104394000524060001070582030800100904010032
:1043A400020A00000007050102000200070581025D
:1043B400000200000A0600020000004001000000A4
:1043C40009074300020104C032090400000102028B
:1043D4000100052400100105240100010424020247
:1043E40005240600010705820308001009040100E2
:1043F400020A0000000705010240000007058102CF
:1044040040000000A93600084D3600085136000867
:104414005936000855360008FD36000809370008EB
:10442400CD370008A937000895370008E937000898
:104434000D380008000000001201000202020040D2
:10444400830440570002010203010000040309042D
:104454001A0300000000000000000000000000003B
:0C4464000000000000000000000000004C
:0400000508003AE1D4
:00000001FF
